:020000040800F2
:100000000090002089260008351B0008391B0008D5
:1000100000000000000000000000000000000000E0
:100020000000000000000000000000003D1B000870
:100030000000000000000000411B0008451B0008F4
:10004000D926000800000000D9260008D92600089B
:10005000D9260008D9260008D9260008B91C0008AE
:10006000000000000922000831220008992200083F
:10007000D9260008D9260008D9260008000000006B
:10008000D9260008711A0008D9260008D9260008C8
:10009000D9260008D9260008D9260008D926000844
:1000A000D9260008D9260008D9260008D926000834
:0800B000D9260008D92600083A
:1000B80010B5064C2378002B07D1054B002B02D036
:1000C800044800E000BF0123237010BD1C0000207D
:1000D80000000000DC260008044B10B5002B03D0FC
:1000E8000349044800E000BF10BDC04600000000FE
:1000F80020000020DC260008002243088B4274D32D
:1001080003098B425FD3030A8B4244D3030B8B4210
:1001180028D3030C8B420DD3FF22090212BA030C19
:100128008B4202D31212090265D0030B8B4219D3FA
:1001380000E0090AC30B8B4201D3CB03C01A52411A
:10014800830B8B4201D38B03C01A5241430B8B4262
:1001580001D34B03C01A5241030B8B4201D30B034B
:10016800C01A5241C30A8B4201D3CB02C01A524172
:10017800830A8B4201D38B02C01A5241430A8B4235
:1001880001D34B02C01A5241030A8B4201D30B021E
:10019800C01A5241CDD2C3098B4201D3CB01C01A38
:1001A800524183098B4201D38B01C01A5241430942
:1001B8008B4201D34B01C01A524103098B4201D330
:1001C8000B01C01A5241C3088B4201D3CB00C01A9D
:1001D800524183088B4201D38B00C01A5241430815
:1001E8008B4201D34B00C01A5241411A00D201463A
:1001F800524110467047FFE701B5002000F0F0F8C3
:1002080002BDC0460029F7D076E7704703460B4386
:100218007FD4002243088B4274D303098B425FD3F7
:10022800030A8B4244D3030B8B4228D3030C8B4223
:100238000DD3FF22090212BA030C8B4202D3121209
:10024800090265D0030B8B4219D300E0090AC30BDE
:100258008B4201D3CB03C01A5241830B8B4201D38B
:100268008B03C01A5241430B8B4201D34B03C01A74
:100278005241030B8B4201D30B03C01A5241C30AEC
:100288008B4201D3CB02C01A5241830A8B4201D35D
:100298008B02C01A5241430A8B4201D34B02C01A47
:1002A8005241030A8B4201D30B02C01A5241CDD2EC
:1002B800C3098B4201D3CB01C01A524183098B4237
:1002C80001D38B01C01A524143098B4201D34B0120
:1002D800C01A524103098B4201D30B01C01A524183
:1002E800C3088B4201D3CB00C01A524183088B420A
:1002F80001D38B00C01A524143088B4201D34B00F3
:10030800C01A5241411A00D2014652411046704764
:100318005DE0CA0F00D04942031000D34042534069
:1003280000229C4603098B422DD3030A8B4212D329
:10033800FC22890112BA030A8B420CD3890192115B
:100348008B4208D3890192118B4204D389013AD098
:10035800921100E08909C3098B4201D3CB01C01A6D
:10036800524183098B4201D38B01C01A5241430980
:100378008B4201D34B01C01A524103098B4201D36E
:100388000B01C01A5241C3088B4201D3CB00C01ADB
:10039800524183088B4201D38B00C01A5241D9D2F3
:1003A80043088B4201D34B00C01A5241411A00D274
:1003B8000146634652415B10104601D34042002B70
:1003C80000D54942704763465B1000D3404201B5EF
:1003D800002000F005F802BD0029F8D016E77047A4
:1003E8007047C04670B500260C4D0D4C641BA41018
:1003F800A64209D1002602F06DF90A4D0A4C641B89
:10040800A410A64205D170BDB300EB589847013639
:10041800EEE7B300EB5898470136F2E79C2700084F
:100428009C2700089C270008A02700080300121832
:10043800934200D1704719700133F9E770B50F4C3A
:1004480005002168002901D1012070BDFA20800033
:10045800FFF752FE0A4B01001868FFF74DFE00F047
:100468006FF80028F0D1032DEED8013800222900BA
:1004780000F02EF865600020E7E7C0460000002085
:100488000C0000208023084A5B00116810B50B435C
:1004980013600020FFF7D2FF041E02D001242000C1
:1004A80010BD01F0FBFAFAE700200240034A0449B4
:1004B800136809685B1813607047C046380000204D
:1004C80000000020014B18687047C0463800002023
:1004D800FF22032330B51400C5B22B40DB009C403B
:1004E80089010A40E4439A4000280BDB0C4B800842
:1004F8009C46C023800060449B00C1580C402243A6
:10050800C25030BD0F2307492B408C46083B9B083F
:100518009B006344D9690C402243DA61F1E7C04685
:1005280000E100E000ED00E0002805DB1F23184093
:100538001E3B8340014A13607047C04600E100E05B
:100548000A4A431E012093420ED8C021084A09488E
:100558005360036A09061B021B0A0B43036200234C
:1005680000209360073313607047C046FFFFFF0009
:1005780010E000E000ED00E0F0B54E46DE465746DC
:100588004546E0B58946096883B0002900D184E072
:10059800704B002298464B460091019301259540E7
:1005A800009E2E4074D0019B10275C682300BB433B
:1005B8009946022B00D177E003689B4653009C467E
:1005C800032361468B405946DB4319408B46032180
:1005D80067462140B9408A46594657463943016023
:1005E800012149428A46D1444946012900D888E078
:1005F8006746C56801992B408D68BD402B43C36091
:1006080080235B051C4243D00327524917408C4680
:10061800F9000F2793089B0063448F408C46A02164
:100628001D6EC905BD43884211D04B49884200D18F
:1006380085E04A4989460221484505D04849894606
:100648000521484500D17FE06746B9400D431D6646
:1006580080214346F5435B58E1036ED42B40414665
:100668008027CB518423CB58A10364D42B40842109
:100678008C4641466746CB510B68E10259D42B4062
:1006880041460B604B68A10251D42B4041464B6058
:10069800009B0132D34000D080E703B03CBC9046B9
:1006A8009946A246AB46F0BDD3089B00C318196A09
:1006B800894607210F001740B9000F278F40BA4617
:1006C8008C464F4651468F430199B9460F6961469A
:1006D8008F40BC464F4661460F431F6203689A46E7
:1006E80053009C46032361468B405746DB431F401B
:1006F800BA46032727408F40B946574649460F4315
:100708000760876801991F40BA46CF6861468F40E5
:10071800B946574649460F43876041680F00012193
:10072800AF4325090D4095403D43456060E733439D
:10073800ACE73343A4E7334399E733438FE7012119
:100748006746B9400D4382E703216746B9400D4328
:100758007DE7C04600180240000400500008005021
:10076800000C0050002A01D1816270478161FCE7CA
:1007780070B5134C134A23680025134003432360C4
:1007880080239B00984201D0280070BD0E4B0F4972
:100798001B685800C0184000FFF7AEFC8023616951
:1007A800DB0001301A00194202D1EDE7002805D01C
:1007B800636901381342F9D10025E5E70325E3E72A
:1007C80000700040FFF9FFFF0C00002040420F00BE
:1007D800F0B5CE46474680B5040083B0002800D166
:1007E800DBE00368DA0731D53822C6498868C9686A
:1007F8000240102A00D1D6E0082A00D1D7E0802292
:1008080063685202934200D10FE1A021C9028B42D2
:1008180000D1DFE1BB4DBC492A680A402A602A683A
:10082800BA490A402A60002B00D002E1FFF74AFECD
:1008380080260700B60205E0FFF744FEC01B6428C7
:1008480000D917E12B683342F6D123689A0700D5FF
:1008580092E01A071DD53822AA4DA9680A40182A1D
:1008680000D1D9E0A369002B00D105E101222B6E4C
:10087800022613432B66FFF725FE070005E0FFF766
:1008880021FEC01B022800D9F4E02B6E1E42F6D0D0
:1008980023685B0746D538239A4A91680B40202B7A
:1008A80000D14BE18023D16B5B050025194207D1AC
:1008B800D16B01351943D163D26B13400193019B6E
:1008C8008026934F76003B68334200D1C2E0A3688C
:1008D800012B00D193E1052B00D138E10121894E8C
:1008E800F26D8A43F265F26D03318A43F265002B9B
:1008F80000D035E1FFF7E6FD864B81460227984692
:1009080006E0FFF7DFFD4B46C01A404500D9B1E0CD
:10091800F36D1F42F5D1012D04D17A4A7E49D36B7C
:100928000B40D363E369002B24D03822754DA968A6
:100938000A40102A00D126E1022B00D164E12B687D
:10094800764A8024134003222B60EB68A404934367
:10095800EB60EB68724A1340EB60FFF7B3FD0600EB
:1009680005E0FFF7AFFD801B022800D982E02B6865
:100978002342F6D1002011E03823624A91680B40E7
:10098800D168102B1DD0002B20D113685B0500D433
:1009980099E0E368002B00D095E0012003B00CBC7F
:1009A80090469946F0BDC9438A0700D027E7554AC3
:1009B8001268920300D449E76268002A00D045E72C
:1009C800EBE70D3B0B40022B00D10DE1E3684D4DE9
:1009D800002B64D02B68534A802613402269F60006
:1009E80013432B6080232A685B0013432B60FFF7B7
:1009F80069FD070004E0FFF765FDC01B022839D830
:100A08002B683342F7D06A68636947491B020A407A
:100A180013436B6023681CE72A6E920700D438E7FB
:100A2800A269002A00D034E7B7E7364A11680B43B9
:100A38001360FFF747FD80250700324EAD0204E042
:100A4800FFF740FDC01B642814D833682B42F7D049
:100A58002368FBE63B6833433B60FFF733FD804682
:100A68003B68334200D032E7FFF72CFD4346C01AFB
:100A78000228F5D9032091E701222B6E0226934321
:100A88002B66FFF71FFD070004E0FFF71BFDC01BE7
:100A98000228EFD82B6E1E42F7D12368F9E62B689F
:100AA800224A802613402B60FFF70CFDF600070052
:100AB80004E0FFF707FDC01B0228DBD82B68334290
:100AC800F7D12368C5E65168636917481B020140DE
:100AD8000B4353600B4A134913680B4021690B43BE
:100AE80013601368124A9B045B0FDA401300114A23
:100AF8001360114B1868FFF7A1FC002800D04CE7E1
:100B08002368A6E600100240FFFFFEFFFFFFFBFF81
:100B18000070004088130000FFFFFFEFFFFFFFFE9B
:100B2800FFFFFEEFFFC7FFFFFF80FFFFFFFEFFFF96
:100B38000024F4000C00002004000020D36D9B0763
:100B480000D4EFE6A368002B00D0EBE625E70421EC
:100B58004E4BDA6D0A43DA65DA6D03390A43DA6512
:100B6800FFF7B0FC4A4B8146484F0226984606E0FC
:100B7800FFF7A8FC4B46C01A404500D97AE7FB6D41
:100B88001E42F5D0C7E6012B00D106E70322E8682C
:100B9800236A02409A4200D0FFE67022636A02404C
:100BA8009A4200D0F9E6FE21A36AC90101401A025F
:100BB800914200D0F1E6F822E36A920302409A4299
:100BC80000D0EAE6236B400F4007C01A431E984145
:100BD800C0B2E3E680212D4BC902186801431960B1
:100BE80019680A431A6024E713685B054AD45168F8
:100BF800636928481B0201400B43536079E7234986
:100C0800CA6D1343CB65ABE72B68234A8026134094
:100C18002B60FFF757FCB604070005E0FFF752FC0E
:100C2800C01B022800D925E72B683342F6D1616A38
:100C3800236AEA680B4319490A401343E26A1343DB
:100C4800226B1343A26A802412021343EB608023B1
:100C58002A685B0413432B608023EA685B0513430F
:100C6800EB60FFF72FFC094D0600A40405E0FFF731
:100C780029FC801B022800D9FCE62B682342F6D009
:100C880000208BE6E368002BB1D186E60010024015
:100C980088130000FF80FFFFFFFFFFFE8C80C11F4D
:100CA8003823224A10B591680B4215D09168194033
:100CB80008291AD091681940102918D0916819404C
:100CC80020292FD090680340183B58425841FA23F6
:100CD8004042DB01184010BD0121136814489B04F1
:100CE8005B0F9940FFF708FAF5E71248F3E7D36876
:100CF800D168DB43D0684906490F40040131440EEE
:100D08009B070AD10B48FFF7F7F96043074BD968EF
:100D1800490F0131FFF7F0F9DDE70548FFF7ECF976
:100D28006043F3E780200002D5E7C0460010024088
:100D38000024F40000127A00F8B5CE4647460500B4
:100D480080B50C00002800D179E00722554E3368A1
:100D580013408B4258D32B689A070ED55A0705D5EE
:100D6800E0225149D201886802438A604E494F48BF
:100D78008A680240A86802438A60DB0725D56B6849
:100D8800494A012B00D180E0022B00D177E0002BEB
:100D980050D11268520552D50721434E3827B26800
:100DA8008A431343B360FFF78DFB414B8146984656
:100DB80005E0FFF787FB4B46C01A404555D8B26897
:100DC8006B683A40DB009A42F3D10722354E33680C
:100DD8001340A34235D82B685B0748D4FFF760FF60
:100DE800314B344A9B681B051B0F9B009B581F22E5
:100DF8001340D840304B1860304B1868FFF71EFB83
:100E08000CBC90469946F8BD3368072793430B43BB
:100E18003360FFF757FB264B8146984605E0FFF7FE
:100E280051FB4B46C01A40451FD833683B40A3428C
:100E3800F5D190E7032B2ED0D26D9207ACD40120C8
:100E4800DEE733680727934323433360FFF73AFB12
:100E5800174B8146984633683B40A342BBD0FFF707
:100E680031FB4B46C01A4045F5D90320C8E70E4A66
:100E7800134993680B40E9680B439360AEE7126827
:100E8800920100D588E70120BAE71268920300D5DD
:100E980082E70120B4E7126E920700D57CE70120B3
:100EA800AEE7C0460020024000100240FFF0FFFFFE
:100EB80088130000082700080C0000200400002008
:100EC800FF8FFFFF064B074A9B685B045B0F9B0085
:100ED8009B581F221340044A1068D8407047C046E8
:100EE80000100240482700080C000020F0B5CE464C
:100EF800474680B50368060083B000209A034DD5A5
:100F08008022544B5205D96B8046114200D17FE0B4
:100F18008025514C6D0023682B432360FFF7D2FADC
:100F2800070005E0FFF7CEFAC01B022800D97FE0D2
:100F380023682B42F6D0C022464C9200E36D134042
:100F4800B26920D093421ED08021E06DE56D490240
:100F58002943E165E16D414B414D03402940E1657D
:100F6800E365C3070FD5FFF7ADFA022581463D4F6C
:100F780005E0FFF7A7FA4B46C01AB84258D8E36D08
:100F88001D42F6D0B26933493448CB6D0340134350
:100F9800CB6543460020012B4ED03368DA0706D5CF
:100FA80003242C494A6DA243746822434A659A0770
:100FB80006D50C2427494A6DA243B46822434A65E2
:100FC8005A0606D52349284C4A6D2240F468224324
:100FD8004A655A040AD51F4974694A6D92009208F5
:100FE80022434A658022D20594422CD01B050AD59B
:100FF800184A1E4C536D316923400B4353658023B7
:10100800DB0199420ED003B00CBC90469946F0BD66
:10101800D96B1143D963DB6B1A400192019B012301
:10102800984675E78023D1685B020B43D360EAE7F3
:1010380043460320012BB0D1064A0D49D36B0B4020
:10104800D3633368AAE78022CC6852022243CA607D
:10105800CCE7C0460010024000700040FFFCFFFFD4
:10106800FFFFFEFF88130000FFCFFFFFFF3FFFFFDA
:10107800FFFFFFEF836A30B5DA0706D50168284C11
:101088004A682240C46A22434A609A0706D5016822
:10109800244C4A682240046B22434A605A0706D50A
:1010A8000168214C4A682240446B22434A601A076F
:1010B80006D501681D4C4A682240846B22434A6069
:1010C800DA0606D501681A4C8A682240C46B2243A6
:1010D8008A609A0606D50168164C8A682240046C14
:1010E80022438A605A060AD50168134D4A68446C3F
:1010F8002A4022434A6080225203944209D01B06A8
:1011080006D502680D4953680B40C16C0B43536008
:1011180030BD4A680A4C2240846C22434A60EEE79C
:10112800FFFFFDFFFFFFFEFFFFFFFBFFFF7FFFFF4E
:10113800FFEFFFFFFFDFFFFFFFFFEFFFFFFFF7FFFF
:10114800FFFF9FFFF0B5C646040000B500284AD04F
:101158008023C358002B41D0802324220121E25050
:10116800236820691A68656E8A431A60A268E16973
:101178000243606902430A4318682A43AF4D284076
:1011880002431A605A68AE48256A0240E068024382
:101198005A60A26998682A43AA4D284002430F2042
:1011A8009A60DA6A656A82432A43DA62A64A9342F7
:1011B8001BD0A64A934200D190E0A54A934200D1A1
:1011C80094E0A44A934200D190E0A34B0120A36687
:1011D8000023E366236704BC9046F0BD7C22835459
:1011E80000F074FCB8E70120F5E79C4B5A6D032327
:1011F80013409B4AD35C80200002814200D1A1E0C9
:10120800022B00D136E100D8F9E1042B00D10DE121
:10121800082BDAD1002D21D0012D00D1D3E1022DE8
:1012280000D1DBE1032D00D1E7E1042D00D1F7E186
:10123800052D00D103E2062D00D10FE28020072DF5
:1012480000D119E2082D00D11EE2092D00D127E2B4
:101258000A2D00D12AE20B2D00D0000263686168D4
:101268005B081818FEF748FF0004000C03007D4ACD
:10127800103B9342A9D82368774AD860A266002217
:10128800E2662267A26A002A03D02000FFF7F2FE76
:1012980023685A6874490A402A215A609A688A431E
:1012A8009A601A6829390A431A6088230022E25092
:1012B800FFF708F9236806001A68120700D586E0C8
:1012C8001A68520700D5A2E020238022A3500432D6
:1012D800A35000225C33E25400207CE75F4B5A6D38
:1012E8000C231A405E4B9B181B7984E780231B0252
:1012F800994200D157E1FFF7E5FD636A002BADD0B5
:10130800012B00D156E1022B00D118E1032B00D1AB
:101318005EE1042B00D166E1052B00D173E1062BB9
:1013280000D180E1072B00D18DE1082B00D199E194
:10133800092B00D1A2E10A2B00D1A7E10B2B8DD1FB
:10134800000A8BE7022B00D1FBE000D828E1042B30
:1013580000D0C4E0FFF7A4FC636A002B20D0012B67
:1013680000D12EE1022B00D136E1032B00D13EE162
:10137800042B00D150E1052B00D15CE1062B00D1F4
:1013880068E1072B00D173E1082B00D180E1092B1C
:1013980000D189E10A2B00D192E10B2B00D1000A80
:1013A800636840005B08C0186168FEF7A5FE00048A
:1013B800000C03002B4A103B934200D905E70F238A
:1013C800020000079A43400F2368104354E7274A56
:1013D80080279046BF03DD693D4000D070E7FFF7E6
:1013E80071F82368801B4045F5D91A682049032005
:1013F8000A401A609A68A331FF318A439A60202311
:101408008022A3500432A3505C33E554E3E6174A24
:1014180080279046FF03DD693D4000D054E7FFF781
:1014280051F82368801B4045F5D9DEE7FFF738FC03
:10143800636A002B00D111E762E7C046F369FFCF6A
:10144800FFCFFFFFFFF4FF110038014000440040C8
:1014580000480040004C004001000100001002401C
:10146800F4260008EFFF0000FFB7FFFFFFFFFF01B2
:101478005FFEFFFF002D28D0012D00D1A6E0022D30
:1014880000D1AEE0032D00D1B5E0042D00D1C5E0B8
:10149800052D00D1D5E0062D00D1E1E0072D00D1C2
:1014A800E8E0082D00D1F5E0092D00D1FAE00A2D79
:1014B80000D1FDE00B3D2800864A451EA841944610
:1014C800854B40420340634400E0844B6268500807
:1014D800C0181100FEF710FE0004000CC6E6082B29
:1014E80000D072E6002D67D0012D1FD0022D00D14B
:1014F8008FE0032D00D19CE0042D00D1A7E0052D3D
:1015080000D1B3E0062D00D1BCE08021072D00D129
:10151800C4E0082D00D1CDE0092D00D1D2E00A2D7C
:1015280000D1D5E00B2D00D1D0E0490263685808FE
:1015380040181900FEF7E0FD0004000C39E78008A8
:101548008CE6002D3BD0012D4FD0022D5FD0032D0E
:101558006DD0042D79D0052D00D185E0062D00D160
:101568008EE0072D00D197E0082D00D1A4E0092DC9
:1015780000D1A3E00A2D00D1A6E00B3D2800584A6F
:10158800451EA8419446574B404203406344626855
:101598005008C0181100FEF7AFFD0004000C08E762
:1015A800002B00D011E6FFF78DFC636A002B00D1F9
:1015B800F6E6D4E6400851E680214902B6E74A4BF0
:1015C800E5E74008ECE68020C00147E6474B7DE7A9
:1015D8000621FEF791FD41E68008E1E680208001C2
:1015E8003CE6434B72E7C00838E63C4BCFE70621A0
:1015F800FEF782FDD4E63F4B68E73F482EE6002B16
:1016080000D178E6E1E50A21FEF776FD26E6374BBC
:10161800BDE78021C90189E7C008C1E6374B55E716
:10162800802040011AE60C21FEF766FD16E6344BD1
:10163800ADE734497AE70A21FEF75EFDB0E63248A5
:101648000CE6324B42E7000908E6294B9FE7802168
:1016580089016BE70C21FEF74FFDA1E62C48FDE55B
:101668002C4B33E74009F9E52B4B90E72B495DE715
:10167800000995E62A4B29E70001EFE58009EDE529
:101688001C4B84E7274951E7C000E7E5C009E5E5B9
:10169800400985E6244B19E7184B78E7490145E7E7
:1016A8008000DBE5214B11E7800979E64000D5E5AC
:1016B8000B4B0BE7090139E7194B68E71A4B66E74B
:1016C800C0096DE6C90031E7184B60E749002DE70E
:1016D80089002BE724F40000DC2FF3000024F40039
:1016E80048E80100B85FE6010048E80100127A0006
:1016F80000093D00AAB028005515000080841E008E
:1017080054615100AA2A0000CC0C0000006A18009D
:10171800AA0A00005558140000D430009819000097
:1017280040420F005415000020A1070090D003008C
:1017380070B57C24035D012B12D08025242301265B
:10174800435103681A681968B143196005490A408A
:10175800002141661A60202343510155002070BDC5
:101768000220FCE7FFFFFFDFF0B5CE4647467C23AB
:1017780080B5C35C85B00400012B46D080232422A9
:101788000568C2502E682B68233A93432B60AB68D8
:10179800DB00DB0819431E4BA96000930823FF33C5
:1017A80001931C4B02931C4B0393436E002B28D0D0
:1017B8006A46AB6802AF9846AB685B0FD05CF95CD1
:1017C800C000FEF723FD83B2994643466A461B01D3
:1017D8005B0FD05CF95CC000FEF718FD80B268238F
:1017E8004A46E0520233E252202216332E60E2507B
:1017F80000220020043BE25405B00CBC90469946F8
:10180800F0BD012301209946E9E70220F4E7C0462C
:10181800010101030804020408010101F0B5CE46E4
:1018280047467C2380B5C35C85B00400012B46D0B5
:10183800802324220568C2502E682B68233A9343DC
:101848002B60AB681F4A134019431F4BA9600093D4
:101858000823FF3301931D4B02931D4B0393436EE3
:10186800002B28D06A46AB6802AF9846AB685B0F7E
:10187800D05CF95CC000FEF7C9FC83B299464346C8
:101888006A461B015B0FD05CF95CC000FEF7BEFC2A
:1018980080B268234A46E0520233E25220221633CD
:1018A8002E60E25000220020043BE25405B00CBC3C
:1018B80090469946F0BD012301209946E9E70220A8
:1018C800F4E7C046FFFFFFF1010101030804020429
:1018D8000801010130B599B0342200210BA8FEF7A8
:1018E800A5FD102200216846FEF7A0FD1C2200215C
:1018F80004A8FEF79BFD80208000FEF739FF8023B7
:101908005B000E93C03B1093363B159380239B02DC
:101918001693C02300240225DB050BA817930B950B
:101928000F94129513951494FEF752FF0723012183
:1019380068460093019502940394FFF7FDF901238B
:1019480004A804930594FFF7D1FA19B030BDC04636
:1019580070B588B0FEF796FDFFF7BCFF1422002192
:1019680003A8FEF763FD02220126A0208124374B3D
:101978006400596BC00511435963596B00250A402F
:101988000192019A5A6B082132435A635B6B002219
:1019980033400293029BFEF7E5FE002221002C480B
:1019A800FEF7E0FE80239B0003932A4B03A92848F7
:1019B80004930595FEF7E0FDA020082303A9C005C0
:1019C8000393049605950695FEF7D6FD03A92048CE
:1019D8000394049605950695FEF7CEFD0022002196
:1019E8000720FEF775FD0720FEF79EFD1A4C1B4BDE
:1019F80020002360E1235B02636080235B05A36012
:101A08000C23E56063612561A561E5612562656276
:101A1800A562FFF797FB00212000FFF7A5FE002134
:101A28002000FFF7FBFE2000FFF782FE0C4A0D4B5B
:101A380012889D62DA621D605A6932435A61022235
:101A480052421A61DE6000F06BFCFEE700100240B3
:101A58000004005000001110A006002000380140CA
:101A680008000020001000400121084B1A688A4332
:101A78001A60074AFF319162002206494A750649F1
:101A88000988D9625A621A617047C046001000403E
:101A9800000400502C0A00200800002001220A4BF4
:101AA80082B0196C11431964196C0A4080210092A4
:101AB800009ADA6B49050A43DA63DB6B0B40019342
:101AC800019B02B07047C0460010024010B50400E8
:101AD80088B01422002103A8FEF7A8FC114B226845
:101AE8009A4201D008B010BD80200F4BC001196C7C
:101AF800014319641A6C02400192019A0122596B40
:101B0800A020114359635B6B03A913400293029B06
:101B1800C023DB0003930223C00504930792FEF75A
:101B28002BFDDFE700380140001002407047C04637
:101B3800FEE7C0467047C0467047C04610B5FEF77E
:101B4800B5FC10BD8022024B12059A607047C04652
:101B580000ED00E00322F8B50027244E244C30683D
:101B68000378A7709B081340637027711DD0012B61
:101B78001FD0022B24D0002103231E4D80260322D0
:101B880040787642024031431B481B010B43E27008
:101B98001343026802211370A378026853700A2362
:101BA80000682B7000F0B0FBF8BD124D00212B71BE
:101BB800E4E701780F4D114021712F718900DDE7AD
:101BC80083780C4DA37001232B71FC23C1789B01F2
:101BD8000902194003791943E98000F071FB217962
:101BE80030688900637849B2C8E7C0461800002009
:101BF800480A00202C0A002014000020012310B5F8
:101C08000D4C23710D4B1868FC23C1789B01090208
:101C1800194003791943E18000F052FBD022084BA8
:101C280019680A70002219684A7018680B32022174
:101C3800227000F069FB10BD2C0A0020180000205B
:101C480014000020002210B5064B1A71064A91783C
:101C580001314A0089180F221A70044B186800F0E5
:101C680053FB10BD2C0A0020480A00201800002051
:101C7800002310B50B4A13710B4B5978012908D072
:101C8800C021890010231370084B186800F03CFB32
:101C980010BD197903394B1E99414B422021194037
:101CA8006031EFE72C0A0020480A002018000020C5
:101CB800802270B50F4B92000F4CDA60657D002DC5
:101CC80006D00023013A63750C4BFF3A9A6270BD47
:101CD8000B4B0521186800F0F3FAA0220123082114
:101CE800D205237091620222E372044B9A61A572B5
:101CF800EDE7C046001802402C0A002000040050FE
:101D0800180000200122034B5A75034BFF329A61D9
:101D18007047C0462C0A0020000400500222034BE2
:101D28009A62034B013A9A727047C0460004005009
:101D38002C0A00200222034B9A610022024B9A725D
:101D48007047C046000400502C0A0020A023082237
:101D5800DB059A62014B073ADA7270472C0A0020B9
:101D6800A0230822DB059A610022014BDA72704732
:101D78002C0A0020F42210B5234952018B68134025
:101D8800FCD122490A78062A0DD0012A0ED0032A4E
:101D980024D0042A04D0052A26D0022A21D010BD36
:101DA800FFF750FFFBE700F0D1F8F8E7184A0B718E
:101DB8001068027892094A7019D0012A1AD0022AAA
:101DC800EDD102784B719206920FCA7015D0012A94
:101DD80016D0022AE3D1FFF711FFE0E700F006FB77
:101DE800DDE700F07DF8DAE7FFF742FFD7E700F01C
:101DF80061F8D4E700F0AAFAD1E700F0CDFACEE70F
:101E0800FFF7A8FECBE7C046003001402C0A0020AF
:101E18001800002010B5064B9A7D012A00D010BD8D
:101E280000229A7508321A7000F0B0F8F7E7C04639
:101E38002C0A0020C42210B51A4952018B6813429B
:101E4800FCD1194C2378082B26D00A2B1ED00B2B3B
:101E580013D0092B11D00C2B11D1A17801291ED92F
:101E6800124800F05BFA012380226375104B520080
:101E78009A6123780C2B08D001E0063B23700123DC
:101E8800802263750A4B52009A6110BD2379002B9A
:101E9800F5D004232370F2E700F098F8F5E700F096
:101EA8004BFAE6E7003800402C0A002068270008B3
:101EB800000400503F21022210B5074B18684378F0
:101EC8001940064B19714900D9801A7000F0F8F9C9
:101ED800FFF718FF10BDC046180000202C0A00208C
:101EE800F8B5154E154B35791968002D21D0144FCA
:101EF8000B003C00013DEDB26D008A1CAD1818784E
:101F08005A78000202430233228002349D42F6D1FD
:101F180000240C4D3A882868747100F0DBF90D2311
:101F28003370094B286802211C705C7000F0ECF9D2
:101F3800F8BD034FECE7C0462C0A0020180000202B
:101F4800B832002014000020A000002010B5FFF7D0
:101F5800F1FEFFF7FBFE0022084B9A8207321A7047
:101F68005B79074A5B009A5A064B1968064B186852
:101F780000F0B0F9FFF7C6FE10BDC0462C0A0020DD
:101F8800B8320020180000201400002070B50C4D55
:101F98000C4A29894B005B185B00D1189C5A4B8866
:101FA800094AE4181068AB89A4B22100C01800F0EF
:101FB800ABF9AB89E4182B7DAC8101332B7570BD6F
:101FC8002C0A00202C0700201800002070B52D4C8A
:101FD8002D49627923895500A0894D5B01339BB255
:101FE80085421CD10025608A238101322379013082
:101FF800D2B2A581E58160826271934226D0637D69
:10200800012B2BD007232370204B52008A5A1968C2
:102018001F4B186800F05EF9FFF774FE70BD5A0098
:102028001C492381D3185B00CA185D5A5388ED18E0
:10203800164BADB21B682900181800F065F9A38982
:10204800ED18237DA58101332375E7E7002363712C
:10205800238B2581002B13D0012363750623F422DB
:102068000D49237052018B681342FCD1FFF778FEAB
:10207800FFF754FE064B218B186800F021F9CDE7D5
:102088000022BCE72C0A0020B832002018000020EB
:10209800140000202C07002000300140F0B5DE4677
:1020A80057464E4645460124494BE0B59A6B83B0E6
:1020B80022439A639B6B002223400193002109204D
:1020C800019BFEF705FA0920FEF72EFA00220121EE
:1020D8000A20FEF7FDF90A20FEF726FA0022012160
:1020E8000B20FEF7F5F90B20FEF71EFA0022032558
:1020F80002268027374B38481A604168BC4621437E
:10210800416036494C682C434C60354C5A609C60A1
:10211800A0461C680D3534431C601C682C431C60A9
:102128001C683C43C0271C601C68BF013C431C6002
:102138001124BA4630272B4B1C602B4B1A6044687D
:10214800344344604C683C434C60444667465A609C
:102158009C60264C2468DC601C6834431C601C6846
:10216800AC431C601C683C431C601C68A04680246F
:102178004746A40127431F601D4BA3461D601D4B06
:102188001A604768B8460827B94647464C46274369
:102198004760574648685C4607434F6061465A6047
:1021A800154A9A601A6816431E601A6815431D601E
:1021B8001A680A431A601A68144313221C600F4BEA
:1021C8001A6003B03CBC90469946A246AB46F0BDA7
:1021D800001002400800024080080240000002404F
:1021E8000C300140000802401C000240180000208A
:1021F80004080240440002400C3800400C08024029
:1022080002210320064B1A688A4306491A604A6865
:1022180002434A6001211A688A431A607047C0461F
:102228000800024000000240164B10B51A689206DA
:1022380010D50220144A11688143116059682E3064
:1022480001435960012113688B4313600F4B1B78BE
:10225800082B11D140220B4B19680A420BD0596840
:102268000A4304215A60084A13688B431360074BDA
:102278005B7D002B03D010BDFFF77CFDEAE7FFF77D
:10228800C9FDF8E7000002401C0002402C0A0020AB
:102298000221094B10B51A688A431A60C0220749FF
:1022A8009201486802434A6001211A688A431A6009
:1022B800FFF7C0FD10BDC0464400024000000240C8
:1022C800034B59600321D8601A680A431A607047A3
:1022D8001C00024010B50124084B9C75084B094CA2
:1022E8005A606260D9600321E06022680A43226074
:1022F8001A6804310A431A6010BDC0462C0A00202F
:102308001C00024008000240034B59600321D860BA
:102318001A680A431A607047440002407047C04672
:1023280010B5FFF713FDFFF705FD00F009F9FFF7FA
:10233800B5FEFFF7E7FC10BD112210B5024B1A706D
:10234800FFF7ECFC10BDC0462C0A002040200021FD
:1023580010B50D4B0D4A1B680D4C1B7811719B066F
:102368009B0F93701B01034320680370236809487F
:1023780059700C2321681370FFF7D0FF20680221E1
:10238800FFF7C2FF10BDC046180000202C0A00202D
:10239800140000208427000870B5104B104D1868F1
:1023A800104C83782B7001232371FC23C1789B0187
:1023B8000902194003791943E180FFF781FFC02220
:1023C800094B19680A702A7819684A70092218682E
:1023D80002212270FFF798FF70BDC0461800002048
:1023E800480A00202C0A002014000020504BF0B5A9
:1023F8004E469946DE465746454600234A46E0B5CE
:10240800137113834B4B89B059780322002905D0E7
:10241800012900D17DE0022900D186E01878464BD9
:1024280006901D680595002800D17BE05300D3185D
:102438005900DBB2049393B2421ED2B203933F4CCD
:1024480053009B185B00A71DDB19029300239C46D1
:102458000333C9B29846053307919A4615E0D01858
:10246800049B80105843C0B280B2019B624623800F
:102478005B462371002363714B461A83029B60807D
:1024880004353C00BB4235D0063741462B78039EC5
:102498009A090132D2001B0956430B400133DB0075
:1024A8005E43A9780196C809834613D00026B3462F
:1024B80046464809064203D1980896084643B3465B
:1024C8001020084202D158464008834660465844C6
:1024D80080B28446564600200E42C6D04646314059
:1024E800BDD00129C1D19818079B80105843C0B2AC
:1024F80080B2BAE7069B059899000E234A461370E6
:10250800FFF702FF09B03CBC90469946A246AB468D
:10251800F0BD1878084B02221D6806900595002822
:1025280000D083E700212800E7E7012276E7C046CC
:102538002C0A0020480A0020180000202C07002040
:10254800F0B5C646802600B502248AB00C220021C8
:1025580007A8FDF76BFF80200127464B76011A6C10
:10256800C00132431A641A6C002532400192019A64
:102578005A6B22435A635A6B22400292029AD96BD1
:102588000143D963DA6B05A902400392039A5A6B97
:102598003A435A635B6B06943B400493049B642361
:1025A8000593A023DB05984618000897FDF7E4FF7C
:1025B80005A9404605970694079508950995FDF7DE
:1025C800DBFF102305A94046059306940795089557
:1025D8000997FDF7D1FF40228020274B800019681A
:1025E8008046914319601D605D6019682143196038
:1025F80019680143196059680F435F6004275968D7
:102608002143596059683943596059688C46E0211B
:102618006046C900084358605868304358601868D5
:1026280010431860154B18689043186008201D6007
:102638005D601D683D431D601D68054340461D6083
:102648001D6825431D601D682843186058680443A9
:102658005C60586838435860586801435960596845
:102668000E435E6019680A431A600AB004BC9046BB
:10267800F0BDC04600100240003001400038004064
:102688000D488546002103E00C4B5B58435004314C
:102698000B480C4B42189A42F6D30B4A02E000232F
:1026A80013600432094B9A42F9D3FFF74BFAFDF74E
:1026B80099FEFFF74DF9FEE700900020A4270008D7
:1026C800000000201C0000201C0000204C340020CA
:1026D800FEE70000F8B5C046F8BC08BC9E46704747
:0C26E800F8B5C046F8BC08BC9E46704720
:1026F4000004020800101010041010100210101032
:1027040008000000000000000000000000000000BD
:1027140000000000000000000000000000000000B5
:10272400000000000100000002000000030000009F
:10273400040000000600000007000000080000007C
:10274400090000000000000000000000000000007C
:10275400000000000100000002000000030000006F
:102764000400000046696E6973686564204164640E
:102774007265737320446174612025640A0000004B
:1027840053454E4420414444522048454144455217
:08279400202564200A0000006A
:04279C00E100000850
:0427A000B900000874
:1027A4000100000004000000001000000024F400F8
:0C27B400B8320020A0000020500A0020D5
:040000050800268940
:00000001FF
