:020000040800F2
:1000000000900020C9320008AD2A0008AF2A00087D
:1000100000000000000000000000000000000000E0
:10002000000000000000000000000000B12A0008ED
:100030000000000000000000B32A0008B52A0008F4
:1000400019330008000000001933000819330008B4
:10005000193300081933000819330008412D00082E
:1000600000000000BD2A0008CD2A0008DD2A000893
:100070001933000819330008193300080000000084
:1000800019330008892800081933000819330008BB
:100090001933000819330008193300081933000810
:1000A0001933000819330008193300081933000800
:0800B0001933000819330008A0
:1000B80010B5064C2378002B07D1054B002B02D036
:1000C800044800E000BF0123237010BD1C0000207D
:1000D800000000001C330008044B10B5002B03D0AF
:1000E8000349044800E000BF10BDC04600000000FE
:1000F800200000201C330008002243088B4274D3E0
:1001080003098B425FD3030A8B4244D3030B8B4210
:1001180028D3030C8B420DD3FF22090212BA030C19
:100128008B4202D31212090265D0030B8B4219D3FA
:1001380000E0090AC30B8B4201D3CB03C01A52411A
:10014800830B8B4201D38B03C01A5241430B8B4262
:1001580001D34B03C01A5241030B8B4201D30B034B
:10016800C01A5241C30A8B4201D3CB02C01A524172
:10017800830A8B4201D38B02C01A5241430A8B4235
:1001880001D34B02C01A5241030A8B4201D30B021E
:10019800C01A5241CDD2C3098B4201D3CB01C01A38
:1001A800524183098B4201D38B01C01A5241430942
:1001B8008B4201D34B01C01A524103098B4201D330
:1001C8000B01C01A5241C3088B4201D3CB00C01A9D
:1001D800524183088B4201D38B00C01A5241430815
:1001E8008B4201D34B00C01A5241411A00D201463A
:1001F800524110467047FFE701B5002000F0F0F8C3
:1002080002BDC0460029F7D076E7704703460B4386
:100218007FD4002243088B4274D303098B425FD3F7
:10022800030A8B4244D3030B8B4228D3030C8B4223
:100238000DD3FF22090212BA030C8B4202D3121209
:10024800090265D0030B8B4219D300E0090AC30BDE
:100258008B4201D3CB03C01A5241830B8B4201D38B
:100268008B03C01A5241430B8B4201D34B03C01A74
:100278005241030B8B4201D30B03C01A5241C30AEC
:100288008B4201D3CB02C01A5241830A8B4201D35D
:100298008B02C01A5241430A8B4201D34B02C01A47
:1002A8005241030A8B4201D30B02C01A5241CDD2EC
:1002B800C3098B4201D3CB01C01A524183098B4237
:1002C80001D38B01C01A524143098B4201D34B0120
:1002D800C01A524103098B4201D30B01C01A524183
:1002E800C3088B4201D3CB00C01A524183088B420A
:1002F80001D38B00C01A524143088B4201D34B00F3
:10030800C01A5241411A00D2014652411046704764
:100318005DE0CA0F00D04942031000D34042534069
:1003280000229C4603098B422DD3030A8B4212D329
:10033800FC22890112BA030A8B420CD3890192115B
:100348008B4208D3890192118B4204D389013AD098
:10035800921100E08909C3098B4201D3CB01C01A6D
:10036800524183098B4201D38B01C01A5241430980
:100378008B4201D34B01C01A524103098B4201D36E
:100388000B01C01A5241C3088B4201D3CB00C01ADB
:10039800524183088B4201D38B00C01A5241D9D2F3
:1003A80043088B4201D34B00C01A5241411A00D274
:1003B8000146634652415B10104601D34042002B70
:1003C80000D54942704763465B1000D3404201B5EF
:1003D800002000F005F802BD0029F8D016E77047A4
:1003E8007047C04670B500260C4D0D4C641BA41018
:1003F800A64209D1002602F08DFF0A4D0A4C641B63
:10040800A410A64205D170BDB300EB589847013639
:10041800EEE7B300EB5898470136F2E7F0330008EF
:10042800F0330008F0330008F43300080300121812
:10043800934200D1704719700133F9E710B50400F1
:10044800114B1968002901D1012010BDFA20800044
:10045800FFF752FE01000D4B1868FFF74DFE00F044
:100468007BF800280DD1032C01D90120EDE70130DC
:1004780000222100404200F031F8034B5C6000206C
:10048800E3E70120E1E7C046000000200C0000205F
:1004980010B5084A116880235B000B4313600020E5
:1004A800FFF7CCFF041E02D00124200010BD02F08B
:1004B80003FAFAE700200240034A1368034909686F
:1004C8005B1813607047C046380000200000002009
:1004D800014B18687047C0463800002070B50028E6
:1004E80011DB8308144DC0339B005C590322104074
:1004F800C000FC3216008640B44389010A4082409D
:1005080022435A5170BDC0B20F230340083B9B08D9
:1005180006339B00094A944663445D6803242040DF
:10052800C000FF2214008440A54389011140814086
:1005380029435960E6E7C04600E100E000ED00E02D
:10054800002805DB1F2318401E3B8340014A136027
:100558007047C04600E100E001380A4B98420FD8C6
:10056800094A50600948036A1B021B0AC021090690
:100578000B43036200239360073313600020704726
:100588000120FCE7FFFFFF0010E000E000ED00E0C5
:10059800F0B5846CC56C6560046D002C02D0446DA8
:1005A800856D65600B4F7C681C26056C2E40012507
:1005B800B5402C437C60046863608368102B04D0CA
:1005C800036899600368DA60F0BD03689A6003689D
:1005D800D960F9E70000024010B50400FF20236845
:1005E800184008381421FFF787FD236C9B08064A3A
:1005F800944663449B006364044BA3641C23184023
:100608001B3B8340E36410BD008200108008024059
:10061800FF2342681340064A9A1892000265054A69
:100628004265013B03221A400123934083657047CA
:100638003F8200104009024070B5041E4DD0056885
:10064800274BE8181421FFF757FD80002064252365
:100658000222E2542B68234A13402B6021680A685F
:10066800A368E06803432069034360690343A06902
:100678000343E0690343206A034313430B602000EC
:10068800FFF7AAFF8023DB01A2689A4218D0626CA8
:10069800FF2361680B401360A36CE26C5A606368C7
:1006A800013B032B0FD9002323656365A365002352
:1006B800E36325220121A154013AA354002070BD0F
:1006C80000236360E3E72000FFF7A2FF236D002209
:1006D8001A60636DA26D5A60E9E70120EFE7C04632
:1006E800F8FFFDBF0F80FFFF70B504002420205CD9
:1006F800012843D02420012525540130205C0128FD
:1007080004D0022024230022E25470BD2430013595
:1007180025540020E063256828680126B043286036
:100728002000FFF735FF236B002B1CD022681368CD
:100738000E210B431360636C1A68D20304D5196841
:10074800802252000A431A60236D002B04D01968D6
:10075800802252000A431A602268136801210B4361
:1007680013600020CEE72268136804218B431360CE
:100778002268136806310B431360DCE70220C4E7E4
:1007880070B5314B1968046825681C23026C134046
:1007980004229A40114216D06A0714D523689B0692
:1007A80003D42368042293432360274C63681C21E5
:1007B800026C114004228A4013436360036B002BD0
:1007C80000D0984770BD02229A4011421CD0AA0757
:1007D8001AD523689B0606D423680A22934323600C
:1007E8002523093AC254184C63681C21026C114035
:1007F80002228A401343636024230022C254C36A3E
:10080800002BDFD09847DDE708229A401142D9D063
:100818002B07D7D523680E22934323600A4C6268BE
:100828001C21036C194001231D008D402A4362607E
:10083800C3632522835423330022C254436B002B05
:10084800C0D09847BEE7C04600000240F0B5C64693
:1008580000B500233BE0032600E00026AE4035004B
:100868003D43534E1834A400A551802435594246BF
:10087800D4432E0026404A68D20302D54246154387
:100888002E004B4D8027EE518426AD592E00264070
:100898004A68920302D5424615432E00444D8427E8
:1008A800EE512D682E0026404A68D20202D54246F3
:1008B80015432E003E4D2E606D682C404A6892020A
:1008C80002D542462A431400394A546001330A6863
:1008D8001400DC4069D001259D402A409046F5D09F
:1008E8004C68022C01D0122C0ED1DC080834A4006C
:1008F800275807261E40B6000F22B24097430A69C0
:10090800B24016003E43265002685F0003242600CA
:10091800BE40F643324094464A681440BC406246A2
:10092800144304604C68621E012A03D9112C01D0BB
:10093800122C10D184683440A446CC68BC4062466E
:10094800144384604468AC434A6812090125154081
:100958009D4025434560C46826408C68BC403443AC
:10096800C4604A68D200B1D59C0825001835AD008E
:100978000F4EAF5903251D40ED000F26AE40B7437B
:10098800A026F605B04200D167E70A4EB04208D06B
:10099800094EB04207D0094EB04200D15BE70526A8
:1009A8005CE701265AE7022658E704BC9046F0BDEA
:1009B800001802400004005000080050000C0050CD
:1009C800002A01D1816270478161FCE710B5104AA5
:1009D800136810490B400343136080239B0098421F
:1009E80001D0002010BD0C4B1A6853009B1858000A
:1009F8000A49FFF781FB0130054B5B695B0503D5AD
:100A0800002803D00138F7E70020EBE70320E9E7E7
:100A180000700040FFF9FFFF0C00002040420F006B
:100A280070B582B0041E00D134E20368DB0739D503
:100A3800C14A916838230B40D16803220A40102B21
:100A480026D0082B26D063688022520293427FD09A
:100A5800A022D202934200D181E0B74B1A68B7496D
:100A68000A401A601A68B6490A401A606368002B7F
:100A780000D180E0FFF72CFD0500AF4B1B689B03FE
:100A880010D4FFF725FD401B6428F6D9032002E2A5
:100A9800032AD6D1A84B1B689B0303D56368002B98
:100AA80000D1FAE123689B0731D5A34A936838211E
:100AB8000B40D16803220A40102B6AD0002B6BD15F
:100AC8009D4A1268520503D5E268002A00D1E6E182
:100AD800994842689B490A40616909020A43426091
:100AE800002B0DD1036898490B4021690B43036023
:100AF8000368DB0A07221A40944BD340944A1360D8
:100B0800944B1868FFF79AFC002800D0C9E12368C5
:100B18001B0700D481E0884B9A6838231340182BB0
:100B280073D0A369002B00D191E0834A136E012191
:100B38000B431366FFF7CCFC05007F4B1B6E9B072E
:100B48006BD4FFF7C5FC401B0228F6D90320A2E1AD
:100B5800794A116880235B020B43136086E7764B62
:100B680019688022D2020A431A6019688022520248
:100B78000A431A607AE7FFF7ABFC05006E4B1B6867
:100B88009B038FD5FFF7A4FC401B6428F6D90320EC
:100B980081E1022A92D193E7E368002B22D0664ACA
:100BA800136869490B4021690B431360116880235E
:100BB8005B000B431360FFF78BFC05005E4B1B6863
:100BC8005B0506D4FFF784FC401B0228F6D90320F6
:100BD80061E159494B685B4A134062691202134349
:100BE8004B6094E7544A13685B490B401360FFF766
:100BF8006FFC0500504B1B685B0588D5FFF768FC48
:100C0800401B0228F6D9032045E14B4B1B6E9B077E
:100C180003D5A369002B00D145E123685B0700D405
:100C2800A2E0454B9A6838231340202B22D0424B30
:100C3800DB6BDB0027D4404AD16B802040050143A1
:100C4800D163D36B03400193019B01251CE03A4A11
:100C5800136E01218B431366FFF73AFC0500364BF0
:100C68001B6E9B07D9D5FFF733FC401B0228F6D92A
:100C7800032010E1304BDB6D9B0775D5A368002B73
:100C880072D1012007E10025344B1B68DB051FD515
:100C9800A368012B30D0052B34D0274BDA6D012106
:100CA8008A43DA65DA6D03318A43DA65A368002B73
:100CB80032D0FFF70DFC06001F4BDB6D9B0751D4AC
:100CC800FFF706FC801B264B9842F5D90320E2E08B
:100CD800224A116880235B000B431360FFF7F8FB7F
:100CE80006001E4B1B68DB05D2D4FFF7F1FB801B07
:100CF8000228F6D90320CEE00F4AD36D01210B4319
:100D0800D365D3E70C4BDA6D04210A43DA65DA6D53
:100D180003390A43DA65C9E7FFF7DAFB0600064B31
:100D2800DB6D9B071ED5FFF7D3FB801B0C4B98424E
:100D3800F5D90320AFE0C04600100240FFFFFEFFD8
:100D4800FFFFFBFFFF80FFFFFFC7FFFF0024F4004A
:100D58000C00002004000020FFFEFFFF0070004090
:100D680088130000012D26D0E369002B00D19CE0F8
:100D7800514A916838220A40102A61D0022B20D0AB
:100D88004D4B1A684D490A401A60DA6803218A43B4
:100D9800DA60DA684A490A40DA60FFF799FB04002A
:100DA800454B1B689B0149D5FFF792FB001B0228A6
:100DB800F6D903206FE0404AD36B42490B40D36316
:100DC800D2E73D4A13683D490B401360FFF780FBAB
:100DD8000500394B1B689B0106D5FFF779FB401BC3
:100DE8000228F6D9032056E0334AD3683649194019
:100DF800236A606A0343A06A00020343E06A03436C
:100E0800206B03430B43D360116880235B040B43BF
:100E18001360D16880235B050B43D360FFF758FB51
:100E28000400254B1B689B0106D4FFF751FB001BF0
:100E38000228F6D903202EE000202CE000202AE02A
:100E4800012B34D01C4BDA6803231340216A8B42F0
:100E580001D001201FE070231340616A8B4201D04A
:100E6800012018E0FE21C9011140A36A1B02994222
:100E780001D001200FE0F8239B031340E16A8B4265
:100E880001D0012007E0520F5207236B9A4210D07D
:100E9800012000E0012002B070BD0120FBE7012025
:100EA800F9E70120F7E70120F5E70020F3E7012043
:100EB800F1E70020EFE7C04600100240FFFFFFFE09
:100EC800FFFFFEEFFFFFFFEF8C80C11F10B52B4B1C
:100ED8009B6838221A4219D0284B9A683823134045
:100EE800082B46D0254B9A6838231340102B18D06E
:100EF800224B9A6838231340202B3CD01F4B9A680A
:100F080038231340182B31D0002009E01B4B1A68F6
:100F1800D20A07231340012199401948FFF7ECF83A
:100F280010BD164AD1680D3B0B40D2681209072143
:100F380011400131032B0FD11248FFF7DDF80F4B99
:100F4800DA68120A7F23134058430C4BD968490FBB
:100F58000131FFF7D1F8E3E70948FFF7CDF8074B70
:100F6800DA68120A7F2313405843EEE7FA20C001DB
:100F7800D6E70448D4E780200002D1E700100240F9
:100F88000024F40000127A0070B504000D00002857
:100F980000D1AAE0574B1A68072313408B4221D38C
:100FA80023689A070ED55B0705D5534A9168E02355
:100FB800DB010B439360504A936850490B40A1688A
:100FC8000B4393602368DB0754D56368012B20D05B
:100FD800022B3BD0002B3FD1474A126852051CD444
:100FE80001206AE0434A136807218B432B431360AF
:100FF800FFF76EFA06003F4B1A6807231340AB420F
:10100800CED0FFF765FA801B3D4B9842F3D90320F9
:1010180053E0394A1268920369D537498A6807202C
:10102800824313438B60FFF753FA0600324B9B68E9
:1010380038221A406368DB009A421BD0FFF748FA4F
:10104800801B2F4B9842F1D9032036E02A4A1268B8
:101058009201E2D4012030E0032B05D0264AD26D5C
:101068009207DAD4012028E0234A126E9207D4D4DA
:10107800012022E01F4B1A6807231340AB421DD8FA
:1010880023685B0706D51C4A93681E490B40E16834
:101098000B439360FFF71AFF174B9A68120A0F2346
:1010A80013409B00184A9A581F231340D840174BE7
:1010B8001860174B1868FFF7C1F970BD0D4A13681F
:1010C80007218B432B431360FFF702FA0600094BF5
:1010D8001A6807231340AB42D2D0FFF7F9F9801BF7
:1010E800074B9842F3D90320E7E70120E5E7012001
:1010F800E3E7C0460020024000100240FFF0FFFF77
:1011080088130000FF8FFFFF443300080C00002005
:1011180004000020014B18687047C0460C000020EE
:1011280010B5FFF7F7FF064B9A68120B0723134019
:101138009B00044A9A581F231340D84010BDC0464C
:101148000010024084330008F0B583B0040003683F
:101158009B0360D5574BDB6BDB001ED4554AD16B24
:10116800802040050143D163D36B03400193019B69
:101178000126514A116880235B000B431360FFF777
:10118800A7F905004C4B1B68DB0508D4FFF7A0F94D
:10119800401B0228F6D9032502E00026E9E70025CE
:1011A800002D21D1434BDB6DC0229200134010D09B
:1011B800A2699A420DD03F4AD36D40490B40D06D89
:1011C800802149020143D165D16D3D480140D16577
:1011D800D365DB0710D4002D06D1364AD36D3749C5
:1011E8000B40A1690B43D365012E15D1314AD36B4E
:1011F80034490B40D3630FE0FFF76AF907002D4B22
:10120800DB6D9B07E7D4FFF763F9C01B2E4B9842B1
:10121800F5D90325DFE700252368DB0706D5254A2E
:10122800536D03218B4361680B43536523689B0708
:1012380006D5204A536D0C218B43A1680B43536597
:1012480023685B0606D51B4A536D20490B40E168AD
:101258000B43536523685B040BD5164A536D9B00FB
:101268009B0861690B4353658023DB0562699A42D9
:1012780011D023681B050BD50E4A536D14490B403A
:1012880021690B43536522698023DB019A4209D007
:10129800280003B0F0BD074AD16880235B020B43E6
:1012A800D360E6E7034AD16880235B020B43D3602F
:1012B800EEE7C0460010024000700040FFFCFFFF50
:1012C800FFFFFEFFFFFFFFEF88130000FFCFFFFFC8
:1012D800FF3FFFFFF8B506000C0017001D0033683C
:1012E8009B6823401B1B5A425341BB423BD06B1C9B
:1012F800F5D0FFF7EDF8069BC01AA84201D2002DE1
:10130800EDD132685368E0218B43536082235B0040
:1013180072689A420CD080239B01B26A9A4216D016
:101328005D230122F254013B0022F25403201BE00A
:10133800B36880221202934203D08022D2009342E3
:10134800E9D13268136840218B431360E3E73268C0
:10135800136806490B4013603268116880239B01AB
:101368000B431360DCE70020F8BDC046FFDFFFFF3A
:10137800F8B507000C0015001E0001E0731C0CD125
:101388003A6893682340AB4241D0C023DB009C42BB
:10139800F4D1002DF2D1137BF0E7FFF799F8069B03
:1013A800C01AB04201D2002EEAD13A685368E0214F
:1013B8008B43536082235B007A689A420CD0802367
:1013C8009B01BA6A9A4216D05D230122FA54013B66
:1013D8000022FA5403201BE0BB68802212029342C9
:1013E80003D08022D2009342E9D13A6813684021A1
:1013F8008B431360E3E73A68136806490B401360B0
:101408003A68116880239B010B431360DCE70020D6
:10141800F8BDC046FFDFFFFF70B582B004000D00C5
:101428001600C02100922B0000224901FFF7A0FFFF
:10143800002818D100962B00002280212000FFF7F9
:1014480049FF002816D1C02100962B000022C900B0
:101458002000FFF78DFF00280AD0236E20221343B7
:101468002366032004E0236E20221343236603200F
:1014780002B070BD236E2022134323660320F7E7D2
:1014880070B582B004000D00160082235B0042682C
:101498009A420FD000962B00002280212000FFF7EF
:1014A80019FF002815D182235B0062689A4216D082
:1014B80002B070BD836880221202934203D080225A
:1014C800D2009342E6D12268136840218B4313600F
:1014D800E0E7236E2022134323660320E8E7A3688E
:1014E80080221202934203D08022D2009342DFD19D
:1014F800C02100962B000022C9002000FFF738FF0A
:101508000028D5D0236E2022134323660320CFE77B
:1015180010B5041E5ED0002383625D33C35C002BCC
:101528004CD05D230222E2542268136840218B4389
:101538001360E368E022D200934245D90022F021EB
:1015480009018B4205D0E021C9008B4201D000215E
:10155800A162216B002905D1E021C9008B4236D94F
:10156800022323636368A1680B4321690B43616904
:101578000B4380218900A06901400B43E1690B43BB
:10158800216A0B432168A06A03430B60618B042323
:101598000B40616A0B43616B0B43E1680B432168A5
:1015A80013434B602268D3690B490B40D361002376
:1015B80023665D330122E254002010BD5C33002213
:1015C800C25401F091F9ACE780225201B7E7012338
:1015D8002363C7E70120F0E7FFF7FFFF10B504001A
:1015E8005C23C35C012B00D186E05C230120E0541E
:1015F8000133E35C012B04D002205C230022E25477
:1016080010BD002974D0002A74D05C330230E05435
:1016180000232366A163A287E28723642365E3642A
:101628004422A3520232A35280231B02A2689A4288
:101638002ED0636D314A1A63636D314ADA62636D85
:10164800304A5A63636D00229A63226853682E49B0
:101658000B405360E023DB00E2689A4205D8636DD3
:101668009A698023DB009A4219D022680C32E38FF2
:101678009BB2A16B606DFFF737F8002825D0236E69
:101688001022134323665D230F3AE2540120B4E786
:10169800226811688023DB010B431360C9E7E38FDD
:1016A800DB0707D4226853680B405360E38F5B085D
:1016B800E387DAE7226851688023DB010B43536034
:1016C800E38F5B080133E387CFE723681A68520684
:1016D80003D41A6840210A431A60226853682021FB
:1016E8000B435360226853681E390B43536084E7E9
:1016F800012082E7012080E7022081E7B91A00086B
:10170800FF1A0008DD1A0008FFBFFFFF70B50400CC
:101718005C20205C012800D1F3E05C2001252554E1
:101728000130205CC0B26568012810D0822676009E
:10173800B54204D002205C230022E25470BDA568A3
:10174800002D00D0D5E0042801D00220F3E70029BD
:1017580000D1D0E0002A00D1CFE0002B00D1CEE0AC
:101768005D20205C042802D05D200525255400203A
:101778002066A163A387E38722644422A35202322E
:10178800A352E0642065226853685F490B405360A8
:10179800E023DB00E2689A4228D9226853685B4953
:1017A8000B4053605D23E35C042B67D0A36D584A5C
:1017B8001A63A36D574ADA62A36D574A5A63A36D39
:1017C80000229A6321680C314623E35A9BB2226CAB
:1017D800A06DFEF789FF002857D0236E102213430F
:1017E80023665D230F3AE2540120A4E7226851687A
:1017F80080235B010B435360636D9A698023DB0090
:101808009A4218D0A36D9A698023DB009A42C9D105
:10181800226853683D490B4053604623E35ADB076F
:1018280020D4226853683D490B4053604622A35A8E
:101838005B08A352B6E7A38FDB0708D42268536876
:1018480037490B405360E38F5B08E387DAE7226888
:1018580051688023DB010B435360E38F5B0801333E
:10186800E387CFE72268516880239B010B435360CD
:101878004622A35A5B080133A35293E7A36D294A72
:101888001A63A36D284ADA6296E722685368012131
:101898000B435360626D00231363626DD362626D04
:1018A8005363626D936322680C32E38F9BB2A16B22
:1018B800606DFEF719FF002808D0236E102213432D
:1018C80023665D230F3AE254012034E723681A683F
:1018D800520603D41A6840210A431A6022685368E2
:1018E80020210B435360226853681E390B43536011
:1018F80021E702201FE701201DE701201BE7012047
:1019080019E702201AE7C046FF9FFFFFFFEFFFFF1E
:10191800D11A0008CD1B0008DD1A0008FFDFFFFF01
:10192800FFBFFFFFC51A0008731B000870B504004D
:101938008568002D04D182235B004068984210D04E
:101948005C20205C012800D1A3E05C200123235403
:101958000130205C01280DD002205C230022E254D3
:1019680070BDA73B0420E05413000A002000FFF7D5
:10197800CDFEF5E7002900D187E0002A00D186E0F6
:101988005C330330E054002323662164442162520F
:1019980002316252E3642365A387E38780231B0235
:1019A8009D422ED0226853683B490B405360E02388
:1019B800DB00E2689A422AD92268536837490B400B
:1019C8005360A36D364A1A63A36D364ADA62A36D73
:1019D800354A5A63A36D00229A6321680C31462365
:1019E800E35A9BB2226CA06DFEF77EFE002839D028
:1019F800236E1022134323665D230F3AE25401201D
:101A0800ABE72268136829490B401360CAE72268CC
:101A1800516880235B010B435360A36D9A6980234F
:101A2800DB009A42CDD1226853681C490B405360B1
:101A38004623E35ADB0709D42268536816490B404A
:101A480053604622A35A5B08A352BAE7226851683A
:101A580080239B010B4353604622A35A5B08013342
:101A6800A352AEE723681A68520603D41A684021C5
:101A78000A431A602268536820210B435360226886
:101A880053681F390B43536067E7012065E701205E
:101A980063E7022064E7C046FFDFFFFFFFEFFFFFB9
:101AA800C51A0008731B0008DD1A0008FFBFFFFFF6
:101AB80010B5806A01F0D4F910BD704710B5806A7E
:101AC800FFF7FBFF10BD704710B5806AFFF7FBFFFB
:101AD80010BD704710B5806A0268536803218B43B4
:101AE8005360036E1022134303665D230F3AC254FA
:101AF800FFF7EFFF10BD30B583B00500846AFEF72D
:101B0800E7FC2B681B689B0626D4226853682021B3
:101B18008B435360226853681E398B43536002001D
:101B280062312000FFF778FC002803D0236E2022C2
:101B380013432366A368002B06D101932368DA6850
:101B480001929B680193019B0023E3875D33012287
:101B5800E254236E002B04D1200001F097F903B062
:101B680030BD2000FFF7B5FFF9E770B50500846ABE
:101B7800FEF7AEFC2B681B689B061BD422685368D3
:101B880020218B435360226853681D398B4353606F
:101B9800020061312000FFF773FC002801D02023E8
:101BA800236646230022E25217330132E254236EA1
:101BB800002B03D1200001F025F970BD2000FFF7AC
:101BC80088FFFAE770B50500846AFEF781FC2B6888
:101BD8001B689B061ED42268536820218B435360E0
:101BE800020044312000FFF717FC002803D0236EC1
:101BF8002022134323662268536803218B435360D2
:101C08000023E3874622A3525D33453AE254236E0C
:101C1800002B03D1200001F019F970BD2000FFF757
:101C280058FFFAE710B50400836802691343426954
:101C38001343C2691343426E1A4301680B68AA48EA
:101C4800034013430B6022685368A8490B40E168BE
:101C58000B435360226AA3691A4321688B68A4481E
:101C6800034013438B602268D36A0F218B43616A58
:101C78000B43D36223689F4A934241D09E4A9342C2
:101C880052D09E4A93426AD09D4A934261D0102313
:101C980080221202E169914263D0022B00D110E246
:101CA80000D8BAE1042B00D147E2082B00D0AEE2FD
:101CB800636A002B00D183E2012B00D18CE2022B56
:101CC80000D18CE2032B00D18CE2042B00D18BE2F3
:101CD800052B00D18BE2062B00D18AE2072B00D11D
:101CE80089E2082B00D189E2092B00D189E20A2B6D
:101CF80000D189E20B2B00D160E28020000261E272
:101D0800804B5A6D03231340012B09D0002B05D0BB
:101D1800022B20D0032B05D01023B9E70023B7E707
:101D28000423B5E70823B3E7764B5A6D0C23134019
:101D3800042B0AD005D9082B0FD00C2B07D1082368
:101D4800A6E7002B03D10023A2E70423A0E7102372
:101D58009EE700239CE702239AE7022398E70023E3
:101D680096E7022B00D182E02DD9042B00D1E5E0C3
:101D7800082B00D04EE1636A002B00D123E1012B30
:101D880000D12CE1022B00D12CE1032B00D12CE156
:101D9800042B00D12BE1052B00D12BE1062B00D120
:101DA8002AE1072B00D129E1082B00D129E1092BD1
:101DB80000D129E10A2B00D129E10B2B00D1FFE04A
:101DC8008020400201E1002B00D023E1FFF7A8F9B1
:101DD800636A002B1AD0012B35D0022B35D0032B88
:101DE80035D0042B35D0052B35D0062B35D0072B15
:101DF80035D0082B35D0092B35D00A2B35D00B2BF5
:101E080001D0012103E08021490000E00121FEF713
:101E180073F9400063685B08C0186168FEF76CF9E5
:101E280003041B0C002038491A00103A8A4200D9D2
:101E3800F0E10F22190091435B08083A13400B4365
:101E48002268D36020E10221E1E70421DFE70621CF
:101E5800DDE70821DBE70A21D9E70C21D7E71021C4
:101E6800D5E72021D3E74021D1E78021CFE7636A76
:101E7800002B19D0012B22D0022B22D0032B22D0E9
:101E8800042B22D0052B22D0062B22D0072B22D0C0
:101E9800082B22D0092B22D00A2B22D00B2B01D0C1
:101EA8001A4802E01A4800E0184863685B08C0183E
:101EB8006168FEF721F903041B0C0020B3E71548FD
:101EC800F3E71548F1E71548EFE71548EDE715483A
:101ED800EBE71548E9E71548E7E71548E5E715484A
:101EE800E3E71548E1E7C046F369FFCFFFCFFFFFFF
:101EF800FFF4FF1100380140004400400048004052
:101F0800004C004000100240EFFF00000048E801CC
:101F180048E801000024F40000127A0054615100DE
:101F280000093D0000D43000AAB0280080841E00BB
:101F380040420F0020A1070090D00300FEF7C6FF23
:101F4800636A002B1AD0012B26D0022B26D0032B34
:101F580026D0042B26D0052B26D0062B26D0072BDF
:101F680026D0082B26D0092B26D00A2B26D00B2BBF
:101F780001D0012103E08021490000E00121FEF7A2
:101F8800BBF8400063685B08C0186168FEF7B4F8E6
:101F980003041B0C002046E70221F0E70421EEE7CA
:101FA8000621ECE70821EAE70A21E8E70C21E6E741
:101FB8001021E4E72021E2E74021E0E78021DEE785
:101FC8008020400001E08020400263685B08C01860
:101FD8006168FEF791F803041B0C002023E78020BA
:101FE8000002F2E78020C001EFE78C48EDE780208F
:101FF8008001EAE78A48E8E78A48E6E78020400166
:10200800E3E780200001E0E78020C000DDE78020D2
:102018008000DAE70120002305E7002B00D0F6E076
:10202800FFF77EF8636A002B1AD0012B35D0022BFC
:1020380035D0032B35D0042B35D0052B35D0062BC6
:1020480035D0072B35D0082B35D0092B35D00A2BA6
:1020580035D00B2B01D0012103E08021490000E09D
:102068000121FEF749F863685B08C0186168FEF74C
:1020780043F803041B0C00206B491A00103A8A42EB
:1020880000D9C9E02268D36001236A22A352023A28
:10209800A3520023E366236710BD0221E1E7042170
:1020A800DFE70621DDE70821DBE70A21D9E70C2174
:1020B800D7E71021D5E72021D3E74021D1E78021B8
:1020C800CFE7636A002B19D0012B22D0022B22D034
:1020D800032B22D0042B22D0052B22D0062B22D072
:1020E800072B22D0082B22D0092B22D00A2B22D052
:1020F8000B2B01D04D4802E04D4800E04B48636887
:102108005B08C0186168FDF7F7FF03041B0C00208B
:10211800B2E74848F3E74848F1E74848EFE7484856
:10212800EDE74848EBE74848E9E74848E7E7484823
:10213800E5E74848E3E74848E1E7FEF7C7FE636A92
:10214800002B1AD0012B25D0022B25D0032B25D00C
:10215800042B25D0052B25D0062B25D0072B25D0E1
:10216800082B25D0092B25D00A2B25D00B2B01D0E5
:10217800012103E08021490000E00121FDF7BCFFB7
:1021880063685B08C0186168FDF7B6FF03041B0CA1
:10219800002071E70221F1E70421EFE70621EDE7CE
:1021A8000821EBE70A21E9E70C21E7E71021E5E739
:1021B8002021E3E74021E1E78021DFE7802001E0FB
:1021C8008020000263685B08C0186168FDF794FF0F
:1021D80003041B0C00204FE78020C001F2E7802099
:1021E8008001EFE71D48EDE780204001EAE71C4841
:1021F800E8E71C48E6E780200001E3E78020C0000C
:10220800E0E780208000DDE780204000DAE7012059
:10221800002331E7012037E7012035E7AA2A00002B
:102228009819000054150000EFFF00000024F40086
:1022380024F4000000127A0000093D00AAB028002A
:1022480080841E00006A18005558140040420F0090
:1022580020A1070090D0030048E8010055150000B0
:10226800CC0C0000AA0A0000836ADB0706D50268C6
:1022780053682C490B40C16A0B435360836A9B0720
:1022880006D50268536828490B40016B0B4353601D
:10229800836A5B0706D50268536824490B40416B83
:1022A8000B435360836A1B0706D5026853682049AD
:1022B8000B40816B0B435360836ADB0606D50268CB
:1022C80093681C490B40C16B0B439360836A9B0660
:1022D80006D50268936818490B40016C0B4393605C
:1022E800836A5B060BD50268536814490B40416C3E
:1022F8000B43536080235B03426C9A420AD0836A83
:102308001B0606D5026853680D490B40C16C0B4388
:1023180053607047026853680A490B40816C0B434D
:102328005360ECE7FFFFFDFFFFFFFEFFFFFFFBFF32
:10233800FF7FFFFFFFEFFFFFFFDFFFFFFFFFEFFF65
:10234800FFFFF7FFFFFF9FFFF0B5C64600B5060089
:102358000C0017009846069D3368DB6923401B1B59
:102368005A425341BB421ED16B1CF5D0FEF7B0F860
:102378004346C01AA84201D8002DEDD1326813682F
:102388000B490B40136032689368A331FF318B43CC
:10239800936020238022B3500432B3505C33002270
:1023A800F254032000E0002004BC9046F0BDC04673
:1023B8005FFEFFFF30B583B0040088230022C250BF
:1023C800FEF786F8050023681B681B070ED42368F0
:1023D8001B685B0717D420238022A3500432A35024
:1023E8005C330022E254002003B030BD80210C4B46
:1023F80000930300002289032000FFF7A5FF0028AF
:10240800E5D00320F0E78021054B00932B00002244
:10241800C9032000FFF798FF0028DCD00320E3E77A
:10242800FFFFFF0110B5041E30D08023C358002BD6
:1024380022D080232422E2502268136801218B4392
:1024480013602000FFF7EEFB012814D0A36A002BCD
:1024580018D1226853680E490B405360226893686C
:102468002A218B4393602268136829390B43136030
:102478002000FFF79FFF10BD7C330022C25400F0FC
:10248800E1FAD6E72000FFF7EFFEE2E70120F2E7E6
:10249800FFB7FFFF70B584B0040002A9154A130006
:1024A80005CB05C16A4603CB03C2636E002B1AD065
:1024B800226895686D0E07231D409268520F1340DD
:1024C80002AEF05CC0006A46D15CFDF79FFE6A234D
:1024D800E052705DC0006B46595DFDF797FE6823BA
:1024E800E05204B070BD01336A22A352023AA352EB
:1024F800F7E7C0463433000870B57C23C35C012B72
:1025080015D07C24012606558025242343510268D2
:1025180013681168B1431160064A134000224266ED
:1025280001680B60202343510255002070BD022032
:10253800FCE7C046FFFFFFDFF8B504007C23C35C5F
:10254800012B1BD07C250120605580262423A35114
:1025580023681F681A6882431A6022689368DB0040
:10256800DB08194391602000FFF794FF23681F6080
:102578002023A351002363550020F8BD0220FCE767
:10258800F8B504007C23C35C012B1BD07C250120FB
:10259800605580262423A35123681F681A68824344
:1025A8001A60226893680848034019439160200024
:1025B800FFF770FF23681F602023A3510023635592
:1025C8000020F8BD0220FCE7FFFFFFF1F0B589B05D
:1025D8001422002103A8FDF729FF234B596B02227F
:1025E80011435963596B0A400192019A5A6B0125AC
:1025F8002A435A635B6B2B400293029B00220821FB
:10260800A020C005FEF7DCF981277F00174E0022C5
:1026180039003000FEF7D4F980239B000393144B54
:1026280004930024059403A93000FEF70FF908234A
:10263800039304950594069403A9A020C005FEF70A
:1026480005F9039704950594069403A93000FEF74D
:10265800FDF8002200210720FDF740FF0720FDF7C5
:102668006FFF09B0F0BDC0460010024000040050E2
:102678000000111000B583B0114A916B0123194372
:102688009163926B13400193019B00220021092062
:10269800FDF724FF0920FDF753FF002200210A203F
:1026A800FDF71CFF0A20FDF74BFF002200210B203D
:1026B800FDF714FF0B20FDF743FF03B000BDC04634
:1026C8000010024010B50D480D4B03600023436015
:1026D8008360E022D200C260022202614361FF32BD
:1026E800FF328261036243628362FA3AFF3AC2624E
:1026F80003634363FEF70CFF10BDC0465032002051
:102708000030014010B50F480F4B036082235B0077
:10271800436000238360E022D200C260022202618B
:102728004361FF32FF328261F13AFF3AC2610362CC
:1027380043628362093AC262036308334363FEF764
:10274800E7FE10BD3C0000200038004010B5114CD9
:10275800114B2360E1235B02636080235B05A36068
:102768000023E36023610C226261A361E3612362B9
:102778006362A3622000FFF755FE00212000FFF7E7
:10278800DBFE00212000FFF7FBFE2000FFF7B4FE70
:1027980010BDC046A00600200038014030B599B0F1
:1027A800342200210BA8FDF741FE1022002107A8C2
:1027B800FDF73CFE1C2200216846FDF737FE80200D
:1027C8008000FEF703F902250B9580235B000E932A
:1027D80000240F94C03B1093129513951494383B22
:1027E800159380239B02169380239B0517930BA8B0
:1027F800FEF716F907230793089509940A9402210E
:1028080007A8FEF7C1FB0123009301946846FEF771
:102818009BFC19B030BD000000B583B0FDF738FE51
:10282800FFF7BCFFFFF7D2FEFFF724FFFFF74AFFD1
:10283800FFF768FFFFF78AFF0E4AD16B1023194391
:10284800D163D26B13400193019B0B4B00229A6218
:102858000A490988D9621A605A6901210A435A61EA
:10286800022252421A61D9601120FDF769FE00F078
:1028780053FAFEE700100240001000400800002054
:10288800084B1A6801218A431A60074AFF3191628E
:10289800002206490A7506490988D9625A621A61EE
:1028A8007047C04600100040000400502C0A002069
:1028B800080000207047000082B00A4B196C012202
:1028C80011431964196C0A400092009ADA6B80214E
:1028D80049050A43DA63DB6B0B400193019B02B0A5
:1028E8007047C04600100240F0B58BB004001422B7
:1028F800002105A8FDF79AFD2368494A934204D0B0
:10290800484A93424ED00BB0F0BD474B196C80201B
:102918004001014319641A6C02400192019A596BF3
:102928000122114359635B6B1A400292029B642394
:102938000593623B0693A02005A9C005FDF786FF15
:102948003A483B4B03601023436000238360C36015
:102958008022026143618361C3610362FDF76CFEFB
:10296800002819D1314BA3659C623248324B036071
:1029780011234360013B83600023C360802202610E
:1029880043618361C3610362FDF756FE002806D1E7
:10299800284B63659C62B6E7FFF78CFFE2E7FFF719
:1029A80089FFF5E7204BD96B8020C0010143D9632B
:1029B800DA6B02400392039A5A6B012632435A6338
:1029C8005B6B33400493049B05960225069505A985
:1029D800A020C005FDF73AFF1027059706950025AA
:1029E80007950895099605A9A020C005FDF72EFFB3
:1029F8001248134B0360132343608760C5606D332F
:102A0800036145618561C5610562FDF715FE002812
:102A180003D10A4B63659C6275E7FFF74BFFF8E744
:102A280000300140003800400010024034330020DC
:102A38001C000240EC330020440002409033002088
:102A48000800024010B588B004001422002103A831
:102A5800FDF7ECFC2268114B9A4201D008B010BD7A
:102A68000F4B196C8020C001014319641A6C024095
:102A78000192019A596B0122114359635B6B134010
:102A88000293029BC023DB00039302230493079263
:102A9800A02003A9C005FDF7D9FEDFE700380140F3
:102AA800001002407047FEE77047704710B5FDF709
:102AB80003FD10BD10B50248FDF762FE10BDC0460B
:102AC8009033002010B50248FDF75AFE10BDC046ED
:102AD8003433002010B50248FDF752FE10BDC04641
:102AE800EC330020024B802212059A607047C046E2
:102AF80000ED00E010B50E4A5178090180235B42D1
:102B08000B435BB2117989000B435BB2032010566B
:102B1800084903430868037093780A685370064BA2
:102B280009221A700968073A0448FEF757FD10BDD4
:102B3800440A0020140000202C0A00203C00002039
:102B480010B51C4B19680A789208032313401A4AD7
:102B58005370002090701071002B15D0012B20D0DD
:102B6800022B14D18A78144B9A70144B01221A71D3
:102B7800CA781202FC208001024008790243DA80F8
:102B88000F48FEF7D3FE02E00C4B00221A71094BE6
:102B98001B685A7803231340074AD370FFF7AAFF2C
:102BA80010BD0A7802331340034A1371034B002205
:102BB8001A71ECE718000020440A00202C0A0020B3
:102BC8005032002010B5084BD02219680A70002234
:102BD80019684A70054A0A211170196802220448C6
:102BE800FEF7FCFC10BDC046140000202C0A002093
:102BF8003C00002010B5094B01221A71084A1168DF
:102C0800CA781202FC208001024008790243DA8067
:102C18000448FEF78BFEFFF7D5FF10BD2C0A0020F5
:102C2800180000205032002010B5084B00221A71FD
:102C3800074A92780132510052180E211970054B3B
:102C480019680548FEF7CAFC10BDC0462C0A0020CA
:102C5800440A0020180000203C00002010B50D4B4D
:102C680000221A710C4B5B78012B0AD0C02292000B
:102C7800084B0F211970094B19680948FEF7AEFC7B
:102C880010BD054B1B79032B01D08022F0E7603281
:102C9800EEE7C0462C0A0020440A00201800002055
:102CA8003C000020034B00221A75034B0132FF320F
:102CB8009A6270472C0A002000040050034B01223E
:102CC8001A75034BFF329A617047C0462C0A0020E0
:102CD80000040050034B02229A62034B013A9A7295
:102CE8007047C046000400502C0A0020034B022203
:102CF8009A61034B00229A727047C0460004005044
:102D08002C0A0020A023DB0508229A62014B073A0F
:102D1800DA7270472C0A002010B50549054800F002
:102D2800E3F9FFF7EFFFFFF7E1FFFFF7C7FF10BD7C
:102D3800B8330008A433000810B50C4B8022920069
:102D4800DA600B4B1B7D002B0DD10A4B196805224D
:102D58000948FEF7EBFD064B01221A70FFF7D2FF78
:102D6800FFF7C4FF10BDFFF79DFFFBE70018024007
:102D78002C0A00201800002050320020A023DB0578
:102D880008229A61014B0022DA7270472C0A00204F
:102D980010B5184A00231371174B1B681B789B0941
:102DA800537004D0012B05D0022B06D010BD00F0C3
:102DB800C3F8FBE700F0A4F9F8E71049104800F061
:102DC80093F90D4B1B681A78120903231340094A1B
:102DD800D37000215171002B06D0012B07D0022B94
:102DE800E4D1FFF707FFE1E700F0B4F9DEE7FFF70A
:102DF800A7FEDBE72C0A002018000020B8330008E3
:102E0800AC33000810B5104B1B78012B0AD0042BEB
:102E18000BD0052B0CD0062B0DD0022B0ED0072B78
:102E28000FD010BDFFF7B4FFFBE700F0C3F9F8E7D8
:102E3800FFF7FAFEF5E7FFF711FFF2E700F0ACF84D
:102E4800EFE700F03FF9ECE72C0A002010B5034B40
:102E580007221A7000F0CCF810BDC0462C0A0020DA
:102E680010B5074B1889074A43001C1861000C006D
:102E78005118097912195379CB18034A138010BDD8
:102E88002C0A00202C0700204A0A002010B5254BE8
:102E98001B78072B0DD0092B21D00A2B27D0082B04
:102EA8002FD00B2B31D00C2B24D11E4B03221A70A0
:102EB80020E01D4B1B88002B0ED0FFF75FFFFFF7AC
:102EC80009FF184BDB89184A128818490968C9187C
:102ED8001748FEF72BFD13E000F0AAF810E0114B9D
:102EE8001B79002B06D00F4B05221A7002E00D4B00
:102EF80006221A700B4B1B780B2B01D0FFF7DEFE56
:102F080010BD084B04221A70F4E7064B9978012982
:102F180005D9084800F0E8F8FFF7D0FEEAE700F026
:102F2800E5F8E7E72C0A00204A0A002014000020F0
:102F380050320020BC33000810B5084B19684B7894
:102F48003F221A40064B1A715200DA80022018708C
:102F58000448FEF7EBFCFFF7B1FE10BD1800002097
:102F68002C0A00205032002010B5074B0C221A7092
:102F7800064B00221A705A70054B19680232054830
:102F8800FEF72CFB10BDC0462C0A0020A000002034
:102F9800140000203C00002010B500230BE00F4A6D
:102FA80014685A00A05C0002511C615C01430C4883
:102FB80011520133DBB20B4A12799A42EFD8094B0E
:102FC80000225A71064B1B88044A12680649096890
:102FD8000648FEF79BFBFFF7C7FF10BD180000204F
:102FE800B43200202C0A00201400002050320020A7
:102FF80070B50B4D29890B4A4B005C186000845A48
:1030080012185388E418A4B2AB89074A1168C91882
:1030180022000648FEF7E2FAAB89E418AC8170BDDD
:103028002C0A00202C070020180000203C0000205B
:1030380010B51E4B99895A7950001D4BC35A9942B5
:103048002DD11A4B0321197000219981D981598AF0
:10305800013159821989013189B219810132D2B2FB
:103068005A711B799A4212D0124B1B78994212D08E
:103078000E4B5B795B000E4A9B5A0F4A12680F4948
:1030880009680F48FEF742FBFFF718FE10BD074B13
:1030980000225A71E8E7054B00221A81E8E7034A43
:1030A800138901331381FFF7A3FFEFE72C0A0020F0
:1030B800B4320020440A0020180000201400002028
:1030C8005032002010B5FFF711FEFFF71BFE044A2F
:1030D800D389044909885B18D381FFF7A9FF10BD7C
:1030E8002C0A00204A0A00207047000010B5034B44
:1030F80010221A70FFF7EEFD10BDC0462C0A002002
:1031080010B50F4B1B681A781209032313400D4A98
:103118009370002111711B010B4C40200343206860
:103128000370236859700B23137021680748FFF751
:10313800DBFF216802220648FEF750FA10BDC046A0
:10314800180000202C0A002014000020D8330008A2
:103158003C00002070B5114B1968114D8B782B700D
:10316800104C01232371CA781202FC239B011A40D8
:103178000B791A43E2800C48FEF7D8FB0B4BC022B0
:1031880019680A702A7819684A7008222270196822
:10319800063A0748FEF722FA70BDC046180000201C
:1031A800440A00202C0A002050320020140000207D
:1031B8003C000020F8B5CE46474680B53B4B002280
:1031C8001A713B4B5B78002B06D0012B08D0022BE1
:1031D80004D101239C4601E003239C46002113E00F
:1031E80002239C46FAE7002536E0012C48D000224D
:1031F80030484B005F187C00265204196280257104
:10320800002363710131C9B2294B1A788A4240D927
:103218008C00294B1A68135D980901301B09032794
:103228003B400133C000DB0006005E4365466E4349
:10323800B6B20234145DE50962091740B94622099D
:103248009046012247463A40002D08D04D46002DB1
:10325800C9D187089D087D43002A00D16D08E2087E
:1032680001273A4002373C40002AC1D0002CBCD18B
:10327800C218920863465A4350001218D2B2B7E7F0
:10328800C0188008634658434300C0184200D2B2B1
:10329800AEE7064B0D2119709200074B19680748D5
:1032A800FEF79CF90CBC90469946F8BD2C0A002004
:1032B800440A00202C070020180000203C000020B1
:1032C8000D488546002103E00C4B5B584350043100
:1032D8000B480C4B42189A42F6D30B4A02E00023E3
:1032E80013600432094B9A42F9D3FFF7FBFBFDF751
:1032F80079F8FFF791FAFEE700900020F83300080C
:10330800000000201C0000201C0000204834002081
:10331800FEE70000F8B5C046F8BC08BC9E467047FA
:0C332800F8B5C046F8BC08BC9E467047D3
:10333400010101030701000008040204080101015E
:103344000000000000000000000000000000000079
:103354000000000000000000000000000000000069
:10336400010000000200000003000000040000004F
:10337400060000000700000008000000090000002B
:103384000000000000000000000000000000000039
:10339400010000000200000003000000040000001F
:1033A4005265616479200A00434F4E464947204DD7
:1033B4004F44450A0000000046696E6973686564FD
:1033C40020416464726573732044617461202564D0
:1033D4000A00000053454E442041444452204845CD
:0C33E40041444552202564200A000000EE
:0433F000E1000008F0
:0433F400B900000814
:1033F8000100000004000000001000000024F40098
:0C340800B4320020A00000204C0A00207C
:04000005080032C9F4
:00000001FF
