:020000040800F2
:100000000090002041350008393000083B300008DE
:1000100000000000000000000000000000000000E0
:100020000000000000000000000000003D3000085B
:1000300000000000000000003F30000841300008D0
:100040009135000800000000913500089135000846
:10005000913500089135000891350008DD30000821
:1000600000000000493000085930000891350008B0
:100070009135000891350008913500080000000016
:1000800091350008152E00089135000891350008BB
:100090009135000891350008913500089135000828
:1000A0009135000891350008913500089135000818
:0800B0009135000891350008AC
:1000B80010B5064C2378002B07D1054B002B02D036
:1000C800044800E000BF0123237010BD9000002009
:1000D80000000000D0430008044B10B5002B03D0EB
:1000E8000349044800E000BF10BDC04600000000FE
:1000F80094000020D0430008002243088B4274D3A8
:1001080003098B425FD3030A8B4244D3030B8B4210
:1001180028D3030C8B420DD3FF22090212BA030C19
:100128008B4202D31212090265D0030B8B4219D3FA
:1001380000E0090AC30B8B4201D3CB03C01A52411A
:10014800830B8B4201D38B03C01A5241430B8B4262
:1001580001D34B03C01A5241030B8B4201D30B034B
:10016800C01A5241C30A8B4201D3CB02C01A524172
:10017800830A8B4201D38B02C01A5241430A8B4235
:1001880001D34B02C01A5241030A8B4201D30B021E
:10019800C01A5241CDD2C3098B4201D3CB01C01A38
:1001A800524183098B4201D38B01C01A5241430942
:1001B8008B4201D34B01C01A524103098B4201D330
:1001C8000B01C01A5241C3088B4201D3CB00C01A9D
:1001D800524183088B4201D38B00C01A5241430815
:1001E8008B4201D34B00C01A5241411A00D201463A
:1001F800524110467047FFE701B5002000F0F0F8C3
:1002080002BDC0460029F7D076E7704703460B4386
:100218007FD4002243088B4274D303098B425FD3F7
:10022800030A8B4244D3030B8B4228D3030C8B4223
:100238000DD3FF22090212BA030C8B4202D3121209
:10024800090265D0030B8B4219D300E0090AC30BDE
:100258008B4201D3CB03C01A5241830B8B4201D38B
:100268008B03C01A5241430B8B4201D34B03C01A74
:100278005241030B8B4201D30B03C01A5241C30AEC
:100288008B4201D3CB02C01A5241830A8B4201D35D
:100298008B02C01A5241430A8B4201D34B02C01A47
:1002A8005241030A8B4201D30B02C01A5241CDD2EC
:1002B800C3098B4201D3CB01C01A524183098B4237
:1002C80001D38B01C01A524143098B4201D34B0120
:1002D800C01A524103098B4201D30B01C01A524183
:1002E800C3088B4201D3CB00C01A524183088B420A
:1002F80001D38B00C01A524143088B4201D34B00F3
:10030800C01A5241411A00D2014652411046704764
:100318005DE0CA0F00D04942031000D34042534069
:1003280000229C4603098B422DD3030A8B4212D329
:10033800FC22890112BA030A8B420CD3890192115B
:100348008B4208D3890192118B4204D389013AD098
:10035800921100E08909C3098B4201D3CB01C01A6D
:10036800524183098B4201D38B01C01A5241430980
:100378008B4201D34B01C01A524103098B4201D36E
:100388000B01C01A5241C3088B4201D3CB00C01ADB
:10039800524183088B4201D38B00C01A5241D9D2F3
:1003A80043088B4201D34B00C01A5241411A00D274
:1003B8000146634652415B10104601D34042002B70
:1003C80000D54942704763465B1000D3404201B5EF
:1003D800002000F005F802BD0029F8D016E77047A4
:1003E8007047C0460023C25C0133002AFBD1581E67
:1003F8007047000070B500260C4D0D4C641BA4100E
:10040800A64209D1002603F0DFFF0A4D0A4C641BFF
:10041800A410A64205D170BDB300EB589847013629
:10042800EEE7B300EB5898470136F2E72845000895
:1004380028450008284500082C4500080300121824
:10044800934200D1704719700133F9E70A4B10B590
:1004580004001868002804D08369002B01D103F038
:10046800DDF80020132C05D8044BE400E2580132D3
:1004780000D0E01810BDC04620000020BC000020BD
:10048800F8B50500431C09D103F080F813240600D1
:100498000027201C391CABBE041C34602800F8BDA2
:1004A800F8B5050003F072F8132406000027201C95
:1004B800391CABBE041C28003460F8BD30B585B0CB
:1004C80001AD0190029103920624201C291CABBEA9
:1004D800041C2000FFF7D4FF05B030BD70B50E0036
:1004E8001500FFF7B3FF041E06D103F04FF80923E8
:1004F80003600120404270BD2A0031000068FFF708
:10050800DDFF431CF7D06368281A1B186360F2E705
:10051800F7B50C001600FFF799FF051E07D103F089
:1005280035F809230360012464422000FEBD022E31
:1005380003D903F02BF81623F4E7012E12D14368F0
:10054800E418F6D46F462B680A2600937C60301CAA
:10055800391CABBE061C3000FFF792FF0028E2DB17
:100568006C60E2E7022EEDD103686F4600930A360D
:10057800301C391CABBE061C3000FFF781FF241865
:10058800431CDFD1CFE710B5FFF7C2FF10BD30B570
:1005980085B001AD0190029103920524201C291C0D
:1005A800ABBE041C2000FFF76BFF05B030BD70B573
:1005B8000E001500FFF74AFF041E06D102F0E6FF01
:1005C80009230360012040420FE02A00310000683F
:1005D800FFF7DDFF021EF5DB6368281A1918616052
:1005E800AA4202D10020FFF75BFF70BD37B5022495
:1005F800019001AD201C291CABBE041C2000FFF794
:100608003FFF3EBD70B50500FFF720FF041E06D171
:1006180002F0BCFF092303600120404270BD013D88
:10062800012D09D8094B9A681B699A4204D1012304
:100638005B4203600020F1E72068FFF7D7FF00283E
:10064800ECD101235B422360E8E7C046BC000020F0
:100658000E4A10B511680300002901D10C49116038
:1006680069461068C3188B4206D80A490A4C0968BB
:10067800A14208D08B4206D902F088FF0C23036000
:100688000120404210BD1360FCE7C046AC000020CA
:10069800783C002084000020ADDEFECA70B50C0056
:1006A800FFF7D4FE061E06D102F070FF092303608F
:1006B8000120404270BD802362689B011343636040
:1006C8008023DB0063640C25281C311CABBE051C91
:1006D8002800FFF7D5FE431CECD020610020E9E795
:1006E80070B50C000500582200212000FFF7A6FE77
:1006F80028002100FFF7D2FF70BD70B50D0004007F
:10070800582200212800FFF799FE2000002100F060
:1007180013F80400431C0CD081236A681B0213439E
:100728006B602900FFF7BAFF05002000FFF76AFF9A
:100738002C00200070BD0000F0B50D00002799B016
:100748000090FB000193294BFA009C58631C38D099
:100758000137142FF5D102F019FF01241823644240
:1007680003603FE00223EC03E40F1D4200D01C436A
:100778001F4B1D4201D004231C4308231D4202D0F5
:10078800042294431C43009B18000293FFF72AFE9F
:100798007460B0600124201C311CABBE061C002E06
:1007A8000ADB124BFA009E501300104A3C00944694
:1007B800002263445A6015E03000FFF771FE040020
:1007C80010E0A0232A001B011A4002AE9A42C9D1A8
:1007D80031000098FFF791FF431CC3D002F0D6FE0A
:1007E80011230360200019B0F0BDC046BC000020F2
:1007F80001060000F0B585B000900191274800215E
:100808001500FFF799FF04002A0000210098FFF760
:1008180015FE631C15D02000FFF718FE0C260700F4
:10082800301C391CABBE061C3000FFF729FE03281C
:1008380002DD0338A84207DC20000124FFF7E2FEAE
:100848006442200005B0F0BD03AE04223100200050
:10085800FFF744FE0328EFDD3378532BECD1737890
:10086800482BE9D1B378462BE6D1F378422BE3D174
:10087800012201992000FFF74BFE0028DCDB2A004B
:1008880000992000FFF72AFE05002000FFF7BAFEB6
:100898002800FFF7F5FD0400D3E7C0465C440008D4
:1008A800F7B501240021094E094D01AF2200380097
:1008B80031602C60FFF79EFF002805DD02223B789F
:1008C8001C40134034602B60F7BDC04688000020F0
:1008D8008C00002010B5044C2368002B01DAFFF7C8
:1008E800DFFF206810BDC0468C000020F0B5274B04
:1008F80085B001930025032301ACA360012765603F
:10090800381C211CABBE071C0121214B49421F602A
:100918002B00204DDA000133A950142BFAD1FFF730
:10092800D9FF002818D0194B012701930323A3608E
:1009380001336360381C211CABBE061C164B134ADE
:100948001E6003230192A36005336360381C211CD9
:10095800ABBE041C114B1C60104F3B68013302D125
:100968000D4B1B683B600024094B6C601B682B60B7
:10097800FFF7B0FFA04206D0074BEC601B686C6124
:10098800AB603B682B6105B0F0BDC04672440008FF
:10099800B4000020BC000020B8000020B0000020F7
:1009A80070B5FFF753FD0925041E04D102F0EEFDD2
:1009B8000560200070BD281C211CABBE041C200053
:1009C800012CF7D002F0E2FD002406001325281CB4
:1009D800211CABBE051C3560EBE7000010B5040018
:1009E800114B1968002901D1012010BDFA2080009F
:1009F800FFF782FB01000D4B1868FFF77DFB00F045
:100A080077F800280DD1032C01D90120EDE701303A
:100A180000222100404200F031F8034B5C600020C6
:100A2800E3E70120E1E7C046000000200C000020B9
:100A380010B5084A116880235B000B43136000203F
:100A4800FFF7CCFF041E02D00124200010BD02F0E5
:100A5800F9F9FAE700200240034A136803490968D4
:100A68005B1813607047C046640100200000002036
:100A7800014B18687047C0466401002070B5002813
:100A880011DB8408134DC034A400625903231840B5
:100A9800C000FC331E008640B24389010B408340EE
:100AA8001343635170BDC0B20F220240083A920846
:100AB80006329200084BD3185D6803242040C0001A
:100AC800FF2214008440A54389010A4082402A433A
:100AD8005A60E7E700E100E000ED00E01F2318405E
:100AE8001E3B8340014A13607047C04600E100E0A6
:100AF80001380A4B98420FD8094A50600948036ADE
:100B08001B021B0AC02109060B43036200239360E2
:100B180007331360002070470120FCE7FFFFFF0048
:100B280010E000E000ED00E0F0B5846CC56C656095
:100B3800046D002C02D0446D856D65600B4F7C6898
:100B48001C26056C2E400125B5402C437C600468AA
:100B580063608368102B04D0036899600368DA60C7
:100B6800F0BD03689A600368D960F9E700000240A5
:100B780010B50400FF202368184008381421FFF737
:100B8800BBFA236C9B08064A944663449B00636443
:100B9800044BA3641C2318401B3B8340E36410BD33
:100BA8000082001080080240FF2342681340064A72
:100BB8009A1892000265054A4265013B03221A40D1
:100BC80001239340836570473F820010400902402B
:100BD80070B5041E4DD00568274BE8181421FFF79F
:100BE8008BFA8000206425230222E2542B68234AD2
:100BF80013402B6021680A68A368E06803432069F2
:100C0800034360690343A0690343E0690343206A1F
:100C1800034313430B602000FFF7AAFF8023DB0187
:100C2800A2689A4218D0626CFF2361680B40136077
:100C3800A36CE26C5A606368013B032B0FD9002355
:100C480023656365A3650023E36325220121A1547D
:100C5800013AA354002070BD00236360E3E720003D
:100C6800FFF7A2FF236D00221A60636DA26D5A6020
:100C7800E9E70120EFE7C046F8FFFDBF0F80FFFF5F
:100C880070B504002420205C012843D024200125CD
:100C980025540130205C012804D00220242300229E
:100CA800E25470BD2430013525540020E0632568E6
:100CB80028680126B04328602000FFF735FF236B22
:100CC800002B1CD0226813680E210B431360636C41
:100CD8001A68D20304D51968802252000A431A60A0
:100CE800236D002B04D01968802252000A431A6031
:100CF8002268136801210B4313600020CEE72268A5
:100D0800136804218B4313602268136806310B4370
:100D18001360DCE70220C4E770B5314B196804683A
:100D280025681C23026C134004229A40114216D0F5
:100D38006A0714D523689B0603D4236804229343C7
:100D48002360274C63681C21026C114004228A40EE
:100D580013436360036B002B00D0984770BD0222D9
:100D68009A4011421CD0AA071AD523689B0606D4BC
:100D780023680A22934323602523093AC254184C56
:100D880063681C21026C114002228A40134363608D
:100D980024230022C254C36A002BDFD09847DDE722
:100DA80008229A401142D9D02B07D7D523680E22A2
:100DB800934323600A4C62681C21036C1940012389
:100DC8001D008D402A436260C36325228354233368
:100DD8000022C254436B002BC0D09847BEE7C046E0
:100DE80000000240F0B5C64600B500233BE00326EC
:100DF80000E00026AE4035003D43534E1834A400B1
:100E0800A551802435594246D4432E0026404A68CD
:100E1800D20302D5424615432E004B4D8027EE5192
:100E28008426AD592E0026404A68920302D54246D0
:100E380015432E00444D8427EE512D682E00264080
:100E48004A68D20202D5424615432E003E4D2E6016
:100E58006D682C404A68920202D542462A43140023
:100E6800394A546001330A681400DC4069D001250E
:100E78009D402A409046F5D04C68022C01D0122C97
:100E88000ED1DC080834A400275807261E40B600F7
:100E98000F22B24097430A69B24016003E432650DB
:100EA80002685F0003242600BE40F64332409446A1
:100EB8004A681440BC406246144304604C68621E91
:100EC800012A03D9112C01D0122C10D18468344086
:100ED800A446CC68BC406246144384604468AC4372
:100EE8004A681209012515409D4025434560C4689C
:100EF80026408C68BC403443C4604A68D200B1D5EF
:100F08009C0825001835AD000F4EAF5903251D402C
:100F1800ED000F26AE40B743A026F605B04200D13B
:100F280067E70A4EB04208D0094EB04207D0094ED2
:100F3800B04200D15BE705265CE701265AE70226A6
:100F480058E704BC9046F0BD001802400004005069
:100F580000080050000C0050002A01D1816270473F
:100F68008161FCE710B5104A136810490B40034330
:100F7800136080239B00984201D0002010BD0C4BC9
:100F88001A6853009B1858000A49FFF7B5F8013052
:100F9800054B5B695B0503D5002803D00138F7E7EB
:100FA8000020EBE70320E9E700700040FFF9FFFFAE
:100FB8000C00002040420F0070B582B0041E00D122
:100FC80034E20368DB0739D5C14A916838230B40FE
:100FD800D16803220A40102B26D0082B26D063683C
:100FE8008022520293427FD0A022D202934200D1A3
:100FF80081E0B74B1A68B7490A401A601A68B649BF
:101008000A401A606368002B00D180E0FFF730FDCA
:101018000500AF4B1B689B0310D4FFF729FD401B4D
:101028006428F6D9032002E2032AD6D1A84B1B680C
:101038009B0303D56368002B00D1FAE123689B0763
:1010480031D5A34A936838210B40D16803220A405E
:10105800102B6AD0002B6BD19D4A1268520503D51C
:10106800E268002A00D1E6E1994842689B490A40B3
:10107800616909020A434260002B0DD1036898494F
:101088000B4021690B4303600368DB0A07221A40FF
:10109800944BD340944A1360944B1868FFF79EFC16
:1010A800002800D0C9E123681B0700D481E0884BE1
:1010B8009A6838231340182B73D0A369002B00D1EA
:1010C80091E0834A136E01210B431366FFF7D0FCAE
:1010D80005007F4B1B6E9B076BD4FFF7C9FC401BB9
:1010E8000228F6D90320A2E1794A116880235B021D
:1010F8000B43136086E7764B19688022D2020A43B5
:101108001A601968802252020A431A607AE7FFF7C8
:10111800AFFC05006E4B1B689B038FD5FFF7A8FC3F
:10112800401B6428F6D9032081E1022A92D193E773
:10113800E368002B22D0664A136869490B4021698D
:101148000B431360116880235B000B431360FFF7A8
:101158008FFC05005E4B1B685B0506D4FFF788FC17
:10116800401B0228F6D9032061E159494B685B4AC4
:1011780013406269120213434B6094E7544A1368A0
:101188005B490B401360FFF773FC0500504B1B686D
:101198005B0588D5FFF76CFC401B0228F6D90320B5
:1011A80045E14B4B1B6E9B0703D5A369002B00D170
:1011B80045E123685B0700D4A2E0454B9A683823D1
:1011C8001340202B22D0424BDB6BDB0027D4404A54
:1011D800D16B802040050143D163D36B0340019359
:1011E800019B01251CE03A4A136E01218B431366CB
:1011F800FFF73EFC0500364B1B6E9B07D9D5FFF762
:1012080037FC401B0228F6D9032010E1304BDB6D78
:101218009B0775D5A368002B72D1012007E1002533
:10122800344B1B68DB051FD5A368012B30D0052B79
:1012380034D0274BDA6D01218A43DA65DA6D033140
:101248008A43DA65A368002B32D0FFF711FC060049
:101258001F4BDB6D9B0751D4FFF70AFC801B264B05
:101268009842F5D90320E2E0224A116880235B0006
:101278000B431360FFF7FCFB06001E4B1B68DB05E6
:10128800D2D4FFF7F5FB801B0228F6D90320CEE065
:101298000F4AD36D01210B43D365D3E70C4BDA6DAD
:1012A80004210A43DA65DA6D03390A43DA65C9E7C6
:1012B800FFF7DEFB0600064BDB6D9B071ED5FFF72D
:1012C800D7FB801B0C4B9842F5D90320AFE0C046F2
:1012D80000100240FFFFFEFFFFFFFBFFFF80FFFF44
:1012E800FFC7FFFF0024F4000C00002004000020CA
:1012F800FFFEFFFF0070004088130000012D26D07C
:10130800E369002B00D19CE0514A916838220A40D9
:10131800102A61D0022B20D04D4B1A684D490A4043
:101328001A60DA6803218A43DA60DA684A490A40AF
:10133800DA60FFF79DFB0400454B1B689B0149D50C
:10134800FFF796FB001B0228F6D903206FE0404AFE
:10135800D36B42490B40D363D2E73D4A13683D49FA
:101368000B401360FFF784FB0500394B1B689B019A
:1013780006D5FFF77DFB401B0228F6D9032056E06F
:10138800334AD36836491940236A606A0343A06A1E
:1013980000020343E06A0343206B03430B43D3601B
:1013A800116880235B040B431360D16880235B05BD
:1013B8000B43D360FFF75CFB0400254B1B689B01C4
:1013C80006D4FFF755FB001B0228F6D903202EE0B0
:1013D80000202CE000202AE0012B34D01C4BDA68D6
:1013E80003231340216A8B4201D001201FE07023A0
:1013F8001340616A8B4201D0012018E0FE21C90127
:101408001140A36A1B02994201D001200FE0F82382
:101418009B031340E16A8B4201D0012007E0520F81
:101428005207236B9A4210D0012000E0012002B03D
:1014380070BD0120FBE70120F9E70120F7E7012053
:10144800F5E70020F3E70120F1E70020EFE7C046C9
:1014580000100240FFFFFFFEFFFFFEEFFFFFFFEF60
:101468008C80C11F10B52B4B9B6838221A4219D0AB
:10147800284B9A6838231340082B46D0254B9A6886
:1014880038231340102B18D0224B9A683823134066
:10149800202B3CD01F4B9A6838231340182B31D08F
:1014A800002009E01B4B1A68D20A072313400121C8
:1014B80099401948FEF720FE10BD164AD1680D3B29
:1014C8000B40D2681209072111400131032B0FD1BB
:1014D8001248FEF711FE0F4BDA68120A7F231340F9
:1014E80058430C4BD968490F0131FEF705FEE3E775
:1014F8000948FEF701FE074BDA68120A7F231340FA
:101508005843EEE7FA20C001D6E70448D4E7802024
:101518000002D1E7001002400024F40000127A0013
:1015280070B504000D00002800D1AAE0574B1A68D6
:10153800072313408B4221D323689A070ED55B07F4
:1015480005D5534A9168E023DB010B439360504A69
:10155800936850490B40A1680B4393602368DB07ED
:1015680054D56368012B20D0022B3BD0002B3FD1F0
:10157800474A126852051CD401206AE0434A13689E
:1015880007218B432B431360FFF772FA06003F4B8A
:101598001A6807231340AB42CED0FFF769FA801BC5
:1015A8003D4B9842F3D9032053E0394A126892031D
:1015B80069D537498A680720824313438B60FFF750
:1015C80057FA0600324B9B6838221A406368DB00E2
:1015D8009A421BD0FFF74CFA801B2F4B9842F1D947
:1015E800032036E02A4A12689201E2D4012030E052
:1015F800032B05D0264AD26D9207DAD4012028E0C1
:10160800234A126E9207D4D4012022E01F4B1A6895
:1016180007231340AB421DD823685B0706D51C4A35
:1016280093681E490B40E1680B439360FFF71AFF6C
:10163800174B9A68120A0F2313409B00184A9A58AE
:101648001F231340D840174B1860174B1868FFF733
:10165800C5F970BD0D4A136807218B432B431360EE
:10166800FFF706FA0600094B1A6807231340AB4236
:10167800D2D0FFF7FDF9801B074B9842F3D903201E
:10168800E7E70120E5E70120E3E7C0460020024044
:1016980000100240FFF0FFFF88130000FF8FFFFFDC
:1016A800F84300080C00002004000020014B1868D3
:1016B8007047C0460C00002010B5FFF7F7FF064B37
:1016C8009A68120B072313409B00044A9A581F2359
:1016D8001340D84010BDC0460010024038440008EE
:1016E800F0B583B0040003689B0360D5574BDB6BF0
:1016F800DB001ED4554AD16B802040050143D163DD
:10170800D36B03400193019B0126514A1168802342
:101718005B000B431360FFF7ABF905004C4B1B68EC
:10172800DB0508D4FFF7A4F9401B0228F6D90325E6
:1017380002E00026E9E70025002D21D1434BDB6DAF
:10174800C0229200134010D0A2699A420DD03F4A9D
:10175800D36D40490B40D06D802149020143D165CA
:10176800D16D3D480140D165D365DB0710D4002D0C
:1017780006D1364AD36D37490B40A1690B43D3656F
:10178800012E15D1314AD36B34490B40D3630FE096
:10179800FFF76EF907002D4BDB6D9B07E7D4FFF7CA
:1017A80067F9C01B2E4B9842F5D90325DFE70025C2
:1017B8002368DB0706D5254A536D03218B436168EF
:1017C8000B43536523689B0706D5204A536D0C21AC
:1017D8008B43A1680B43536523685B0606D51B4AF8
:1017E800536D20490B40E1680B43536523685B0444
:1017F8000BD5164A536D9B009B0861690B435365D3
:101808008023DB0562699A4211D023681B050BD53A
:101818000E4A536D14490B4021690B4353652269E5
:101828008023DB019A4209D0280003B0F0BD074AA3
:10183800D16880235B020B43D360E6E7034AD16893
:1018480080235B020B43D360EEE7C04600100240E2
:1018580000700040FFFCFFFFFFFFFEFFFFFFFFEFF0
:1018680088130000FFCFFFFFFF3FFFFFF8B506001A
:101878000C0017001D0033689B6823401B1B5A424D
:101888005341BB423BD06B1CF5D0FFF7F1F8069BE8
:10189800C01AA84201D2002DEDD132685368E02168
:1018A8008B43536082235B0072689A420CD080237A
:1018B8009B01B26A9A4216D05D230122F254013B81
:1018C8000022F25403201BE0B368802212029342E4
:1018D80003D08022D2009342E9D1326813684021B4
:1018E8008B431360E3E73268136806490B401360C3
:1018F8003268116880239B010B431360DCE70020EA
:10190800F8BDC046FFDFFFFFF8B507000C00150063
:101918001E0001E0731C0CD13A6893682340AB4267
:1019280041D0C023DB009C42F4D1002DF2D1137BBF
:10193800F0E7FFF79DF8069BC01AB04201D2002ECF
:10194800EAD13A685368E0218B43536082235B00F5
:101958007A689A420CD080239B01BA6A9A4216D0C0
:101968005D230122FA54013B0022FA5403201BE0B4
:10197800BB6880221202934203D08022D200934295
:10198800E9D13A68136840218B431360E3E73A686A
:10199800136806490B4013603A68116880239B015D
:1019A8000B431360DCE70020F8BDC046FFDFFFFFF4
:1019B80070B582B004000D001600C02100922B0003
:1019C80000224901FFF7A0FF002818D100962B003C
:1019D800002280212000FFF749FF002816D1C021EE
:1019E80000962B000022C9002000FFF78DFF002879
:1019F8000AD0236E202213432366032004E0236EBB
:101A0800202213432366032002B070BD236E2022D8
:101A1800134323660320F7E770B582B004000D0076
:101A2800160082235B0042689A420FD000962B0072
:101A3800002280212000FFF719FF002815D18223FA
:101A48005B0062689A4216D002B070BD836880223B
:101A58001202934203D08022D2009342E6D1226838
:101A6800136840218B431360E0E7236E2022134361
:101A780023660320E8E7A36880221202934203D07A
:101A88008022D2009342DFD1C02100962B00002291
:101A9800C9002000FFF738FF0028D5D0236E202288
:101AA800134323660320CFE710B5041E5ED000233E
:101AB80083625D33C35C002B4CD05D230222E25469
:101AC8002268136840218B431360E368E022D20048
:101AD800934245D90022F02109018B4205D0E0212B
:101AE800C9008B4201D00021A162216B002905D1D8
:101AF800E021C9008B4236D9022323636368A168B9
:101B08000B4321690B4361690B4380218900A0695C
:101B180001400B43E1690B43216A0B432168A06A2A
:101B280003430B60618B04230B40616A0B43616BB9
:101B38000B43E1680B43216813434B602268D36968
:101B48000B490B40D361002323665D330122E25425
:101B5800002010BD5C330022C25401F08BF9ACE7C1
:101B680080225201B7E701232363C7E70120F0E78A
:101B7800FFF7FFFF10B504005C23C35C012B00D105
:101B880086E05C230120E0540133E35C012B04D0A0
:101B980002205C230022E25410BD002974D0002AE0
:101BA80074D05C330230E05400232366A163A2871B
:101BB800E28723642365E3644422A3520232A352DA
:101BC80080231B02A2689A422ED0636D314A1A63A1
:101BD800636D314ADA62636D304A5A63636D00227D
:101BE8009A63226853682E490B405360E023DB0058
:101BF800E2689A4205D8636D9A698023DB009A42AD
:101C080019D022680C32E38F9BB2A16B606DFFF78D
:101C180037F8002825D0236E1022134323665D234E
:101C28000F3AE2540120B4E7226811688023DB01EF
:101C38000B431360C9E7E38FDB0707D422685368B7
:101C48000B405360E38F5B08E387DAE7226851684B
:101C58008023DB010B435360E38F5B080133E38789
:101C6800CFE723681A68520603D41A6840210A434A
:101C78001A602268536820210B4353602268536816
:101C88001E390B43536084E7012082E7012080E777
:101C9800022081E7512000089720000875200008DD
:101CA800FFBFFFFF70B504005C20205C012800D155
:101CB800F3E05C20012525540130205CC0B2656842
:101CC800012810D082267600B54204D002205C2379
:101CD8000022E25470BDA568002D00D0D5E004288C
:101CE80001D00220F3E7002900D1D0E0002A00D17A
:101CF800CFE0002B00D1CEE05D20205C042802D08C
:101D08005D200525255400202066A163A387E3876D
:101D180022644422A3520232A352E064206522685E
:101D280053685F490B405360E023DB00E2689A4246
:101D380028D9226853685B490B4053605D23E35CF4
:101D4800042B67D0A36D584A1A63A36D574ADA6209
:101D5800A36D574A5A63A36D00229A6321680C3118
:101D68004623E35A9BB2226CA06DFEF789FF002838
:101D780057D0236E1022134323665D230F3AE25493
:101D88000120A4E72268516880235B010B4353605C
:101D9800636D9A698023DB009A4218D0A36D9A6913
:101DA8008023DB009A42C9D1226853683D490B4021
:101DB80053604623E35ADB0720D4226853683D4921
:101DC8000B4053604622A35A5B08A352B6E7A38F81
:101DD800DB0708D42268536837490B405360E38F08
:101DE8005B08E387DAE7226851688023DB010B434D
:101DF8005360E38F5B080133E387CFE722685168BC
:101E080080239B010B4353604622A35A5B0801338E
:101E1800A35293E7A36D294A1A63A36D284ADA628D
:101E280096E72268536801210B435360626D0023D3
:101E38001363626DD362626D5363626D936322684C
:101E48000C32E38F9BB2A16B606DFEF719FF00287F
:101E580008D0236E1022134323665D230F3AE25401
:101E6800012034E723681A68520603D41A6840210F
:101E78000A431A602268536820210B435360226882
:101E880053681E390B43536021E702201FE70120E6
:101E98001DE701201BE7012019E702201AE7C046C9
:101EA800FF9FFFFFFFEFFFFF692000086521000883
:101EB80075200008FFDFFFFFFFBFFFFF5D20000860
:101EC8000B21000870B504008568002D04D1822319
:101ED8005B004068984210D05C20205C012800D14B
:101EE800A3E05C20012323540130205C01280DD09D
:101EF80002205C230022E25470BDA73B0420E0547A
:101F080013000A002000FFF7CDFEF5E7002900D1F5
:101F180087E0002A00D186E05C330330E0540023D8
:101F2800236621644421625202316252E3642365CC
:101F3800A387E38780231B029D422ED02268536823
:101F48003B490B405360E023DB00E2689A422AD900
:101F58002268536837490B405360A36D364A1A63A9
:101F6800A36D364ADA62A36D354A5A63A36D00221F
:101F78009A6321680C314623E35A9BB2226CA06D08
:101F8800FEF77EFE002839D0236E10221343236605
:101F98005D230F3AE2540120ABE722681368294910
:101FA8000B401360CAE72268516880235B010B432A
:101FB8005360A36D9A698023DB009A42CDD12268D1
:101FC80053681C490B4053604623E35ADB0709D486
:101FD8002268536816490B4053604622A35A5B088F
:101FE800A352BAE72268516880239B010B435360D0
:101FF8004622A35A5B080133A352AEE723681A6846
:10200800520603D41A6840210A431A6022685368AA
:1020180020210B435360226853681F390B435360D8
:1020280067E7012065E7012063E7022064E7C0460F
:10203800FFDFFFFFFFEFFFFF5D2000080B21000817
:1020480075200008FFBFFFFF10B5806A01F024FA71
:1020580010BD704710B5806AFFF7FBFF10BD7047D1
:1020680010B5806AFFF7FBFF10BD704710B5806A96
:102078000268536803218B435360036E1022134395
:1020880003665D230F3AC254FFF7EFFF10BD30B56A
:1020980083B00500846AFEF7EBFC2B681B689B067F
:1020A80026D42268536820218B43536022685368E2
:1020B8001E398B435360020062312000FFF778FC21
:1020C800002803D0236E202213432366A368002B25
:1020D80006D101932368DA6801929B680193019BFA
:1020E8000023E3875D330122E254236E002B04D1E1
:1020F800200001F0D3F903B030BD2000FFF7B5FF91
:10210800F9E770B50500846AFEF7B2FC2B681B6816
:102118009B061BD42268536820218B435360226896
:1021280053681D398B435360020061312000FFF76B
:1021380073FC002801D02023236646230022E252A4
:1021480017330132E254236E002B03D1200001F033
:1021580061F970BD2000FFF788FFFAE770B5050048
:10216800846AFEF785FC2B681B689B061ED42268D0
:10217800536820218B435360020044312000FFF74D
:1021880017FC002803D0236E2022134323662268FD
:10219800536803218B4353600023E3874622A352ED
:1021A8005D33453AE254236E002B03D1200001F041
:1021B8005DF970BD2000FFF758FFFAE710B504007D
:1021C80083680269134342691343C2691343426E29
:1021D8001A4301680B68AA48034013430B6022683E
:1021E8005368A8490B40E1680B435360226AA3690E
:1021F8001A4321688B68A448034013438B60226804
:10220800D36A0F218B43616A0B43D36223689F4AC9
:10221800934241D09E4A934252D09E4A93426AD0FA
:102228009D4A934261D0102380221202E1699142B3
:1022380063D0022B00D110E200D8BAE1042B00D100
:1022480047E2082B00D0AEE2636A002B00D183E29C
:10225800012B00D18CE2022B00D18CE2032B00D1A0
:102268008CE2042B00D18BE2052B00D18BE2062BEC
:1022780000D18AE2072B00D189E2082B00D189E23C
:10228800092B00D189E20A2B00D189E20B2B00D15E
:1022980060E28020000261E2804B5A6D0323134004
:1022A800012B09D0002B05D0022B20D0032B05D001
:1022B8001023B9E70023B7E70423B5E70823B3E7FA
:1022C800764B5A6D0C231340042B0AD005D9082BE2
:1022D8000FD00C2B07D10823A6E7002B03D100232E
:1022E800A2E70423A0E710239EE700239CE702232C
:1022F8009AE7022398E7002396E7022B00D182E0B1
:102308002DD9042B00D1E5E0082B00D04EE1636AFB
:10231800002B00D123E1012B00D12CE1022B00D1AD
:102328002CE1032B00D12CE1042B00D12BE1052B50
:1023380000D12BE1062B00D12AE1072B00D129E19E
:10234800082B00D129E1092B00D129E10A2B00D162
:1023580029E10B2B00D1FFE08020400201E1002B96
:1023680000D023E1FFF7A8F9636A002B1AD0012BEC
:1023780035D0022B35D0032B35D0042B35D0052B87
:1023880035D0062B35D0072B35D0082B35D0092B67
:1023980035D00A2B35D00B2B01D0012103E0802149
:1023A800490000E00121FDF7A7FE400063685B08D3
:1023B800C0186168FDF7A0FE03041B0C0020384913
:1023C8001A00103A8A4200D9F0E10F22190091430D
:1023D8005B08083A13400B432268D36020E10221CE
:1023E800E1E70421DFE70621DDE70821DBE70A2131
:1023F800D9E70C21D7E71021D5E72021D3E74021E1
:10240800D1E78021CFE7636A002B19D0012B22D0B6
:10241800022B22D0032B22D0042B22D0052B22D032
:10242800062B22D0072B22D0082B22D0092B22D012
:102438000A2B22D00B2B01D01A4802E01A4800E0E0
:10244800184863685B08C0186168FDF755FE030407
:102458001B0C0020B3E71548F3E71548F1E71548CA
:10246800EFE71548EDE71548EBE71548E9E71548A4
:10247800E7E71548E5E71548E3E71548E1E7C0460B
:10248800F369FFCFFFCFFFFFFFF4FF1100380140D2
:102498000044004000480040004C0040001002404A
:1024A800EFFF00000048E80148E801000024F400BC
:1024B80000127A005461510000093D0000D4300038
:1024C800AAB0280080841E0040420F0020A1070007
:1024D80090D00300FEF7C6FF636A002B1AD0012BC9
:1024E80026D0022B26D0032B26D0042B26D0052B52
:1024F80026D0062B26D0072B26D0082B26D0092B32
:1025080026D00A2B26D00B2B01D0012103E08021F5
:10251800490000E00121FDF7EFFD400063685B081A
:10252800C0186168FDF7E8FD03041B0C002046E7AE
:102538000221F0E70421EEE70621ECE70821EAE7AB
:102548000A21E8E70C21E6E71021E4E72021E2E789
:102558004021E0E78021DEE78020400001E0802084
:10256800400263685B08C0186168FDF7C5FD030495
:102578001B0C002023E780200002F2E78020C00126
:10258800EFE78C48EDE780208001EAE78A48E8E732
:102598008A48E6E780204001E3E780200001E0E781
:1025A8008020C000DDE780208000DAE701200023DA
:1025B80005E7002B00D0F6E0FFF77EF8636A002BF2
:1025C8001AD0012B35D0022B35D0032B35D0042B54
:1025D80035D0052B35D0062B35D0072B35D0082B19
:1025E80035D0092B35D00A2B35D00B2B01D0012142
:1025F80003E08021490000E00121FDF77DFD6368CB
:102608005B08C0186168FDF777FD03041B0C002008
:102618006B491A00103A8A4200D9C9E02268D3608F
:1026280001236A22A352023AA3520023E3662367D6
:1026380010BD0221E1E70421DFE70621DDE70821DB
:10264800DBE70A21D9E70C21D7E71021D5E72021BC
:10265800D3E74021D1E78021CFE7636A002B19D067
:10266800012B22D0022B22D0032B22D0042B22D0E4
:10267800052B22D0062B22D0072B22D0082B22D0C4
:10268800092B22D00A2B22D00B2B01D04D4802E077
:102698004D4800E04B4863685B08C0186168FDF767
:1026A8002BFD03041B0C0020B2E74848F3E7484819
:1026B800F1E74848EFE74848EDE74848EBE748487E
:1026C800E9E74848E7E74848E5E74848E3E748488E
:1026D800E1E7FEF7C7FE636A002B1AD0012B25D06D
:1026E800022B25D0032B25D0042B25D0052B25D054
:1026F800062B25D0072B25D0082B25D0092B25D034
:102708000A2B25D00B2B01D0012103E080214900A1
:1027180000E00121FDF7F0FC63685B08C018616800
:10272800FDF7EAFC03041B0C002071E70221F1E726
:102738000421EFE70621EDE70821EBE70A21E9E7A5
:102748000C21E7E71021E5E72021E3E74021E1E755
:102758008021DFE7802001E08020000263685B08B9
:10276800C0186168FDF7C8FC03041B0C00204FE784
:102778008020C001F2E780208001EFE71D48EDE7E7
:1027880080204001EAE71C48E8E71C48E6E780208B
:102798000001E3E78020C000E0E780208000DDE75B
:1027A80080204000DAE70120002331E7012037E7E5
:1027B800012035E7AA2A00009819000054150000E6
:1027C800EFFF00000024F40024F4000000127A0057
:1027D80000093D00AAB0280080841E00006A180085
:1027E8005558140040420F0020A1070090D0030064
:1027F80048E8010055150000CC0C0000AA0A0000AA
:10280800836ADB0706D5026853682C490B40C16A06
:102818000B435360836A9B0706D5026853682849AF
:102828000B40016B0B435360836A5B0706D5026854
:10283800536824490B40416B0B435360836A1B0761
:1028480006D50268536820490B40816B0B435360DF
:10285800836ADB0606D5026893681C490B40C16B86
:102868000B439360836A9B0606D5026893681849F0
:102878000B40016C0B439360836A5B060BD50268BF
:10288800536814490B40416C0B43536080235B032E
:10289800426C9A420AD0836A1B0606D502685368BE
:1028A8000D490B40C16C0B43536070470268536875
:1028B8000A490B40816C0B435360ECE7FFFFFDFFB7
:1028C800FFFFFEFFFFFFFBFFFF7FFFFFFFEFFFFFA5
:1028D800FFDFFFFFFFFFEFFFFFFFF7FFFFFF9FFF98
:1028E800F0B5C64600B506000C0017009846069DD0
:1028F8003368DB6923401B1B5A425341BB421ED13C
:102908006B1CF5D0FEF7B4F84346C01AA84201D8AC
:10291800002DEDD1326813680B490B401360326803
:102928009368A331FF318B43936020238022B350F7
:102938000432B3505C330022F254032000E000203C
:1029480004BC9046F0BDC0465FFEFFFF30B583B0C3
:10295800040088230022C250FEF78AF80500236885
:102968001B681B070ED423681B685B0717D420233A
:102978008022A3500432A3505C330022E25400208A
:1029880003B030BD80210C4B009303000022890363
:102998002000FFF7A5FF0028E5D00320F0E78021FD
:1029A800054B00932B000022C9032000FFF798FF76
:1029B8000028DCD00320E3E7FFFFFF0110B5041E69
:1029C80030D08023C358002B22D080232422E25009
:1029D8002268136801218B4313602000FFF7EEFB88
:1029E800012814D0A36A002B18D1226853680E4915
:1029F8000B405360226893682A218B4393602268B6
:102A0800136829390B4313602000FFF79FFF10BD9F
:102A18007C330022C25400F0DBFAD6E72000FFF72F
:102A2800EFFEE2E70120F2E7FFB7FFFF70B584B0E1
:102A3800040002A9154A130005CB05C16A4603CB59
:102A480003C2636E002B1AD0226895686D0E0723A7
:102A58001D409268520F134002AEF05CC0006A46F7
:102A6800D15CFDF7D3FB6A23E052705DC0006B4672
:102A7800595DFDF7CBFB6823E05204B070BD01330C
:102A88006A22A352023AA352F7E7C046E843000875
:102A980070B57C23C35C012B15D07C240126065518
:102AA800802524234351026813681168B1431160DB
:102AB800064A13400022426601680B6020234351F6
:102AC8000255002070BD0220FCE7C046FFFFFFDF73
:102AD800F8B504007C23C35C012B1BD07C250120A6
:102AE800605580262423A35123681F681A688243EF
:102AF8001A6022689368DB00DB08194391602000A4
:102B0800FFF794FF23681F602023A3510023635518
:102B18000020F8BD0220FCE7F8B504007C23C35C64
:102B2800012B1BD07C250120605580262423A3512E
:102B380023681F681A6882431A60226893680848E5
:102B48000340194391602000FFF770FF23681F605E
:102B58002023A351002363550020F8BD0220FCE781
:102B6800FFFFFFF1F0B589B01422002103A8FDF79B
:102B780065FC234B596B022211435963596B0A4078
:102B88000192019A5A6B012422435A635B6B2340DA
:102B98000293029B00220821A020C005FEF7DCF961
:102BA80081277F00174E002239003000FEF7D4F944
:102BB80080239B000393144B04930025059503A9D8
:102BC8003000FEF70FF90823039304940595069542
:102BD80003A9A020C005FEF705F9039704940595FD
:102BE800069403A93000FEF7FDF800220021072013
:102BF800FDF744FF0720FDF771FF09B0F0BDC0469F
:102C080000100240000400500000111000B583B00D
:102C18000D4A916B012319439163926B1340019301
:102C2800019B002200210920FDF728FF0920FDF75C
:102C380055FF002200210A20FDF720FF0A20FDF79A
:102C48004DFF03B000BDC0460010024010B50D484E
:102C58000D4B0360002343608360E022D200C26012
:102C6800022202614361FF32FF32826103624362E2
:102C78008362FA3AFF3AC26203634363FEF714FFC2
:102C880010BDC046783A00200030014010B50F480A
:102C98000F4B036082235B00436000238360E022C4
:102CA800D200C260022202614361FF32FF328261B8
:102CB800F13AFF3AC261036243628362093AC2622F
:102CC800036308334363FEF7EFFE10BD680100207D
:102CD8000038004010B5114C114B2360E1235B0212
:102CE800636080235B05A3600023E36023610C22FB
:102CF8006261A361E36123626362A3622000FFF75C
:102D08005DFE00212000FFF7E3FE00212000FFF711
:102D180003FF2000FFF7BCFE10BDC046CC07002013
:102D28000038014030B599B0342200210BA8FDF7D6
:102D380085FB1022002107A8FDF780FB1C2200213B
:102D48006846FDF77BFB80208000FEF70BF9022523
:102D58000B9580235B000E9300240F94C03B1093C7
:102D6800129513951494383B159380239B02169360
:102D780080239B0517930BA8FEF71EF907230793DB
:102D8800089509940A94022107A8FEF7C9FB0123B4
:102D9800009301946846FEF7A3FC19B030BD00000B
:102DA80000B583B0FDF744FEFDF7A0FDFFF7BAFFBD
:102DB800FFF7D8FEFFF72AFFFFF748FFFFF766FF88
:102DC800FFF788FF0E4AD16B10231943D163D26BEA
:102DD80013400193019B0B4B00229A620A49098810
:102DE800D9621A605A6901210A435A610222524281
:102DF8001A61D9601120FDF771FE00F049F9FEE76C
:102E0800001002400010004008000020084B1A681B
:102E180001218A431A60074AFF319162002206495C
:102E28000A7406490988D9625A621A617047C0460D
:102E38000010004000040050581200200800002034
:102E48007047000082B00A4B196C012211431964C3
:102E5800196C0A400092009ADA6B802149050A43EE
:102E6800DA63DB6B0B400193019B02B07047C046ED
:102E780000100240F0B58BB004001422002105A810
:102E8800FDF7DCFA2368494A934204D0484A934242
:102E98004ED00BB0F0BD474B196C80204001014368
:102EA80019641A6C02400192019A596B012211436C
:102EB80059635B6B1A400292029B64230593623B41
:102EC8000693A02005A9C005FDF78CFF3A483B4BA7
:102ED80003601023436000238360C3608022026183
:102EE80043618361C3610362FDF772FE002819D153
:102EF800314BA3659C623248324B03601123436017
:102F0800013B83600023C3608022026143618361C7
:102F1800C3610362FDF75CFE002806D1284B636598
:102F28009C62B6E7FFF78CFFE2E7FFF789FFF5E75A
:102F3800204BD96B8020C0010143D963DA6B024072
:102F48000392039A5A6B012632435A635B6B3340F0
:102F58000493049B05960225069505A9A020C005A3
:102F6800FDF740FF1027059706950025079508955A
:102F7800099605A9A020C005FDF734FF1248134B98
:102F88000360132343608760C5606D330361456147
:102F98008561C5610562FDF71BFE002803D10A4B58
:102FA80063659C6275E7FFF74BFFF8E70030014067
:102FB80000380040001002405C3B00201C0002402A
:102FC800143C002030000240B83B002008000240BA
:102FD80010B588B004001422002103A8FDF72EFACA
:102FE8002268114B9A4201D008B010BD0F4B196CE2
:102FF8008020C001014319641A6C02400192019AB1
:10300800596B0122114359635B6B13400293029B76
:10301800C023DB000393022304930792A02003A993
:10302800C005FDF7DFFEDFE7003801400010024071
:103038007047FEE77047704710B5FDF70DFD10BDEE
:1030480010B50248FDF768FE10BDC046B83B002029
:1030580010B50348FDF760FE0248FDF75DFE10BDA0
:103068005C3B0020143C0020024B802212059A6031
:103078007047C04600ED00E0034B01221A74034B71
:10308800FF329A617047C046581200200004005071
:1030980010B50349034800F04BFAFFF7EDFF10BDE8
:1030A800784400087C440008034B02229A61034BD1
:1030B80000221A727047C0460004005058120020BF
:1030C800A023DB0508229A62014B073A5A7270471F
:1030D8005812002010B50F4B80229200DA600E4B78
:1030E8001B7C002B07D00D4B013AFF3A9A620A4B22
:1030F80000221A7410BD0A4B196805220948FEF708
:10310800E1FE054B01221A70FFF7DAFFFFF7CCFF4B
:10311800F0E7C04600180240581200200004005092
:103128001C000020783A002010B500230CE0114A5A
:1031380014685A00A05C0002511C615C0E4C2468A3
:103148000143A1520133DBB20C4A12799A42EED8FC
:103158000A4B00225A7103321A70074B1B681B88EE
:10316800044A1268064909680648FEF79BFDFFF7FE
:1031780083FF10BD1C000020100000205812002002
:1031880014000020783A002010B5084B80221968F6
:103198000A70074A127819684A70064A082111709D
:1031A800196802220448FEF7E5FC10BD180000204B
:1031B8006C120020581200206801002010B50E4A39
:1031C80053781B0140210B435BB2117989000B43F3
:1031D8005BB20320105609490343086803709378CB
:1031E8000A685370064B09221A700968073A05489D
:1031F800FEF7C0FC10BDC0466C120020180000206D
:10320800581200206801002010B5084B7022196878
:103218000A70002219684A70054A0A211170196853
:1032280002220448FEF7A6FC10BDC0461800002084
:10323800581200206801002010B5494B19680B7816
:103248009B09484A537004D0012B11D0022B1CD083
:1032580010BD4B783F221A40424B1A715200DA8057
:10326800022018704048FEF72DFEFFF705FFEFE734
:103278000A781209023313403A4CA3703B493C4880
:1032880000F056F900232371E2E70A7812090133A6
:103298001340344AD37000205071002B14D0012BF6
:1032A80026D0022BD4D12F4B01221A71CA781202D0
:1032B800FC208001024008790243DA802A48FEF7A0
:1032C80001FEFFF7A1FFC3E78A782A4B1A70254B46
:1032D80001221A71CA781202FC2080010240087982
:1032E8000243DA802048FEF7EDFDFFF74DFFAFE718
:1032F8000A789208023313401E4A537000209070D7
:103308001071002B0CD1174B00221A71144B1B683B
:103318005A7803231340174AD370FFF74FFF97E7F4
:10332800012B13D0022BF1D18A78124B9A700D4BD6
:1033380001221A71CA781202FC2080010240087921
:103348000243DA800848FEF7BDFDDFE70A7802335A
:103358001340084A1371034B00221A71D6E7C0467E
:103368001C00002058120020783A002078440008F9
:10337800844400086C12002010B5064B0B221A700A
:10338800054B1A789200054B19680548FEF7F2FBC1
:1033980010BDC046581200206C1200201C000020EE
:1033A8006801002010B5074B9A7801325300D218F3
:1033B800054B0C211970054B19680548FEF7DAFB17
:1033C80010BDC0466C120020581200201C000020BE
:1033D8006801002010B50B4B5B78012B0AD0C02286
:1033E8009200094B0D211970084B19680848FEF71F
:1033F800C1FB10BD034B1B79032B01D08022F0E7E2
:103408006022EEE76C120020581200201C000020F9
:103418006801002010B5144B1B78012B08D0042B31
:103428000CD0052B10D0062B14D0022B18D010BDB1
:103438000D4B00221A71FFF7FFFEF8E70A4B002236
:103448001A71FFF799FFF2E7074B00221A71FFF78D
:10345800A9FFECE7044B00221A71FFF7BBFFE6E770
:10346800FFF762FEE3E7C0465812002010B5074B8D
:103478001B78032B00D010BD044B07221A70DA8882
:10348800034B19680348FEF775FBF4E75812002050
:103498001C000020680100207047000010B51F4B79
:1034A8001B78092B0AD00A2B10D0082B12D01B4BE3
:1034B8001B78072B12D0FFF7DFFD10BD174B1B79C8
:1034C800002BF4D0154B05221A70F0E7134B062297
:1034D8001A70ECE7114B04221A70E8E70F4AD389F7
:1034E8000133D3810323137053790133DBB2537152
:1034F800127993420DD0094B5B795B00084A126838
:10350800D35A084A1268084909680848FEF7CAFBEE
:10351800D1E7024B00225A71EDE7C046581200204D
:10352800100000201C00002014000020783A002021
:1035380010B500F065F910BD0D488546002103E07F
:103548000C4B5B58435004310B480C4B42189A42C1
:10355800F6D30B4A02E0002313600432094B9A4267
:10356800F9D3FFF781FDFCF745FFFFF719FCFEE7EC
:103578000090002030450008000000209000002046
:1035880090000020743C0020FEE70000014B186802
:103598007047C04620000020002310B504000360D7
:1035A8004360836081814366C281036143618361B3
:1035B800190008225C30FCF741FF054B2462636266
:1035C800044BA362044BE362044B236310BDC04663
:1035D8006138000889380008C1380008ED3800084B
:1035E80010B5024900F08CF810BDC046593A0008E1
:1035F80070B568254A1E55430E002900743100F045
:10360800A1F8041E08D000212A00016046600C3091
:10361800A0606832FCF712FF200070BD836913B503
:103628000400002B28D18364C3640365134B144A38
:103638001B6882620193984201D1012383612000B3
:1036480000F020F86060200000F01CF8A060200066
:1036580000F018F80022E06004216068FFF79CFF82
:1036680001220921A068FFF797FF02221221E068D2
:10367800FFF792FF0123A36113BDC0465844000819
:10368800E9350008F8B51C4B07001E68B369002B24
:1036980002D13000FFF7C2FF4836B4687368013BB7
:1036A80004D53368002B07D03668F6E70C22A55EF0
:1036B800002D0DD06834F2E704213800FFF798FF99
:1036C80030600028F0D10C2304003B602000F8BDD6
:1036D80020000A4B656625606560A560E36025618A
:1036E8006561A561082229005C30FCF7A7FE6563C7
:1036F800A563A564E564E9E7584400080100FFFFF5
:10370800F7B504000700002601914834002C01D1C8
:103718003000FEBD6368A5680093009B013B0093E1
:1037280001D52468F2E7AB89012B08D90E22AB5EDC
:10373800013304D029003800019B984706436835B7
:10374800EBE70000032370B5CD1C9D430835060048
:103758000C2D1ED20C25A9421DD8300000F0B8F956
:10376800254A14682100002919D1244C2368002B0C
:1037780003D1300000F05EF820602900300000F02E
:1037880059F8431C2BD10C233000336000F0A1F909
:1037980003E0002DDFDA0C233360002070BD0B68D6
:1037A8005B1B19D40B2B03D90B60CC18256003E0E5
:1037B8004B688C420DD11360300000F08AF920006C
:1037C80007220B30231D9043C31AE7D05A42E25018
:1037D800E4E763600C00EFE70C004968C3E70323E4
:1037E800C41C9C43A042E1D0211A300000F022F80A
:1037F800431CDBD1C7E7C0465C0100206001002004
:103808000FB40B4B13B51C68002C05D0A369002B13
:1038180002D12000FFF702FF05AB049AA16820003F
:10382800019300F0C9F916BC08BC04B01847C0469B
:1038380020000020002370B5064C05000800236016
:10384800FCF706FF431C03D12368002B00D02B6034
:1038580070BDC046703C002070B50C000E25495F55
:1038680000F036FC002803DB636D1B18636570BD30
:10387800A389024A1340A381F9E7C046FFEFFFFF7F
:10388800F8B51F008B8905000C001600DB0505D56F
:103898000E23C95E0022022300F006F9A389054A17
:1038A80028001340A38132000E23E15E3B0000F0A4
:1038B8001FF8F8BDFFEFFFFF70B50C000E25495F3C
:1038C80000F0F2F8A389421C03D1054A1340A381F2
:1038D80070BD802252011343A3816065F8E7C0469A
:1038E800FFEFFFFF10B50E23C95E00F015F810BDFD
:1038F80070B50500080011000022064C22601A006D
:10390800FCF755FE431C03D12368002B00D02B6025
:1039180070BDC046703C0020002370B5064C050001
:1039280008002360FCF76EFE431C03D12368002BBC
:1039380000D02B6070BDC046703C0020F7B58A8966
:1039480005000C00130760D44B68002B04DC0B6CDB
:10395800002B01DC0020FEBDE76A002FFAD000230F
:103968002E682B6080235B01216A1A4034D0606D79
:10397800A3895B0706D56368C01A636B002B01D067
:10398800236CC01A0200216A00232800E76AB8479E
:10399800A189431C06D12B681D2B30D82B4ADA404D
:1039A800D3072CD50023636023692360CB0405D596
:1039B800431C02D12B68002B00D16065616B2E601F
:1039C8000029C7D023004433994202D0280000F0D0
:1039D80081F800206063BEE701232800B847431C34
:1039E800C6D12B68002BC3D01D2B01D0162B01D1BB
:1039F8002E60AFE74023A2891343A381ABE740239E
:103A08000B430120A3814042A5E70F69002FA1D0F5
:103A18000B680F60DB1B01930023920700D14B69F1
:103A2800A360019B002B00DC94E7019B3A00216A0C
:103A38002800A66AB047002803DC4023A289134364
:103A4800DFE7019B3F181B1A0193EAE701004020BA
:103A58000B6970B505000C00002B01D1002070BD6A
:103A6800002804D08369002B01D1FFF7D7FD0B4B49
:103A78009C4209D16C680C22A35E002BEED0210079
:103A88002800FFF75BFFEAE7054B9C4201D1AC68D1
:103A9800F1E7044B9C42EED1EC68ECE7B444000833
:103AA800D44400089444000870B5050008001100CB
:103AB8000022064C22601A00FCF765FD431C03D166
:103AC8002368002B00D02B6070BDC046703C0020DE
:103AD8007047704770B50500002910D00C1F236887
:103AE800002B00DAE4182800FFF7F2FF1D4A1368DC
:103AF800002B05D1636014602800FFF7EAFF70BD52
:103B0800A34209D9216860188342F3D118685B6819
:103B180041182160EEE713005A68002A01D0A2423A
:103B2800F9D919685818A0420BD1206809185818F3
:103B380019608242E0D110685268411819605A60D1
:103B4800DAE7A04202D90C232B60D5E72168601878
:103B5800824203D1106852684118216062605C603B
:103B6800CAE7C0465C010020936810B5013B93602A
:103B7800002B04DA9469A34207DB0A2905D01368ED
:103B8800581C10601970080010BD00F0B5FA01004B
:103B9800F9E7F8B506000F001400D518AC4201D1BA
:103BA800002007E021783A003000FFF7DDFF0134FC
:103BB800431CF3D1F8BD0000F0B5A1B003900F008D
:103BC80016001D00002805D083690593002B01D13C
:103BD800FFF724FD7B4B9F425CD1039B5F68BB8949
:103BE8001B0763D53B69002B60D0002308AC6361D9
:103BF800203363761033A376079535002B78002B96
:103C080001D0252B5CD1AB1B05930CD032003900B9
:103C18000398FFF7BEFF431C00D1C4E06269059B0F
:103C28009446634463612B78002B00D1BBE00122EA
:103C380000235242626004A9543252186E1C236059
:103C4800E360A3601370A365317805225E4800F035
:103C58008BFB751C002835D12268D30604D5532365
:103C680004A95B1820211970130704D5532304A94C
:103C78005B182B21197033782A2B2CD035000021A2
:103C88000A20E3682A786E1C303A092A64D9002988
:103C98002ED026E04D4B9F4202D1039B9F689EE7A2
:103CA8004B4B9F429BD1039BDF6898E739000398F1
:103CB80000F078FA002898D00120404221B0F0BDE9
:103CC80001359BE7404B2268C01A01238340134308
:103CD80023602E00B8E7079B191D1B680791002B6E
:103CE80001DB0B9304E05B42E36002231343236090
:103CF8002B782E2B0AD16B782A2B35D1079B0235CE
:103D08001A1D1B680792002B2BDB0993314E29786B
:103D18000322300000F028FB002806D04023801B37
:103D280083402268013513432360297806222A48F4
:103D38006E1C217600F018FB00283AD0274B002B88
:103D480025D10722079B07339343083307936369F9
:103D5800049A9B18636150E7434301219B1835007F
:103D680090E701235B42D0E700230A201A000135BF
:103D7800636029786E1C3039092903D9002BC5D016
:103D88000992C3E74243012352183500F1E707AB14
:103D980000933A00124B2100039800E000BF049002
:103DA800049B0133D3D1BB895B0600D584E70D980A
:103DB80084E707AB00933A00094B2100039800F011
:103DC8007FF8ECE7B4440008F4440008D444000841
:103DD80094440008FA440008FE440008000000006B
:103DE8009B3B0008F7B5150001938A680B690090A2
:103DF8000C00934200DA130022002B604332127841
:103E0800002A01D001332B6023689B0602D52B685A
:103E180002332B60062723681F4027D02300433333
:103E28001B785A1E93412268920630D422000199C9
:103E380043320098089EB047431C25D006232068CB
:103E48002A68E16803400025042B03D18D1AEB434F
:103E5800DB171D40A3682269934201DD9B1AED1808
:103E68000027BD4220D1002010E00137E3682A680E
:103E78009B1ABB42D2DD2200012319320199009816
:103E8800089EB047431CF0D101204042FEBD3020BF
:103E9800E1184331087021005A1C45310978A218ED
:103EA800433202331170C1E7220001231A3201990B
:103EB8000098089EB047431CE6D00137D1E70000C0
:103EC800F0B589B004920A00433205930390029238
:103ED8000A7E0C000E9B6E2A00D186E01FD8632A4A
:103EE80033D008D8002A00D18CE0582A4DD02500BC
:103EF80042352A7030E0642A01D0692AF7D119685E
:103F080025680A1D280629D508681A60002803DADA
:103F18002D23029A404213706B4E0A274FE0732AF2
:103F280074D008D86F2A1FD0702AE0D120220968DF
:103F38000A43226003E0752A16D0782AD7D12200D6
:103F4800782145321170614E22E025001A68423509
:103F5800111D196013682B70012365E008681A6049
:103F68006906D3D500B2D1E719682568081D18601D
:103F780008682E0605D5544E08276F2A1BD00A2735
:103F880019E06D06F7D580B2F5E745314E4E0A7057
:103F980018682268011D00681960150621D5D30725
:103FA80002D520231A4322601027002803D120239A
:103FB80022689A4322602300002243331A70636800
:103FC800A360002B58DB042221689143216000285C
:103FD80054D1029D002B5AD02500337842352B70DE
:103FE80055E05506DBD580B2D9E71A680D68101D73
:103FF8004969186013682E0601D5196002E06D063C
:10400800FBD519800023029D23614FE01A68111D1A
:104018001960156800216268280000F0A5F90028D9
:1040280001D0401B6060636823610023029A13700B
:104038003CE023692A0004990398059DA847431C7E
:104048003ED023689B0715D4079BE068984239DA6D
:10405800180037E022000123193204990398059EBD
:10406800B047431C2CD00135E368079A9B1AAB4232
:10407800F0DCE9E70025F7E70028ADD0029D39001C
:10408800FCF7C0F8735C013D2B700028F7D1082FAE
:1040980009D12368DB0706D563682269934202DCED
:1040A8003023013D2B70029B5B1B2361059B07AAF4
:1040B80000932100049B0398FFF794FE431CB8D19A
:1040C8000120404209B0F0BD05450008164500082A
:1040D80070B50500080011000022064C22601A0085
:1040E800FCF7FCF9431C03D12368002B00D02B609C
:1040F80070BDC046703C0020F8B505000E001400E5
:10410800002804D08369002B01D1FFF787FA224BDE
:104118009C422DD16C68A369A360A3891B0731D584
:104128002369002B2ED023682269F7B2981A636995
:10413800F6B2834205DC21002800FFF789FC00283D
:1041480026D1A3680130013BA36023685A1C226072
:104158001F706369834204D0A389DB071AD50A2E2E
:1041680018D121002800FFF773FC002812D00FE0B7
:104178000A4B9C4201D1AC68CDE7094B9C42CAD19D
:10418800EC68C8E72100280000F00CF80028CAD025
:10419800012676423000F8BDB4440008D444000833
:1041A80094440008364B70B51D6806000C00002DBD
:1041B80005D0AB69002B02D12800FFF72FFA314B4D
:1041C8009C420FD16C680C23E25E93B219072DD480
:1041D800D90611D409230120336037331343A3814F
:1041E800404270BD284B9C4201D1AC68EBE7274B9D
:1041F8009C42E8D1EC68E6E75B0713D5616B0029C0
:1042080008D023004433994202D03000FFF762FC03
:10421800002363632422A3899343A381002363605B
:10422800236923600823A2891343A3812369002BF0
:104238000BD1A0218022A389890092000B409342D0
:1042480003D02100300000F04BF80123A28913406D
:1042580011D00023A36063695B42A3610020236936
:104268008342BED10C23E25E1306BAD54023134322
:10427800A3810138B5E7920700D46369A360EDE72D
:1042880020000020B4440008D444000894440008E6
:1042980070B50E001D000E23C95E96B014000029EB
:1042A80007DA00232B60B3891B0611D48023DB00B7
:1042B8000FE06A4600F064F80028F2DBF022019B68
:1042C80012021340054A9B185A4253412B60EDE7EE
:1042D80040230020236016B070BDC04600E0FFFFF9
:1042E800F7B502268B8905000C00334206D023005F
:1042F80047332360236101236361F7BD01AB6A463D
:10430800FFF7C6FF009907002800FFF71BFA0028EF
:1043180008D10C22A35E9A05EFD4032293431E43CF
:10432800A681E4E70F4BAB628023A2892060134388
:10433800A381009B20616361019B002B0DD00E239C
:10434800E15E280000F02EF8002806D00322A38999
:1043580093431A0001231343A381A0893843A08102
:10436800CBE7C046E9350008C9B28218904201D1AE
:104378000020704703788B42FBD00130F6E700003D
:10438800002370B5064C0500080011002360FCF7F7
:10439800A7F9431C03D12368002B00D02B6070BD04
:1043A800703C0020002370B5064C0500080023600F
:1043B800FCF7F6FA431C03D12368002B00D02B60CE
:1043C80070BDC046703C0020F8B5C046F8BC08BCBB
:1043D8009E467047F8B5C046F8BC08BC9E46704774
:1043E800010101030701000008040204080101019A
:1043F80000000000000000000000000000000000B5
:1044080000000000000000000000000000000000A4
:10441800010000000200000003000000040000008A
:104428000600000007000000080000000900000066
:104438000000000000000000000000000000000074
:10444800010000000200000003000000040000005A
:10445800240000203A73656D69686F7374696E672C
:104468002D6665617475726573003A747400000096
:104478000000000052656164790A0000414444521A
:10448800455353204D4F44450A00000000000000EA
:104498000000000000000000000000000000000014
:1044A8000000000000000000000000000000000004
:1044B80000000000000000000000000000000000F4
:1044C80000000000000000000000000000000000E4
:1044D80000000000000000000000000000000000D4
:1044E800000000000000000000000000232D302B19
:1044F8002000686C4C0065666745464700303132DD
:104508003334353637383941424344454600303133
:104518003233343536373839616263646566000092
:04452800E1000008A6
:04452C00B9000008CA
:104530000100000004000000001000000024F4004E
:10454000DC3A0020580C0020CC010020741200201E
:104550002400002000000000B4440008D4440008F7
:10456000944400080000000000000000000000006B
:10457000000000000000000000000000000000003B
:10458000000000000000000000000000000000002B
:10459000000000000000000000000000000000001B
:1045A000000000000000000000000000000000000B
:1045B00000000000ADDEFECAFFFFFFFFFFFFFFFFB0
:040000050800354179
:00000001FF
