:020000040800F2
:1000000000900020AD370008592E00085B2E000834
:1000100000000000000000000000000000000000E0
:100020000000000000000000000000005D2E00083D
:1000300000000000000000005F2E0008612E000894
:10004000FD37000800000000FD370008FD370008FC
:10005000FD370008FD370008FD370008A130000813
:1000600000000000692E0008792E00088534000881
:10007000FD370008FD370008FD37000800000000CC
:10008000FD370008352C0008FD370008FD37000853
:10009000FD370008FD370008FD370008FD37000870
:1000A000FD370008FD370008FD370008FD37000860
:0800B000FD370008FD370008D0
:1000B80010B5064C2378002B07D1054B002B02D036
:1000C800044800E000BF0123237010BD8C0000200D
:1000D8000000000010470008044B10B5002B03D0A7
:1000E8000349044800E000BF10BDC04600000000FE
:1000F8009000002010470008002243088B4274D368
:1001080003098B425FD3030A8B4244D3030B8B4210
:1001180028D3030C8B420DD3FF22090212BA030C19
:100128008B4202D31212090265D0030B8B4219D3FA
:1001380000E0090AC30B8B4201D3CB03C01A52411A
:10014800830B8B4201D38B03C01A5241430B8B4262
:1001580001D34B03C01A5241030B8B4201D30B034B
:10016800C01A5241C30A8B4201D3CB02C01A524172
:10017800830A8B4201D38B02C01A5241430A8B4235
:1001880001D34B02C01A5241030A8B4201D30B021E
:10019800C01A5241CDD2C3098B4201D3CB01C01A38
:1001A800524183098B4201D38B01C01A5241430942
:1001B8008B4201D34B01C01A524103098B4201D330
:1001C8000B01C01A5241C3088B4201D3CB00C01A9D
:1001D800524183088B4201D38B00C01A5241430815
:1001E8008B4201D34B00C01A5241411A00D201463A
:1001F800524110467047FFE701B5002000F0F0F8C3
:1002080002BDC0460029F7D076E7704703460B4386
:100218007FD4002243088B4274D303098B425FD3F7
:10022800030A8B4244D3030B8B4228D3030C8B4223
:100238000DD3FF22090212BA030C8B4202D3121209
:10024800090265D0030B8B4219D300E0090AC30BDE
:100258008B4201D3CB03C01A5241830B8B4201D38B
:100268008B03C01A5241430B8B4201D34B03C01A74
:100278005241030B8B4201D30B03C01A5241C30AEC
:100288008B4201D3CB02C01A5241830A8B4201D35D
:100298008B02C01A5241430A8B4201D34B02C01A47
:1002A8005241030A8B4201D30B02C01A5241CDD2EC
:1002B800C3098B4201D3CB01C01A524183098B4237
:1002C80001D38B01C01A524143098B4201D34B0120
:1002D800C01A524103098B4201D30B01C01A524183
:1002E800C3088B4201D3CB00C01A524183088B420A
:1002F80001D38B00C01A524143088B4201D34B00F3
:10030800C01A5241411A00D2014652411046704764
:100318005DE0CA0F00D04942031000D34042534069
:1003280000229C4603098B422DD3030A8B4212D329
:10033800FC22890112BA030A8B420CD3890192115B
:100348008B4208D3890192118B4204D389013AD098
:10035800921100E08909C3098B4201D3CB01C01A6D
:10036800524183098B4201D38B01C01A5241430980
:100378008B4201D34B01C01A524103098B4201D36E
:100388000B01C01A5241C3088B4201D3CB00C01ADB
:10039800524183088B4201D38B00C01A5241D9D2F3
:1003A80043088B4201D34B00C01A5241411A00D274
:1003B8000146634652415B10104601D34042002B70
:1003C80000D54942704763465B1000D3404201B5EF
:1003D800002000F005F802BD0029F8D016E77047A4
:1003E8007047C0460023C25C0133002AFBD1581E67
:1003F8007047000070B500260C4D0D4C641BA4100E
:10040800A64209D1002604F07FF90A4D0A4C641B64
:10041800A410A64205D170BDB300EB589847013629
:10042800EEE7B300EB5898470136F2E7B848000802
:10043800B8480008B8480008BC480008030012186B
:10044800934200D1704719700133F9E70A4B10B590
:1004580004001868002804D08369002B01D103F038
:1004680013FA0020132C05D8044BE400E25801329B
:1004780000D0E01810BDC0461C000020B8000020C5
:10048800F8B50500431C09D103F0B6F9132406009A
:100498000027201C391CABBE041C34602800F8BDA2
:1004A800F8B5050003F0A8F9132406000027201C5E
:1004B800391CABBE041C28003460F8BD30B585B0CB
:1004C80001AD0190029103920624201C291CABBEA9
:1004D800041C2000FFF7D4FF05B030BD70B50E0036
:1004E8001500FFF7B3FF041E06D103F085F90923B1
:1004F80003600120404270BD2A0031000068FFF708
:10050800DDFF431CF7D06368281A1B186360F2E705
:10051800F7B50C001600FFF799FF051E07D103F089
:100528006BF909230360012464422000FEBD022EFA
:1005380003D903F061F91623F4E7012E12D14368B9
:10054800E418F6D46F462B680A2600937C60301CAA
:10055800391CABBE061C3000FFF792FF0028E2DB17
:100568006C60E2E7022EEDD103686F4600930A360D
:10057800301C391CABBE061C3000FFF781FF241865
:10058800431CDFD1CFE710B5FFF7C2FF10BD30B570
:1005980085B001AD0190029103920524201C291C0D
:1005A800ABBE041C2000FFF76BFF05B030BD70B573
:1005B8000E001500FFF74AFF041E06D103F01CF9D0
:1005C80009230360012040420FE02A00310000683F
:1005D800FFF7DDFF021EF5DB6368281A1918616052
:1005E800AA4202D10020FFF75BFF70BD37B5022495
:1005F800019001AD201C291CABBE041C2000FFF794
:100608003FFF3EBD70B50500FFF720FF041E06D171
:1006180003F0F2F8092303600120404270BD013D58
:10062800012D09D8094B9A681B699A4204D1012304
:100638005B4203600020F1E72068FFF7D7FF00283E
:10064800ECD101235B422360E8E7C046B8000020F4
:100658000E4A10B511680300002901D10C49116038
:1006680069461068C3188B4206D80A490A4C0968BB
:10067800A14208D08B4206D903F0BEF80C230360D0
:100688000120404210BD1360FCE7C046A8000020CE
:100698007835002080000020ADDEFECA70B50C0061
:1006A800FFF7D4FE061E06D103F0A6F8092303605F
:1006B8000120404270BD802362689B011343636040
:1006C8008023DB0063640C25281C311CABBE051C91
:1006D8002800FFF7D5FE431CECD020610020E9E795
:1006E80070B50C000500582200212000FFF7A6FE77
:1006F80028002100FFF7D2FF70BD70B50D0004007F
:10070800582200212800FFF799FE2000002100F060
:1007180013F80400431C0CD081236A681B0213439E
:100728006B602900FFF7BAFF05002000FFF76AFF9A
:100738002C00200070BD0000F0B50D00002799B016
:100748000090FB000193294BFA009C58631C38D099
:100758000137142FF5D103F04FF801241823644210
:1007680003603FE00223EC03E40F1D4200D01C436A
:100778001F4B1D4201D004231C4308231D4202D0F5
:10078800042294431C43009B18000293FFF72AFE9F
:100798007460B0600124201C311CABBE061C002E06
:1007A8000ADB124BFA009E501300104A3C00944694
:1007B800002263445A6015E03000FFF771FE040020
:1007C80010E0A0232A001B011A4002AE9A42C9D1A8
:1007D80031000098FFF791FF431CC3D003F00CF8D9
:1007E80011230360200019B0F0BDC046B8000020F6
:1007F80001060000F0B585B000900191274800215E
:100808001500FFF799FF04002A0000210098FFF760
:1008180015FE631C15D02000FFF718FE0C260700F4
:10082800301C391CABBE061C3000FFF729FE03281C
:1008380002DD0338A84207DC20000124FFF7E2FEAE
:100848006442200005B0F0BD03AE04223100200050
:10085800FFF744FE0328EFDD3378532BECD1737890
:10086800482BE9D1B378462BE6D1F378422BE3D174
:10087800012201992000FFF74BFE0028DCDB2A004B
:1008880000992000FFF72AFE05002000FFF7BAFEB6
:100898002800FFF7F5FD0400D3E7C0469C47000891
:1008A800F7B501240021094E094D01AF2200380097
:1008B80031602C60FFF79EFF002805DD02223B789F
:1008C8001C40134034602B60F7BDC04684000020F4
:1008D8008800002010B5044C2368002B01DAFFF7CC
:1008E800DFFF206810BDC04688000020F0B5274B08
:1008F80085B001930025032301ACA360012765603F
:10090800381C211CABBE071C0121214B49421F602A
:100918002B00204DDA000133A950142BFAD1FFF730
:10092800D9FF002818D0194B012701930323A3608E
:1009380001336360381C211CABBE061C164B134ADE
:100948001E6003230192A36005336360381C211CD9
:10095800ABBE041C114B1C60104F3B68013302D125
:100968000D4B1B683B600024094B6C601B682B60B7
:10097800FFF7B0FFA04206D0074BEC601B686C6124
:10098800AB603B682B6105B0F0BDC046B2470008BC
:10099800B0000020B8000020B4000020AC00002007
:1009A80070B5FFF753FD0925041E04D102F024FF9A
:1009B8000560200070BD281C211CABBE041C200053
:1009C800012CF7D002F018FF002406001325281C7C
:1009D800211CABBE051C3560EBE7000010B5040018
:1009E800114B1968002901D1012010BDFA2080009F
:1009F800FFF782FB01000D4B1868FFF77DFB00F045
:100A08007BF800280DD1032C01D90120EDE7013036
:100A180000222100404200F031F8034B5C600020C6
:100A2800E3E70120E1E7C046000000200C000020B9
:100A380010B5084A116880235B000B43136000203F
:100A4800FFF7CCFF041E02D00124200010BD02F0E5
:100A580009F9FAE700200240034A136803490968C4
:100A68005B1813607047C04660010020000000203A
:100A7800014B18687047C0466001002070B5002817
:100A880011DB8308144DC0339B005C5903221040CE
:100A9800C000FC3216008640B44389010A408240F7
:100AA80022435A5170BDC0B20F230340083B9B0834
:100AB80006339B00094A944663445D68032420403A
:100AC800C000FF2214008440A543890111408140E1
:100AD80029435960E6E7C04600E100E000ED00E088
:100AE800002805DB1F2318401E3B8340014A136082
:100AF8007047C04600E100E001380A4B98420FD821
:100B0800094A50600948036A1B021B0AC0210906EA
:100B18000B43036200239360073313600020704780
:100B28000120FCE7FFFFFF0010E000E000ED00E01F
:100B3800F0B5846CC56C6560046D002C02D0446D02
:100B4800856D65600B4F7C681C26056C2E40012561
:100B5800B5402C437C60046863608368102B04D024
:100B6800036899600368DA60F0BD03689A600368F7
:100B7800D960F9E70000024010B50400FF2023689F
:100B8800184008381421FFF7B7FA236C9B08064A67
:100B9800944663449B006364044BA3641C2318407D
:100BA8001B3B8340E36410BD0082001080080240B4
:100BB800FF2342681340064A9A1892000265054AC4
:100BC8004265013B03221A40012393408365704725
:100BD8003F8200104009024070B5041E4DD00568E0
:100BE800274BE8181421FFF787FA80002064252393
:100BF8000222E2542B68234A13402B6021680A68BA
:100C0800A368E06803432069034360690343A0695C
:100C18000343E0690343206A034313430B60200046
:100C2800FFF7AAFF8023DB01A2689A4218D0626C02
:100C3800FF2361680B401360A36CE26C5A60636821
:100C4800013B032B0FD9002323656365A3650023AC
:100C5800E36325220121A154013AA354002070BD69
:100C680000236360E3E72000FFF7A2FF236D002263
:100C78001A60636DA26D5A60E9E70120EFE7C0468C
:100C8800F8FFFDBF0F80FFFF70B504002420205C33
:100C9800012843D02420012525540130205C012857
:100CA80004D0022024230022E25470BD24300135F0
:100CB80025540020E063256828680126B043286091
:100CC8002000FFF735FF236B002B1CD02268136828
:100CD8000E210B431360636C1A68D20304D519689C
:100CE800802252000A431A60236D002B04D0196831
:100CF800802252000A431A602268136801210B43BC
:100D080013600020CEE72268136804218B43136028
:100D18002268136806310B431360DCE70220C4E73E
:100D280070B5314B1968046825681C23026C1340A0
:100D380004229A40114216D06A0714D523689B06EC
:100D480003D42368042293432360274C63681C213F
:100D5800026C114004228A4013436360036B002B2A
:100D680000D0984770BD02229A4011421CD0AA07B1
:100D78001AD523689B0606D423680A229343236066
:100D88002523093AC254184C63681C21026C11408F
:100D980002228A401343636024230022C254C36A98
:100DA800002BDFD09847DDE708229A401142D9D0BE
:100DB8002B07D7D523680E22934323600A4C626819
:100DC8001C21036C194001231D008D402A436260D9
:100DD800C3632522835423330022C254436B002B60
:100DE800C0D09847BEE7C04600000240F0B5C646EE
:100DF80000B500233BE0032600E00026AE403500A6
:100E08003D43534E1834A400A55180243559424619
:100E1800D4432E0026404A68D20302D542461543E1
:100E28002E004B4D8027EE518426AD592E002640CA
:100E38004A68920302D5424615432E00444D842742
:100E4800EE512D682E0026404A68D20202D542464D
:100E580015432E003E4D2E606D682C404A68920264
:100E680002D542462A431400394A546001330A68BD
:100E78001400DC4069D001259D402A409046F5D0F9
:100E88004C68022C01D0122C0ED1DC080834A400C6
:100E9800275807261E40B6000F22B24097430A691A
:100EA800B24016003E43265002685F000324260025
:100EB800BE40F643324094464A681440BC406246FD
:100EC800144304604C68621E012A03D9112C01D016
:100ED800122C10D184683440A446CC68BC406246C9
:100EE800144384604468AC434A68120901251540DC
:100EF8009D4025434560C46826408C68BC40344307
:100F0800C4604A68D200B1D59C0825001835AD00E8
:100F18000F4EAF5903251D40ED000F26AE40B743D5
:100F2800A026F605B04200D167E70A4EB04208D0C5
:100F3800094EB04207D0094EB04200D15BE7052602
:100F48005CE701265AE7022658E704BC9046F0BD44
:100F5800001802400004005000080050000C005027
:100F6800002A01D1816270478161FCE710B5104AFF
:100F7800136810490B400343136080239B00984279
:100F880001D0002010BD0C4B1A6853009B18580064
:100F98000A49FFF7B1F80130054B5B695B0503D5DA
:100FA800002803D00138F7E70020EBE70320E9E742
:100FB80000700040FFF9FFFF0C00002040420F00C6
:100FC80070B582B0041E00D134E20368DB0739D55E
:100FD800C14A916838230B40D16803220A40102B7C
:100FE80026D0082B26D063688022520293427FD0F5
:100FF800A022D202934200D181E0B74B1A68B749C8
:101008000A401A601A68B6490A401A606368002BD9
:1010180000D180E0FFF72CFD0500AF4B1B689B0358
:1010280010D4FFF725FD401B6428F6D9032002E2FF
:10103800032AD6D1A84B1B689B0303D56368002BF2
:1010480000D1FAE123689B0731D5A34A9368382178
:101058000B40D16803220A40102B6AD0002B6BD1B9
:101068009D4A1268520503D5E268002A00D1E6E1DC
:10107800994842689B490A40616909020A434260EB
:10108800002B0DD1036898490B4021690B4303607D
:101098000368DB0A07221A40944BD340944A136032
:1010A800944B1868FFF79AFC002800D0C9E1236820
:1010B8001B0700D481E0884B9A6838231340182B0B
:1010C80073D0A369002B00D191E0834A136E0121EC
:1010D8000B431366FFF7CCFC05007F4B1B6E9B0789
:1010E8006BD4FFF7C5FC401B0228F6D90320A2E108
:1010F800794A116880235B020B43136086E7764BBD
:1011080019688022D2020A431A60196880225202A2
:101118000A431A607AE7FFF7ABFC05006E4B1B68C1
:101128009B038FD5FFF7A4FC401B6428F6D9032046
:1011380081E1022A92D193E7E368002B22D0664A24
:10114800136869490B4021690B43136011688023B8
:101158005B000B431360FFF78BFC05005E4B1B68BD
:101168005B0506D4FFF784FC401B0228F6D9032050
:1011780061E159494B685B4A1340626912021343A3
:101188004B6094E7544A13685B490B401360FFF7C0
:101198006FFC0500504B1B685B0588D5FFF768FCA2
:1011A800401B0228F6D9032045E14B4B1B6E9B07D9
:1011B80003D5A369002B00D145E123685B0700D460
:1011C800A2E0454B9A6838231340202B22D0424B8B
:1011D800DB6BDB0027D4404AD16B802040050143FC
:1011E800D163D36B03400193019B01251CE03A4A6C
:1011F800136E01218B431366FFF73AFC0500364B4B
:101208001B6E9B07D9D5FFF733FC401B0228F6D984
:10121800032010E1304BDB6D9B0775D5A368002BCD
:1012280072D1012007E10025344B1B68DB051FD56F
:10123800A368012B30D0052B34D0274BDA6D012160
:101248008A43DA65DA6D03318A43DA65A368002BCD
:1012580032D0FFF70DFC06001F4BDB6D9B0751D406
:10126800FFF706FC801B264B9842F5D90320E2E0E5
:10127800224A116880235B000B431360FFF7F8FBD9
:1012880006001E4B1B68DB05D2D4FFF7F1FB801B61
:101298000228F6D90320CEE00F4AD36D01210B4373
:1012A800D365D3E70C4BDA6D04210A43DA65DA6DAE
:1012B80003390A43DA65C9E7FFF7DAFB0600064B8C
:1012C800DB6D9B071ED5FFF7D3FB801B0C4B9842A9
:1012D800F5D90320AFE0C04600100240FFFFFEFF33
:1012E800FFFFFBFFFF80FFFFFFC7FFFF0024F400A5
:1012F8000C00002004000020FFFEFFFF00700040EB
:1013080088130000012D26D0E369002B00D19CE052
:10131800514A916838220A40102A61D0022B20D005
:101328004D4B1A684D490A401A60DA6803218A430E
:10133800DA60DA684A490A40DA60FFF799FB040084
:10134800454B1B689B0149D5FFF792FB001B022800
:10135800F6D903206FE0404AD36B42490B40D36370
:10136800D2E73D4A13683D490B401360FFF780FB05
:101378000500394B1B689B0106D5FFF779FB401B1D
:101388000228F6D9032056E0334AD3683649194073
:10139800236A606A0343A06A00020343E06A0343C6
:1013A800206B03430B43D360116880235B040B431A
:1013B8001360D16880235B050B43D360FFF758FBAC
:1013C8000400254B1B689B0106D4FFF751FB001B4B
:1013D8000228F6D903202EE000202CE000202AE085
:1013E800012B34D01C4BDA6803231340216A8B424B
:1013F80001D001201FE070231340616A8B4201D0A5
:10140800012018E0FE21C9011140A36A1B0299427C
:1014180001D001200FE0F8239B031340E16A8B42BF
:1014280001D0012007E0520F5207236B9A4210D0D7
:10143800012000E0012002B070BD0120FBE701207F
:10144800F9E70120F7E70120F5E70020F3E701209D
:10145800F1E70020EFE7C04600100240FFFFFFFE63
:10146800FFFFFEEFFFFFFFEF8C80C11F10B52B4B76
:101478009B6838221A4219D0284B9A68382313409F
:10148800082B46D0254B9A6838231340102B18D0C8
:10149800224B9A6838231340202B3CD01F4B9A6864
:1014A80038231340182B31D0002009E01B4B1A6851
:1014B800D20A07231340012199401948FEF71CFE60
:1014C80010BD164AD1680D3B0B40D268120907219E
:1014D80011400131032B0FD11248FEF70DFE0F4BBF
:1014E800DA68120A7F23134058430C4BD968490F16
:1014F8000131FEF701FEE3E70948FEF7FDFD074B62
:10150800DA68120A7F2313405843EEE7FA20C00135
:10151800D6E70448D4E780200002D1E70010024053
:101528000024F40000127A0070B504000D000028B1
:1015380000D1AAE0574B1A68072313408B4221D3E6
:1015480023689A070ED55B0705D5534A9168E023AF
:10155800DB010B439360504A936850490B40A168E4
:101568000B4393602368DB0754D56368012B20D0B5
:10157800022B3BD0002B3FD1474A126852051CD49E
:1015880001206AE0434A136807218B432B43136009
:10159800FFF76EFA06003F4B1A6807231340AB4269
:1015A800CED0FFF765FA801B3D4B9842F3D9032054
:1015B80053E0394A1268920369D537498A68072087
:1015C800824313438B60FFF753FA0600324B9B6844
:1015D80038221A406368DB009A421BD0FFF748FAAA
:1015E800801B2F4B9842F1D9032036E02A4A126813
:1015F8009201E2D4012030E0032B05D0264AD26DB7
:101608009207DAD4012028E0234A126E9207D4D434
:10161800012022E01F4B1A6807231340AB421DD854
:1016280023685B0706D51C4A93681E490B40E1688E
:101638000B439360FFF71AFF174B9A68120A0F23A0
:1016480013409B00184A9A581F231340D840174B41
:101658001860174B1868FFF7C1F970BD0D4A136879
:1016680007218B432B431360FFF702FA0600094B4F
:101678001A6807231340AB42D2D0FFF7F9F9801B51
:10168800074B9842F3D90320E7E70120E5E701205B
:10169800E3E7C0460020024000100240FFF0FFFFD1
:1016A80088130000FF8FFFFF384700080C00002058
:1016B80004000020014B18687047C0460C00002049
:1016C80010B5FFF7F7FF064B9A68120B0723134074
:1016D8009B00044A9A581F231340D84010BDC046A7
:1016E8000010024078470008F0B583B00400036892
:1016F8009B0360D5574BDB6BDB001ED4554AD16B7F
:10170800802040050143D163D36B03400193019BC3
:101718000126514A116880235B000B431360FFF7D1
:10172800A7F905004C4B1B68DB0508D4FFF7A0F9A7
:10173800401B0228F6D9032502E00026E9E7002528
:10174800002D21D1434BDB6DC0229200134010D0F5
:10175800A2699A420DD03F4AD36D40490B40D06DE3
:10176800802149020143D165D16D3D480140D165D1
:10177800D365DB0710D4002D06D1364AD36D37491F
:101788000B40A1690B43D365012E15D1314AD36BA8
:1017980034490B40D3630FE0FFF76AF907002D4B7C
:1017A800DB6D9B07E7D4FFF763F9C01B2E4B98420C
:1017B800F5D90325DFE700252368DB0706D5254A89
:1017C800536D03218B4361680B43536523689B0763
:1017D80006D5204A536D0C218B43A1680B435365F2
:1017E80023685B0606D51B4A536D20490B40E16808
:1017F8000B43536523685B040BD5164A536D9B0056
:101808009B0861690B4353658023DB0562699A4233
:1018180011D023681B050BD50E4A536D14490B4094
:1018280021690B43536522698023DB019A4209D061
:10183800280003B0F0BD074AD16880235B020B4340
:10184800D360E6E7034AD16880235B020B43D36089
:10185800EEE7C0460010024000700040FFFCFFFFAA
:10186800FFFFFEFFFFFFFFEF88130000FFCFFFFF22
:10187800FF3FFFFFF8B506000C0017001D00336896
:101888009B6823401B1B5A425341BB423BD06B1CF5
:10189800F5D0FFF7EDF8069BC01AA84201D2002D3B
:1018A800EDD132685368E0218B43536082235B009B
:1018B80072689A420CD080239B01B26A9A4216D071
:1018C8005D230122F254013B0022F25403201BE065
:1018D800B36880221202934203D08022D20093423E
:1018E800E9D13268136840218B431360E3E732681B
:1018F800136806490B4013603268116880239B0106
:101908000B431360DCE70020F8BDC046FFDFFFFF94
:10191800F8B507000C0015001E0001E0731C0CD17F
:101928003A6893682340AB4241D0C023DB009C4215
:10193800F4D1002DF2D1137BF0E7FFF799F8069B5D
:10194800C01AB04201D2002EEAD13A685368E021A9
:101958008B43536082235B007A689A420CD08023C1
:101968009B01BA6A9A4216D05D230122FA54013BC0
:101978000022FA5403201BE0BB6880221202934223
:1019880003D08022D2009342E9D13A6813684021FB
:101998008B431360E3E73A68136806490B4013600A
:1019A8003A68116880239B010B431360DCE7002031
:1019B800F8BDC046FFDFFFFF70B582B004000D0020
:1019C8001600C02100922B0000224901FFF7A0FF5A
:1019D800002818D100962B00002280212000FFF754
:1019E80049FF002816D1C02100962B000022C9000B
:1019F8002000FFF78DFF00280AD0236E2022134312
:101A08002366032004E0236E202213432366032069
:101A180002B070BD236E2022134323660320F7E72C
:101A280070B582B004000D00160082235B00426886
:101A38009A420FD000962B00002280212000FFF749
:101A480019FF002815D182235B0062689A4216D0DC
:101A580002B070BD836880221202934203D08022B4
:101A6800D2009342E6D12268136840218B43136069
:101A7800E0E7236E2022134323660320E8E7A368E8
:101A880080221202934203D08022D2009342DFD1F7
:101A9800C02100962B000022C9002000FFF738FF64
:101AA8000028D5D0236E2022134323660320CFE7D6
:101AB80010B5041E5ED0002383625D33C35C002B27
:101AC8004CD05D230222E2542268136840218B43E4
:101AD8001360E368E022D200934245D90022F02146
:101AE80009018B4205D0E021C9008B4201D00021B9
:101AF800A162216B002905D1E021C9008B4236D9AA
:101B0800022323636368A1680B4321690B4361695E
:101B18000B4380218900A06901400B43E1690B4315
:101B2800216A0B432168A06A03430B60618B04237D
:101B38000B40616A0B43616B0B43E1680B432168FF
:101B480013434B602268D3690B490B40D3610023D0
:101B580023665D330122E254002010BD5C3300226D
:101B6800C25401F097F8ACE780225201B7E701238D
:101B78002363C7E70120F0E7FFF7FFFF70B5040014
:101B88005C20205C012800D1F3E05C20012525546D
:101B98000130205CC0B26568012810D0822676002A
:101BA800B54204D002205C230022E25470BDA5682F
:101BB800002D00D0D5E0042801D00220F3E7002949
:101BC80000D1D0E0002A00D1CFE0002B00D1CEE038
:101BD8005D20205C042802D05D20052525540020C6
:101BE8002066A163A387E38722644422A3520232BA
:101BF800A352E0642065226853685F490B40536034
:101C0800E023DB00E2689A4228D9226853685B49DE
:101C18000B4053605D23E35C042B67D0A36D584AE7
:101C28001A63A36D574ADA62A36D574A5A63A36DC4
:101C380000229A6321680C314623E35A9BB2226C36
:101C4800A06DFFF721F8002857D0236E1022134308
:101C580023665D230F3AE2540120A4E72268516805
:101C680080235B010B435360636D9A698023DB001B
:101C78009A4218D0A36D9A698023DB009A42C9D191
:101C8800226853683D490B4053604623E35ADB07FB
:101C980020D4226853683D490B4053604622A35A1A
:101CA8005B08A352B6E7A38FDB0708D42268536802
:101CB80037490B405360E38F5B08E387DAE7226814
:101CC80051688023DB010B435360E38F5B080133CA
:101CD800E387CFE72268516880239B010B43536059
:101CE8004622A35A5B080133A35293E7A36D294AFE
:101CF8001A63A36D284ADA6296E7226853680121BD
:101D08000B435360626D00231363626DD362626D8F
:101D18005363626D936322680C32E38F9BB2A16BAD
:101D2800606DFEF7B1FF002808D0236E1022134320
:101D380023665D230F3AE254012034E723681A68CA
:101D4800520603D41A6840210A431A60226853686D
:101D580020210B435360226853681E390B4353609C
:101D680021E702201FE701201DE701201BE70120D2
:101D780019E702201AE7C046FF9FFFFFFFEFFFFFAA
:101D8800371F0008BF1F0008431F0008FFDFFFFFC1
:101D9800FFBFFFFF2B1F0008651F000870B5040078
:101DA8008568002D04D182235B004068984210D0DA
:101DB8005C20205C012800D1A3E05C20012323548F
:101DC8000130205C01280DD002205C230022E2545F
:101DD80070BDA73B0420E05413000A002000FFF761
:101DE800CDFEF5E7002900D187E0002A00D186E082
:101DF8005C330330E054002323662164442162529B
:101E080002316252E3642365A387E38780231B02C0
:101E18009D422ED0226853683B490B405360E02313
:101E2800DB00E2689A422AD92268536837490B4096
:101E38005360A36D364A1A63A36D364ADA62A36DFE
:101E4800354A5A63A36D00229A6321680C314623F0
:101E5800E35A9BB2226CA06DFEF716FF002839D01A
:101E6800236E1022134323665D230F3AE2540120A8
:101E7800ABE72268136829490B401360CAE7226858
:101E8800516880235B010B435360A36D9A698023DB
:101E9800DB009A42CDD1226853681C490B4053603D
:101EA8004623E35ADB0709D42268536816490B40D6
:101EB80053604622A35A5B08A352BAE722685168C6
:101EC80080239B010B4353604622A35A5B080133CE
:101ED800A352AEE723681A68520603D41A68402151
:101EE8000A431A602268536820210B435360226812
:101EF80053681F390B43536067E7012065E70120EA
:101F080063E7022064E7C046FFDFFFFFFFEFFFFF44
:101F18002B1F0008651F0008431F0008FFBFFFFFB5
:101F2800704710B5806AFFF7FBFF10BD704710B50A
:101F3800806AFFF7FBFF10BD704710B5806A026822
:101F4800536803218B435360036E102213430366C7
:101F58005D230F3AC254FFF7EFFF10BD70B50500BF
:101F6800846AFEF785FD2B681B689B061BD42268D4
:101F7800536820218B435360226853681D398B4373
:101F88005360020061312000FFF74AFD002801D0AC
:101F98002023236646230022E25217330132E254FB
:101FA800236E002B03D1200001F0D2F870BD200071
:101FB800FFF7C2FFFAE770B50500846AFEF758FD1F
:101FC8002B681B689B061ED42268536820218B430C
:101FD8005360020044312000FFF7EEFC002803D0D4
:101FE800236E2022134323662268536803218B4300
:101FF80053600023E3874622A3525D33453AE254F7
:10200800236E002B03D1200001F0C6F870BD20001C
:10201800FFF792FFFAE7000010B504008368026931
:10202800134342691343C2691343426E1A4301685A
:102038000B68AA48034013430B6022685368A849F9
:102048000B40E1680B435360226AA3691A43216875
:102058008B68A448034013438B602268D36A0F211E
:102068008B43616A0B43D36223689F4A934241D0F2
:102078009E4A934252D09E4A93426AD09D4A9342C6
:1020880061D0102380221202E169914263D0022BB1
:1020980000D110E200D8BAE1042B00D147E2082BA6
:1020A80000D0AEE2636A002B00D183E2012B00D19D
:1020B8008CE2022B00D18CE2032B00D18CE2042BA2
:1020C80000D18BE2052B00D18BE2062B00D18AE2EE
:1020D800072B00D189E2082B00D189E2092B00D116
:1020E80089E20A2B00D189E20B2B00D160E2802023
:1020F800000261E2804B5A6D03231340012B09D083
:10210800002B05D0022B20D0032B05D01023B9E7D4
:102118000023B7E70423B5E70823B3E7764B5A6DE6
:102128000C231340042B0AD005D9082B0FD00C2BF5
:1021380007D10823A6E7002B03D10023A2E7042335
:10214800A0E710239EE700239CE702239AE70223D7
:1021580098E7002396E7022B00D182E02DD9042BC3
:1021680000D1E5E0082B00D04EE1636A002B00D1D6
:1021780023E1012B00D12CE1022B00D12CE1032B10
:1021880000D12CE1042B00D12BE1052B00D12BE150
:10219800062B00D12AE1072B00D129E1082B00D119
:1021A80029E1092B00D129E10A2B00D129E10B2BC8
:1021B80000D1FFE08020400201E1002B00D023E1A4
:1021C800FFF77EFA636A002B1AD0012B35D0022B59
:1021D80035D0032B35D0042B35D0052B35D0062B25
:1021E80035D0072B35D0082B35D0092B35D00A2B05
:1021F80035D00B2B01D0012103E08021490000E0FC
:102208000121FDF779FF400063685B08C018616829
:10221800FDF772FF03041B0C002038491A00103A1E
:102228008A4200D9F0E10F22190091435B08083A6D
:1022380013400B432268D36020E10221E1E7042127
:10224800DFE70621DDE70821DBE70A21D9E70C21D2
:10225800D7E71021D5E72021D3E74021D1E7802116
:10226800CFE7636A002B19D0012B22D0022B22D092
:10227800032B22D0042B22D0052B22D0062B22D0D0
:10228800072B22D0082B22D0092B22D00A2B22D0B0
:102298000B2B01D01A4802E01A4800E0184863687E
:1022A8005B08C0186168FDF727FF03041B0C0020BA
:1022B800B3E71548F3E71548F1E71548EFE7154880
:1022C800EDE71548EBE71548E9E71548E7E715484E
:1022D800E5E71548E3E71548E1E7C046F369FFCFAE
:1022E800FFCFFFFFFFF4FF1100380140004400401A
:1022F80000480040004C004000100240EFFF000082
:102308000048E80148E801000024F40000127A00BF
:102318005461510000093D0000D43000AAB02800E3
:1023280080841E0040420F0020A1070090D00300C7
:10233800FFF79CF8636A002B1AD0012B26D0022BDA
:1023480026D0032B26D0042B26D0052B26D0062BEF
:1023580026D0072B26D0082B26D0092B26D00A2BCF
:1023680026D00B2B01D0012103E08021490000E099
:102378000121FDF7C1FE400063685B08C018616871
:10238800FDF7BAFE03041B0C002046E70221F0E724
:102398000421EEE70621ECE70821EAE70A21E8E74D
:1023A8000C21E6E71021E4E72021E2E74021E0E7FD
:1023B8008021DEE78020400001E080204002636841
:1023C8005B08C0186168FDF797FE03041B0C00202A
:1023D80023E780200002F2E78020C001EFE78C4865
:1023E800EDE780208001EAE78A48E8E78A48E6E7DF
:1023F80080204001E3E780200001E0E78020C00062
:10240800DDE780208000DAE70120002305E7002BC4
:1024180000D0F6E0FFF754F9636A002B1AD0012BBD
:1024280035D0022B35D0032B35D0042B35D0052BD6
:1024380035D0062B35D0072B35D0082B35D0092BB6
:1024480035D00A2B35D00B2B01D0012103E0802198
:10245800490000E00121FDF74FFE63685B08C018E2
:102468006168FDF749FE03041B0C00206B491A0044
:10247800103A8A4200D9C9E02268D36001236A224F
:10248800A352023AA3520023E366236710BD022138
:10249800E1E70421DFE70621DDE70821DBE70A2180
:1024A800D9E70C21D7E71021D5E72021D3E7402130
:1024B800D1E78021CFE7636A002B19D0012B22D006
:1024C800022B22D0032B22D0042B22D0052B22D082
:1024D800062B22D0072B22D0082B22D0092B22D062
:1024E8000A2B22D00B2B01D04D4802E04D4800E0CA
:1024F8004B4863685B08C0186168FDF7FDFD03047D
:102508001B0C0020B2E74848F3E74848F1E7484881
:10251800EFE74848EDE74848EBE74848E9E7484827
:10252800E7E74848E5E74848E3E74848E1E7FEF7D2
:102538009DFF636A002B1AD0012B25D0022B25D0D2
:10254800032B25D0042B25D0052B25D0062B25D0F1
:10255800072B25D0082B25D0092B25D00A2B25D0D1
:102568000B2B01D0012103E08021490000E001216B
:10257800FDF7C2FD63685B08C0186168FDF7BCFD24
:1025880003041B0C002071E70221F1E70421EFE7A7
:102598000621EDE70821EBE70A21E9E70C21E7E747
:1025A8001021E5E72021E3E74021E1E78021DFE78B
:1025B800802001E08020000263685B08C018616821
:1025C800FDF79AFD03041B0C00204FE78020C00193
:1025D800F2E780208001EFE71D48EDE78020400109
:1025E800EAE71C48E8E71C48E6E780200001E3E743
:1025F8008020C000E0E780208000DDE780204000E8
:10260800DAE70120002331E7012037E7012035E729
:10261800AA2A00009819000054150000EFFF0000D6
:102628000024F40024F4000000127A0000093D00A0
:10263800AAB0280080841E00006A180055581400AB
:1026480040420F0020A1070090D0030048E8010095
:1026580055150000CC0C0000AA0A0000836ADB07AD
:1026680006D5026853682C490B40C16A0B43536076
:10267800836A9B0706D50268536828490B40016B9B
:102688000B435360836A5B0706D502685368244985
:102698000B40416B0B435360836A1B0706D50268E6
:1026A800536820490B40816B0B435360836ADB06F8
:1026B80006D5026893681C490B40C16B0B439360B5
:1026C800836A9B0606D50268936818490B40016C1B
:1026D8000B439360836A5B060BD502685368144901
:1026E8000B40416C0B43536080235B03426C9A425E
:1026F8000AD0836A1B0606D5026853680D490B4049
:10270800C16C0B4353607047026853680A490B4019
:10271800816C0B435360ECE7FFFFFDFFFFFFFEFFFB
:10272800FFFFFBFFFF7FFFFFFFEFFFFFFFDFFFFF65
:10273800FFFFEFFFFFFFF7FFFFFF9FFFF0B5C64664
:1027480000B506000C0017009846069D3368DB6943
:1027580023401B1B5A425341BB421ED16B1CF5D070
:10276800FEF786F94346C01AA84201D8002DEDD1DC
:10277800326813680B490B40136032689368A331C1
:10278800FF318B43936020238022B3500432B3502F
:102798005C330022F254032000E0002004BC904681
:1027A800F0BDC0465FFEFFFF30B583B0040088234C
:1027B8000022C250FEF75CF9050023681B681B075E
:1027C8000ED423681B685B0717D420238022A350EC
:1027D8000432A3505C330022E254002003B030BD21
:1027E80080210C4B00930300002289032000FFF78F
:1027F800A5FF0028E5D00320F0E78021054B0093D2
:102808002B000022C9032000FFF798FF0028DCD026
:102818000320E3E7FFFFFF0110B5041E30D080233B
:10282800C358002B22D080232422E2502268136848
:1028380001218B4313602000FFF7EEFB012814D021
:10284800A36A002B18D1226853680E490B405360C5
:10285800226893682A218B43936022681368293978
:102868000B4313602000FFF79FFF10BD7C3300224D
:10287800C25400F0BDFAD6E72000FFF7EFFEE2E70A
:102888000120F2E7FFB7FFFF70B584B0040002A98A
:10289800154A130005CB05C16A4603CB03C2636E14
:1028A800002B1AD0226895686D0E07231D40926888
:1028B800520F134002AEF05CC0006A46D15CFDF7CF
:1028C800A5FC6A23E052705DC0006B46595DFDF7B8
:1028D8009DFC6823E05204B070BD01336A22A35204
:1028E800023AA352F7E7C0462847000870B57C2390
:1028F800C35C012B15D07C24012606558025242392
:102908004351026813681168B1431160064A1340C5
:102918000022426601680B602023435102550020C3
:1029280070BD0220FCE7C046FFFFFFDFF8B50400DA
:102938007C23C35C012B1BD07C250120605580269D
:102948002423A35123681F681A6882431A602268E7
:102958009368DB00DB08194391602000FFF794FFC0
:1029680023681F602023A351002363550020F8BD6E
:102978000220FCE7F8B504007C23C35C012B1BD0C4
:102988007C250120605580262423A35123681F68D5
:102998001A6882431A6022689368084803401943FA
:1029A80091602000FFF770FF23681F602023A35168
:1029B800002363550020F8BD0220FCE7FFFFFFF16C
:1029C800F0B589B01422002103A8FDF737FD234B89
:1029D800596B022211435963596B0A400192019ABB
:1029E8005A6B01252A435A635B6B2B400293029B67
:1029F80000220821A020C005FEF7B2FA81277F0037
:102A0800174E002239003000FEF7AAFA80239B00F7
:102A18000393144B04930024059403A93000FEF794
:102A2800E5F90823039304950594069403A9A020C7
:102A3800C005FEF7DBF9039704950594069403A9EE
:102A48003000FEF7D3F9002200210720FEF716F820
:102A58000720FEF745F809B0F0BDC0460010024057
:102A6800000400500000111000B583B0114A916BAA
:102A7800012319439163926B13400193019B002238
:102A880000210920FDF7FAFF0920FEF729F80022A6
:102A980000210A20FDF7F2FF0A20FEF721F80022A4
:102AA80000210B20FDF7EAFF0B20FEF719F803B011
:102AB80000BDC0460010024010B50D480D4B036024
:102AC800002343608360E022D200C26002220261D8
:102AD8004361FF32FF328261036243628362FA3AE2
:102AE800FF3AC26203634363FEF7E2FF10BDC046CC
:102AF800783300200030014010B5114C114B236091
:102B0800E1235B02636080235B05A3600023E3602D
:102B180023610C226261A361E36123626362A362A1
:102B28002000FFF779FE00212000FFF7FFFE0021BB
:102B38002000FFF71FFF2000FFF7D8FE10BDC0469A
:102B4800C80700200038014030B599B03422002170
:102B58000BA8FDF773FC1022002107A8FDF76EFCF7
:102B68001C2200216846FDF769FC80208000FEF7E2
:102B7800FDF902250B9580235B000E9300240F942A
:102B8800C03B1093129513951494303B15938023F2
:102B98009B021693C023DB0517930BA8FEF710FAC8
:102BA80007230793089509940A94022107A8FEF7BA
:102BB800BBFC0123009301946846FEF795FD19B00C
:102BC80030BD000000B583B0FDF732FFFDF78EFE83
:102BD800FFF7BAFFFFF7F4FEFFF746FFFFF76CFFBA
:102BE800FFF78AFF0E4AD16B10231943D163D26BCA
:102BF80013400193019B0B4B00229A620A490988F2
:102C0800D9621A605A6901210A435A610222524262
:102C18001A61D9601120FDF763FF00F055FCFEE74B
:102C2800001002400010004008000020084B1A68FD
:102C380001218A431A60074AFF319162002206493E
:102C48000A7506490988D9625A621A617047C046EE
:102C58000010004000040050540B00200800002021
:102C68007047000082B00A4B196C012211431964A5
:102C7800196C0A400092009ADA6B802149050A43D0
:102C8800DA63DB6B0B400193019B02B07047C046CF
:102C980000100240F0B58BB004001422002105A8F2
:102CA800FDF7CCFB2368494A934204D0484A934233
:102CB8004ED00BB0F0BD474B196C8020400101434A
:102CC80019641A6C02400192019A596B012211434E
:102CD80059635B6B1A400292029B64230593623B23
:102CE8000693A02005A9C005FEF780F83A483B4B9B
:102CF80003601023436000238360C3608022026165
:102D080043618361C3610362FDF766FF002819D13F
:102D1800314BA3659C623248324B036011234360F8
:102D2800013B83600023C3608022026143618361A9
:102D3800C3610362FDF750FF002806D1284B636585
:102D48009C62B6E7FFF78CFFE2E7FFF789FFF5E73C
:102D5800204BD96B8020C0010143D963DA6B024054
:102D68000392039A5A6B012632435A635B6B3340D2
:102D78000493049B05960225069505A9A020C00585
:102D8800FEF734F81027059706950025079508954E
:102D9800099605A9A020C005FEF728F81248134B8C
:102DA8000360132343608760C5606D330361456129
:102DB8008561C5610562FDF70FFF002803D10A4B45
:102DC80063659C6275E7FFF74BFFF8E70030014049
:102DD80000380040001002405C3400201C00024013
:102DE8001435002008000240B83400204400024096
:102DF80010B588B004001422002103A8FDF71EFBBB
:102E08002268114B9A4201D008B010BD0F4B196CC3
:102E18008020C001014319641A6C02400192019A92
:102E2800596B0122114359635B6B13400293029B58
:102E3800C023DB000393022304930792A02003A975
:102E4800C005FDF7D3FFDFE700380140001002405E
:102E58007047FEE77047704710B5FDF7FDFD10BDE0
:102E680010B50248FDF75CFF10BDC04614350020C0
:102E780010B50248FDF754FF10BDC0465C34002071
:102E8800024B802212059A607047C04600ED00E0B0
:102E980010B50E4A5178090180235B420B435BB29F
:102EA800117989000B435BB203201056084903438C
:102EB8000868037093780A685370064B09221A70E1
:102EC8000868022100F0F2FA10BDC0466C0B002021
:102ED80014000020540B002010B51C4B19680A7808
:102EE8009208032313401A4A5370002090701071FF
:102EF800002B15D0012B20D0022B14D18A78144B2B
:102F08009A70144B01221A71CA781202FC208001AF
:102F1800024008790243DA800F48FEF73FFF02E0DB
:102F28000C4B00221A71094B1B685A780323134073
:102F3800074AD370FFF7ACFF10BD0A78023313407D
:102F4800034A1371034B00221A71ECE718000020A2
:102F58006C0B0020540B00207833002010B5074B71
:102F6800D02219680A70002219684A70044A0A2196
:102F780011701868083900F099FA10BD1400002083
:102F8800540B002010B5094B01221A71084A116828
:102F9800CA781202FC208001024008790243DA80D4
:102FA8000448FEF7FBFEFFF7D9FF10BD540B0020C5
:102FB800180000207833002010B5074B00221A7142
:102FC800064A917801314A0089180E221A70044B7A
:102FD800186800F06BFA10BD540B00206C0B002031
:102FE8001800002010B50C4B00221A710B4B5B78AF
:102FF800012B09D0C0218900074B0F221A70084BFA
:10300800186800F053FA10BD044B1B79032B01D04C
:103018008021F1E76021EFE7540B00206C0B0020C2
:1030280018000020034B00221A75034B0132FF32AF
:103038009A627047540B002000040050034B012291
:103048001A75034BFF329A617047C046540B002033
:1030580000040050034B02229A62034B013A9A7211
:103068007047C04600040050540B0020034B022256
:103078009A61034B00229A727047C04600040050C0
:10308800540B0020A023DB0508229A62014B073A63
:10309800DA727047540B002010B50C4B8022920056
:1030A800DA600B4B1B7D002B0DD10A4B19680522EA
:1030B8000948FEF773FE064B01221A70FFF7E2FF7C
:1030C800FFF7D4FF10BDFFF7ADFFFBE70018024084
:1030D800540B00201800002078330020A023DB05C3
:1030E80008229A61014B0022DA727047540B0020C3
:1030F80010B5154A00231371144B19680B789B09F6
:10310800537004D0012B05D0022B06D010BD00F05F
:10311800A9F8FBE700F0F6F9F8E70A781209013395
:103128001340094AD37000215171002B06D0012B9E
:1031380007D0022BEAD1FFF725FFE7E700F008FAEE
:10314800E4E7FFF7C9FEE1E7540B00201800002070
:1031580010B5104B1B78012B0AD0042B0BD0052B74
:103168000CD0062B0DD0022B0ED0072B0FD010BD84
:10317800FFF7BEFFFBE700F017FAF8E7FFF71CFFC1
:10318800F5E7FFF72FFFF2E700F098F8EFE700F018
:1031980029F9ECE7540B002010B5034B07221A70ED
:1031A80000F0B8F810BDC046540B002010B5274BEE
:1031B8009B681B06FBD4264B1B78072B0DD0092BCD
:1031C80021D00A2B27D0082B2FD00B2B31D00C2B3A
:1031D80024D11F4B03221A7020E01E4B1B88002BA2
:1031E8000ED0FFF77BFFFFF735FF194BDB89194A34
:1031F800128819490968C9181848FEF7CFFD13E065
:1032080000F0A6F810E0124B1B79002B06D0104BEB
:1032180005221A7002E00E4B06221A700C4B1B781E
:103228000B2B01D0FFF70AFF10BD094B04221A70BF
:10323800F4E7074B9978012905D9094800F040F9C6
:10324800FFF7FCFEEAE700F053F9E7E70038004033
:10325800540B0020720B002014000020783300204B
:10326800B847000810B5084B19684B783F221A4038
:10327800064B1A715200DA80022018700448FEF7D3
:103288008DFDFFF7DBFE10BD18000020540B002059
:103298007833002010B5064B0C221A70054B00221B
:1032A8001A705A70044B1868022100F0FFF810BD1C
:1032B800540B0020C80100201400002010B5002382
:1032C8000BE00F4A14685A00A05C0002511C615CB4
:1032D80001430C4811520133DBB20B4A12799A426E
:1032E800EFD8094B00225A71064B1B88044A126812
:1032F800064909680648FEF741FCFFF7CBFF10BDF9
:1033080018000020DC330020540B0020140000209B
:103318007833002070B50B4D29890B4A4B005C1897
:103328006000845A12185388E418A4B2AB89074A7B
:103338001068C018210000F0B9F8AB89E418AC8116
:1033480070BDC046540B002054080020180000200F
:1033580010B51E4B99895A7950001D4BC35A994292
:103368002DD11A4B0321197000219981D981598ACD
:10337800013159821989013189B219810132D2B2D8
:103388005A711B799A4212D0124B1B78994212D06B
:103398000E4B5B795B000E4A9B5A0F4A12680F4925
:1033A80009680F48FEF7EAFBFFF748FE10BD074B18
:1033B80000225A71E8E7054B00221A81E8E7034A20
:1033C800138901331381FFF7A5FFEFE7540B0020A2
:1033D800DC3300206C0B00201800002014000020B3
:1033E8007833002010B5FFF741FEFFF74BFE044A83
:1033F800D389044909885B18D381FFF7A9FF10BD59
:10340800540B0020720B002010B5144B00211960DA
:103418001348426808242243426012484468C02284
:1034280092012243426059600F4A9A601A68023139
:103438000A431A601A680E310A431A601A68703112
:103448000A431A601968802292010A431A60074BDE
:1034580013221A60064800F083FB10BD44000240A6
:1034680080080240000002400C3800400C0802406E
:10347800D447000810B5FFF7C7FF10BD10B5094BBA
:103488001A6802218A431A6007494868C0229201D3
:1034980002434A601A6801218A431A60FFF786FED0
:1034A80010BDC0464400024000000240034B596072
:1034B800D8601A6803210A431A6070474400024022
:1034C80010B500F0D3FA10BD10B507490748FFF74B
:1034D800F7FFFFF7D7FDFFF7C9FD00F01FF9FFF76A
:1034E800C9FFFFF7ABFD10BDDC470008F84700082F
:1034F80010B5034B10221A70FFF7ACFD10BDC04683
:10350800540B002010B50E4B1B681A7812090323C0
:1035180013400C4A9370002111711B010A4C402082
:10352800034320680370236859700B2313702168C4
:103538000648FFF7C5FF20680221FFF7B7FF10BD57
:1035480018000020540B0020140000200048000838
:1035580070B5104B1968104D8B782B700F4C0123E8
:103568002371CA781202FC239B011A400B791A4373
:10357800E2800B48FEF712FC0A4BC02219680A7059
:103588002A7819684A700822227018680221FFF701
:103598008DFF70BD180000206C0B0020540B00201C
:1035A8007833002014000020F8B5CE46474680B591
:1035B8003B4B00221A713B4B5B78002B06D0012B4A
:1035C80008D0022B04D101239C4601E003239C462A
:1035D800002213E002239C46FAE7002536E0012C7E
:1035E80048D00021304853009F187C002652041907
:1035F80061802571002363710132D2B2294B197899
:10360800914240D99400294B19680B5D9809013003
:103618001B0903273B400133C000DB0006005E4363
:1036280065466E43B6B202340C5DE50961090F4088
:10363800B94621098846012147463940002D08D05E
:103648004D46002DC9D187089D087D43002900D12A
:103658006D08E1080127394002373C400029C1D0F4
:10366800002CBCD1C1188908634659434800091881
:10367800C9B2B7E7C0188008634658434300C0186A
:103688004100C9B2AEE7064B0D221A708900074BFC
:103698001868FFF70BFF0CBC90469946F8BDC0466A
:1036A800540B00206C0B0020540800201800002048
:1036B80070B5184B1A684025AA431A6000221A6090
:1036C8005A601A68042632431A601A6810210A439D
:1036D8001A601A680E390A431A601A688024A4000E
:1036E80014431C605868084358605968314359604E
:1036F8005A68E021C900114359605A68802149017C
:10370800114359601A682A431A60034800F028FADE
:1037180070BDC046003800401848000870B58AB02F
:103728000C22002107A8FCF789FE1D4B196C80208C
:103738004001014319641A6C02400192019A5A6BC4
:1037480002252A435A635A6B2A400292029AD96B7D
:103758008020C0010143D963DA6B02400392039AC7
:103768005A6B012422435A635B6B23400493049BE6
:1037780005940695A026F60505A93000FDF736FB49
:10378800102305930695002307930893099405A928
:103798003000FDF72BFBFFF78BFF0AB070BDC0466A
:1037A800001002400D488546002103E00C4B5B5891
:1037B800435004310B480C4B42189A42F6D30B4A3B
:1037C80002E0002313600432094B9A42F9D3FFF751
:1037D80057FBFCF70FFEFFF7F5F9FEE70090002016
:1037E800C0480008000000208C0000208C00002049
:1037F80074350020FEE70000014B18687047C0468A
:103808001C000020002310B504000360436083609F
:1038180081814366C2810361436183611900082283
:103828005C30FCF70BFE054B24626362044BA36219
:10383800044BE362044B236310BDC046A13B000860
:10384800C93B0008013C00082D3C000810B502499E
:1038580000F08CF810BDC046313F000870B56825EF
:103868004A1E55430E002900743100F0A1F8041EC9
:1038780008D000212A00016046600C30A060683240
:10388800FCF7DCFD200070BD836913B50400002B34
:1038980028D18364C3640365134B144A1B6882628E
:1038A8000193984201D101238361200000F020F8A0
:1038B8006060200000F01CF8A060200000F018F8FC
:1038C8000022E06004216068FFF79CFF01220921C3
:1038D800A068FFF797FF02221221E068FFF792FF26
:1038E8000123A36113BDC046984700085538000856
:1038F800F8B51C4B07001E68B369002B02D13000D5
:10390800FFF7C2FF4836B4687368013B04D53368D3
:10391800002B07D03668F6E70C22A55E002D0DD0E7
:103928006834F2E704213800FFF798FF3060002878
:10393800F0D10C2304003B602000F8BD20000A4BA6
:10394800656625606560A560E36025616561A561C0
:10395800082229005C30FCF771FD6563A563A56446
:10396800E564E9E7984700080100FFFFF7B50400A0
:103978000700002601914834002C01D13000FEBD1B
:103988006368A5680093009B013B009301D52468F8
:10399800F2E7AB89012B08D90E22AB5E013304D0C4
:1039A80029003800019B984706436835EBE700007B
:1039B800032370B5CD1C9D43083506000C2D1ED27F
:1039C8000C25A9421DD8300000F05AFB254A14687E
:1039D8002100002919D1244C2368002B03D1300081
:1039E80000F0C8F820602900300000F0C3F8431C3C
:1039F8002BD10C233000336000F043FB03E0002D93
:103A0800DFDA0C233360002070BD0B685B1B19D410
:103A18000B2B03D90B60CC18256003E04B688C4254
:103A28000DD11360300000F02CFB200007220B3072
:103A3800231D9043C31AE7D05A42E250E4E763607B
:103A48000C00EFE70C004968C3E70323C41C9C4340
:103A5800A042E1D0211A300000F08CF8431CDBD1E1
:103A6800C7E7C046580100205C0100200FB40B4B8B
:103A780013B51C68002C05D0A369002B02D12000C7
:103A8800FFF702FF05AB049AA1682000019300F03C
:103A98006BFB16BC08BC04B01847C0461C000020CD
:103AA80070B505000E00002804D08369002B01D1F1
:103AB800FFF7EAFEAB69AC68002B02D12800FFF7DC
:103AC800E3FE244B9C420FD16C68A3891B0702D5E7
:103AD8002369002B1FD12100280000F013F90028CA
:103AE80019D00120404270BD1B4B9C4201D1AC68EB
:103AF800EBE71A4B9C42E8D1EC68E6E70136A36095
:103B0800002B04DAA2699A4216DC0A2914D0236829
:103B18005A1C22601970A3683178013B0029EDD145
:103B2800A360002B0FDA22000A31280000F080F889
:103B3800431CD6D00A20D6E72200280000F078F8E7
:103B4800431CE8D1CDE70A2023685A1C226018706C
:103B5800C9E7C046444800086448000824480008EB
:103B680010B5034B01001868FFF79AFF10BDC04657
:103B78001C000020002370B5064C050008002360D7
:103B8800FCF766FD431C03D12368002B00D02B6093
:103B980070BDC0467035002070B50C000E25495F19
:103BA80000F06EFD002803DB636D1B18636570BDB4
:103BB800A389024A1340A381F9E7C046FFEFFFFF3C
:103BC800F8B51F008B8905000C001600DB0505D52C
:103BD8000E23C95E0022022300F0D2F9A389054A08
:103BE80028001340A38132000E23E15E3B0000F061
:103BF80075F8F8BDFFEFFFFF70B50C000E25495FA3
:103C080000F0BEF9A389421C03D1054A1340A381E1
:103C180070BD802252011343A3816065F8E7C04656
:103C2800FFEFFFFF10B50E23C95E00F0E1F810BDED
:103C3800F8B505000E001400002804D08369002B95
:103C480001D1FFF721FE224B9C422DD16C68A3695C
:103C5800A360A3891B0731D52369002B2ED02368C5
:103C68002269F7B2981A6369F6B2834205DC21002B
:103C7800280000F059F9002826D1A3680130013B3B
:103C8800A36023685A1C22601F706369834204D0B2
:103C9800A389DB071AD50A2E18D12100280000F0C5
:103CA80043F9002812D00FE00A4B9C4201D1AC68BE
:103CB800CDE7094B9C42CAD1EC68C8E7210028002F
:103CC80000F020F80028CAD0012676423000F8BD5E
:103CD80044480008644800082448000870B50500F6
:103CE800080011000022064C22601A00FCF75FFC55
:103CF800431C03D12368002B00D02B6070BDC04645
:103D080070350020364B70B51D6806000C00002D7C
:103D180005D0AB69002B02D12800FFF7B5FD314B68
:103D28009C420FD16C680C23E25E93B219072DD424
:103D3800D90611D409230120336037331343A381F3
:103D4800404270BD284B9C4201D1AC68EBE7274B41
:103D58009C42E8D1EC68E6E75B0713D5616B002964
:103D680008D023004433994202D0300000F08AF989
:103D7800002363632422A3899343A3810023636000
:103D8800236923600823A2891343A3812369002B95
:103D98000BD1A0218022A389890092000B40934275
:103DA80003D02100300000F027F90123A289134035
:103DB80011D00023A36063695B42A36100202369DB
:103DC8008342BED10C23E25E1306BAD540231343C7
:103DD800A3810138B5E7920700D46369A360EDE7D2
:103DE8001C000020444800086448000824480008D3
:103DF800002370B5064C050008002360FCF702FCA0
:103E0800431C03D12368002B00D02B6070BDC04633
:103E180070350020F7B58A8905000C00130760D4B7
:103E28004B68002B04DC0B6C002B01DC0020FEBD72
:103E3800E76A002FFAD000232E682B6080235B01ED
:103E4800216A1A4034D0606DA3895B0706D5636880
:103E5800C01A636B002B01D0236CC01A0200216AC0
:103E680000232800E76AB847A189431C06D12B68BC
:103E78001D2B30D82B4ADA40D3072CD5002363609A
:103E880023692360CB0405D5431C02D12B68002B82
:103E980000D16065616B2E600029C7D023004433D0
:103EA800994202D0280000F0EDF800206063BEE7D8
:103EB80001232800B847431CC6D12B68002BC3D068
:103EC8001D2B01D0162B01D12E60AFE74023A2890C
:103ED8001343A381ABE740230B430120A381404256
:103EE800A5E70F69002FA1D00B680F60DB1B0193BA
:103EF8000023920700D14B69A360019B002B00DCD3
:103F080094E7019B3A00216A2800A66AB047002876
:103F180003DC4023A2891343DFE7019B3F181B1AE8
:103F28000193EAE7010040200B6970B505000C0019
:103F3800002B01D1002070BD002804D08369002B1C
:103F480001D1FFF7A1FC0B4B9C4209D16C680C22F4
:103F5800A35E002BEED021002800FFF75BFFEAE705
:103F6800054B9C4201D1AC68F1E7044B9C42EED171
:103F7800EC68ECE744480008644800082448000856
:103F880070B50500080011000022064C22601A00D6
:103F9800FCF7F9FA431C03D12368002B00D02B60EF
:103FA80070BDC0467035002070B50E001D000E2390
:103FB800C95E96B01400002907DA00232B60B38984
:103FC8001B0611D48023DB000FE06A4600F06CFB6F
:103FD8000028F2DBF022019B12021340054A9B18CD
:103FE8005A4253412B60EDE740230020236016B06E
:103FF80070BDC04600E0FFFFF7B502268B890500BB
:104008000C00334206D02300473323602361012389
:104018006361F7BD01AB6A46FFF7C6FF0099070069
:104028002800FFF7C5FC002808D10C22A35E9A05DA
:10403800EFD4032293431E43A681E4E70F4BAB6200
:104048008023A28920601343A381009B20616361C0
:10405800019B002B0DD00E23E15E280000F036FBFB
:10406800002806D00322A38993431A00012313438F
:10407800A381A0893843A081CBE7C0465538000802
:104088007047704770B50500002910D00C1F2368D1
:10409800002B00DAE4182800FFF7F2FF1D4A136826
:1040A800002B05D1636014602800FFF7EAFF70BD9C
:1040B800A34209D9216860188342F3D118685B6864
:1040C80041182160EEE713005A68002A01D0A24285
:1040D800F9D919685818A0420BD12068091858183E
:1040E80019608242E0D110685268411819605A601C
:1040F800DAE7A04202D90C232B60D5E721686018C3
:10410800824203D1106852684118216062605C6085
:10411800CAE7C04658010020936810B5013B936078
:10412800002B04DA9469A34207DB0A2905D0136837
:10413800581C10601970080010BDFFF779FD0100C8
:10414800F9E7F8B506000F001400D518AC4201D104
:10415800002007E021783A003000FFF7DDFF013446
:10416800431CF3D1F8BD0000F0B5A1B003900F00D7
:1041780016001D00002805D083690593002B01D186
:10418800FFF782FB7B4B9F425CD1039B5F68BB8937
:104198001B0763D53B69002B60D0002308AC636123
:1041A800203363761033A376079535002B78002BE0
:1041B80001D0252B5CD1AB1B05930CD03200390004
:1041C8000398FFF7BEFF431C00D1C4E06269059B5A
:1041D8009446634463612B78002B00D1BBE0012235
:1041E80000235242626004A9543252186E1C2360A4
:1041F800E360A3601370A365317805225E4800F080
:1042080077FA751C002835D12268D30604D55323C4
:1042180004A95B1820211970130704D5532304A996
:104228005B182B21197033782A2B2CD035000021EC
:104238000A20E3682A786E1C303A092A64D90029D2
:104248002ED026E04D4B9F4202D1039B9F689EE7EC
:104258004B4B9F429BD1039BDF6898E7390003983B
:10426800FFF750FD002898D00120404221B0F0BD52
:1042780001359BE7404B2268C01A01238340134352
:1042880023602E00B8E7079B191D1B680791002BB8
:1042980001DB0B9304E05B42E360022313432360DA
:1042A8002B782E2B0AD16B782A2B35D1079B023518
:1042B8001A1D1B680792002B2BDB0993314E2978B6
:1042C8000322300000F014FA002806D04023801B97
:1042D80083402268013513432360297806222A483F
:1042E8006E1C217600F004FA00283AD0274B002BE8
:1042F80025D10722079B0733934308330793636944
:10430800049A9B18636150E7434301219B183500C9
:1043180090E701235B42D0E700230A201A00013509
:10432800636029786E1C3039092903D9002BC5D060
:104338000992C3E74243012352183500F1E707AB5E
:1043480000933A00124B2100039800E000BF04904C
:10435800049B0133D3D1BB895B0600D584E70D9854
:1043680084E707AB00933A00094B2100039800F05B
:104378007FF8ECE7444800088448000864480008CF
:10438800244800088A4800088E48000800000000F9
:104398004B410008F7B5150001938A680B69009036
:1043A8000C00934200DA130022002B60433212788B
:1043B800002A01D001332B6023689B0602D52B68A5
:1043C80002332B60062723681F4027D0230043337E
:1043D8001B785A1E93412268920630D42200019914
:1043E80043320098089EB047431C25D00623206816
:1043F8002A68E16803400025042B03D18D1AEB439A
:10440800DB171D40A3682269934201DD9B1AED1852
:104418000027BD4220D1002010E00137E3682A6858
:104428009B1ABB42D2DD2200012319320199009860
:10443800089EB047431CF0D101204042FEBD302009
:10444800E1184331087021005A1C45310978A21837
:10445800433202331170C1E7220001231A32019955
:104468000098089EB047431CE6D00137D1E700000A
:10447800F0B589B004920A00433205930390029282
:104488000A7E0C000E9B6E2A00D186E01FD8632A94
:1044980033D008D8002A00D18CE0582A4DD0250006
:1044A80042352A7030E0642A01D0692AF7D11968A8
:1044B80025680A1D280629D508681A60002803DA25
:1044C8002D23029A404213706B4E0A274FE0732A3D
:1044D80074D008D86F2A1FD0702AE0D1202209682A
:1044E8000A43226003E0752A16D0782AD7D1220021
:1044F800782145321170614E22E025001A68423554
:10450800111D196013682B70012365E008681A6093
:104518006906D3D500B2D1E719682568081D186067
:1045280008682E0605D5544E08276F2A1BD00A277F
:1045380019E06D06F7D580B2F5E745314E4E0A70A1
:1045480018682268011D00681960150621D5D3076F
:1045580002D520231A4322601027002803D12023E4
:1045680022689A4322602300002243331A7063684A
:10457800A360002B58DB04222168914321600028A6
:1045880054D1029D002B5AD02500337842352B7028
:1045980055E05506DBD580B2D9E71A680D68101DBD
:1045A8004969186013682E0601D5196002E06D0686
:1045B800FBD519800023029D23614FE01A68111D65
:1045C8001960156800216268280000F091F8002839
:1045D80001D0401B6060636823610023029A137056
:1045E8003CE023692A0004990398059DA847431CC9
:1045F8003ED023689B0715D4079BE068984239DAB8
:10460800180037E022000123193204990398059E07
:10461800B047431C2CD00135E368079A9B1AAB427C
:10462800F0DCE9E70025F7E70028ADD0029D390066
:10463800FBF7E8FD735C013D2B700028F7D1082FCC
:1046480009D12368DB0706D563682269934202DC37
:104658003023013D2B70029B5B1B2361059B07AA3E
:1046680000932100049B0398FFF794FE431CB8D1E4
:104678000120404209B0F0BD95480008A64800084E
:1046880070B50500080011000022064C22601A00CF
:10469800FBF724FF431C03D12368002B00D02B60B9
:1046A80070BDC04670350020002370B5064C05006B
:1046B800080011002360FCF713F8431C03D123689A
:1046C800002B00D02B6070BD70350020002370B522
:1046D800064C050008002360FCF762F9431C03D16F
:1046E8002368002B00D02B6070BDC04670350020B9
:1046F800C9B28218904201D10020704703788B42DA
:10470800FBD00130F6E70000F8B5C046F8BC08BC9D
:104718009E467047F8B5C046F8BC08BC9E46704730
:104728000101010307010000080402040801010156
:104738000000000000000000000000000000000071
:104748000000000000000000000000000000000061
:104758000100000002000000030000000400000047
:104768000600000007000000080000000900000023
:104778000000000000000000000000000000000031
:104788000100000002000000030000000400000017
:10479800200000203A73656D69686F7374696E67ED
:1047A8002D6665617475726573003A747400000053
:1047B80046696E69736865642041646472657373E1
:1047C80020446174612025640A000000444D4120A2
:1047D800496E69740000000043616C6C4261636B50
:1047E8003100000043616C6C4261636B3200000071
:1047F8005265616479200A0053454E44204144447F
:104808005220484541444552202564200A000000B2
:1048180053504920496E69740000000000000000F0
:104828000000000000000000000000000000000080
:104838000000000000000000000000000000000070
:104848000000000000000000000000000000000060
:104858000000000000000000000000000000000050
:104868000000000000000000000000000000000040
:10487800000000000000000000000000232D302B85
:104888002000686C4C006566674546470030313249
:1048980033343536373839414243444546003031A0
:1048A80032333435363738396162636465660000FF
:0448B800E100000813
:0448BC00B900000837
:1048C0000100000004000000001000000024F400BB
:1048D000DC330020C8010020740B002020000020E1
:1048E000000000004448000864480008244800080C
:1048F00000000000000000000000000000000000B8
:1049000000000000000000000000000000000000A7
:104910000000000000000000000000000000000097
:104920000000000000000000000000000000000087
:104930000000000000000000000000000000000077
:0C494000ADDEFECAFFFFFFFFFFFFFFFF20
:04000005080037AD0B
:00000001FF
