:020000040800F2
:1000000000900020B12900085D1E0008611E000854
:1000100000000000000000000000000000000000E0
:10002000000000000000000000000000651E000845
:100030000000000000000000691E00086D1E00089E
:10004000012A000800000000012A0008012A000817
:10005000012A0008012A0008012A0008E11F0008FF
:1000600000000000692500089D250008C92500083A
:10007000012A0008012A0008012A000800000000E7
:10008000012A0008991D0008012A0008012A000819
:10009000012A0008012A0008012A0008012A000894
:1000A000012A0008012A0008012A0008012A000884
:0800B000012A0008012A0008E2
:1000B80010B5064C2378002B07D1054B002B02D036
:1000C800044800E000BF0123237010BD8400002015
:1000D8000000000060330008044B10B5002B03D06B
:1000E8000349044800E000BF10BDC04600000000FE
:1000F8008800002060330008002243088B4274D334
:1001080003098B425FD3030A8B4244D3030B8B4210
:1001180028D3030C8B420DD3FF22090212BA030C19
:100128008B4202D31212090265D0030B8B4219D3FA
:1001380000E0090AC30B8B4201D3CB03C01A52411A
:10014800830B8B4201D38B03C01A5241430B8B4262
:1001580001D34B03C01A5241030B8B4201D30B034B
:10016800C01A5241C30A8B4201D3CB02C01A524172
:10017800830A8B4201D38B02C01A5241430A8B4235
:1001880001D34B02C01A5241030A8B4201D30B021E
:10019800C01A5241CDD2C3098B4201D3CB01C01A38
:1001A800524183098B4201D38B01C01A5241430942
:1001B8008B4201D34B01C01A524103098B4201D330
:1001C8000B01C01A5241C3088B4201D3CB00C01A9D
:1001D800524183088B4201D38B00C01A5241430815
:1001E8008B4201D34B00C01A5241411A00D201463A
:1001F800524110467047FFE701B5002000F0F0F8C3
:1002080002BDC0460029F7D076E7704703460B4386
:100218007FD4002243088B4274D303098B425FD3F7
:10022800030A8B4244D3030B8B4228D3030C8B4223
:100238000DD3FF22090212BA030C8B4202D3121209
:10024800090265D0030B8B4219D300E0090AC30BDE
:100258008B4201D3CB03C01A5241830B8B4201D38B
:100268008B03C01A5241430B8B4201D34B03C01A74
:100278005241030B8B4201D30B03C01A5241C30AEC
:100288008B4201D3CB02C01A5241830A8B4201D35D
:100298008B02C01A5241430A8B4201D34B02C01A47
:1002A8005241030A8B4201D30B02C01A5241CDD2EC
:1002B800C3098B4201D3CB01C01A524183098B4237
:1002C80001D38B01C01A524143098B4201D34B0120
:1002D800C01A524103098B4201D30B01C01A524183
:1002E800C3088B4201D3CB00C01A524183088B420A
:1002F80001D38B00C01A524143088B4201D34B00F3
:10030800C01A5241411A00D2014652411046704764
:100318005DE0CA0F00D04942031000D34042534069
:1003280000229C4603098B422DD3030A8B4212D329
:10033800FC22890112BA030A8B420CD3890192115B
:100348008B4208D3890192118B4204D389013AD098
:10035800921100E08909C3098B4201D3CB01C01A6D
:10036800524183098B4201D38B01C01A5241430980
:100378008B4201D34B01C01A524103098B4201D36E
:100388000B01C01A5241C3088B4201D3CB00C01ADB
:10039800524183088B4201D38B00C01A5241D9D2F3
:1003A80043088B4201D34B00C01A5241411A00D274
:1003B8000146634652415B10104601D34042002B70
:1003C80000D54942704763465B1000D3404201B5EF
:1003D800002000F005F802BD0029F8D016E77047A4
:1003E8007047C04670B500260C4D0D4C641BA41018
:1003F800A64209D1002602F0AFFF0A4D0A4C641B41
:10040800A410A64205D170BDB300EB589847013639
:10041800EEE7B300EB5898470136F2E7903400084E
:10042800903400089034000894340008030012182F
:10043800934200D1704719700133F9E70A4B10B5A0
:1004480004001868002804D08369002B01D102F049
:100458001DFB0020132C05D8044BE400E2580132A0
:1004680000D0E01810BDC0461C000020A4000020E9
:10047800F8B50500431C09D102F0C0FA13240600A0
:100488000027201C391CABBE041C34602800F8BDB2
:10049800F8B5050002F0B2FA132406000027201C64
:1004A800391CABBE041C28003460F8BD30B585B0DB
:1004B80001AD0190029103920624201C291CABBEB9
:1004C800041C2000FFF7D4FF05B030BD70B50E0046
:1004D8001500FFF7B3FF041E06D102F08FFA0923B7
:1004E80003600120404270BD2A0031000068FFF718
:1004F800DDFF431CF7D06368281A1B186360F2E716
:10050800F7B50C001600FFF799FF051E07D102F09A
:1005180075FA09230360012464422000FEBD022EFF
:1005280003D902F06BFA1623F4E7012E12D14368BF
:10053800E418F6D46F462B680A2600937C60301CBA
:10054800391CABBE061C3000FFF792FF0028E2DB27
:100558006C60E2E7022EEDD103686F4600930A361D
:10056800301C391CABBE061C3000FFF781FF241875
:10057800431CDFD1CFE710B5FFF7C2FF10BD30B580
:1005880085B001AD0190029103920524201C291C1D
:10059800ABBE041C2000FFF76BFF05B030BD70B583
:1005A8000E001500FFF74AFF041E06D102F026FAD6
:1005B80009230360012040420FE02A00310000684F
:1005C800FFF7DDFF021EF5DB6368281A1918616062
:1005D800AA4202D10020FFF75BFF70BD37B50224A5
:1005E800019001AD201C291CABBE041C2000FFF7A4
:1005F8003FFF3EBD70B50500FFF720FF041E06D182
:1006080002F0FCF9092303600120404270BD013D5E
:10061800012D09D8094B9A681B699A4204D1012314
:100628005B4203600020F1E72068FFF7D7FF00284E
:10063800ECD101235B422360E8E7C046A400002018
:100648000E4A10B511680300002901D10C49116048
:1006580069461068C3188B4206D80A490A4C0968CB
:10066800A14208D08B4206D902F0C8F90C230360D6
:100678000120404210BD1360FCE7C046A0000020E6
:100688006835002080000020ADDEFECA70B50C0081
:10069800FFF7D4FE061E06D102F0B0F90923036065
:1006A8000120404270BD802362689B011343636050
:1006B8008023DB0063640C25281C311CABBE051CA1
:1006C8002800FFF7D5FE431CECD020610020E9E7A5
:1006D80070B50C000500582200212000FFF7A6FE87
:1006E80028002100FFF7D2FF70BD70B5FFF7A6FE06
:1006F8000925041E04D102F081F90560200070BDAF
:10070800281C211CABBE041C2000012CF7D002F0D1
:1007180075F9002406001325281C211CABBE051CF6
:100728003560EBE770B50F4C05002168002901D151
:10073800012070BDFA208000FFF7DEFC0A4B0100A3
:100748001868FFF7D9FC00F06FF80028F0D1032DE6
:10075800EED801380022290000F02EF8656000204C
:10076800E7E7C046000000200C0000208023084A6C
:100778005B00116810B50B4313600020FFF7D2FF30
:10078800041E02D00124200010BD01F01BFBFAE773
:1007980000200240034A0449136809685B18136083
:1007A8007047C0464C01002000000020014B18682B
:1007B8007047C0464C010020FF22032330B51400C7
:1007C800C5B22B40DB009C4089010A40E4439A40B3
:1007D80000280BDB0C4B80089C46C023800060443B
:1007E8009B00C1580C402243C25030BD0F2307491B
:1007F8002B408C46083B9B089B006344D9690C40FE
:100808002243DA61F1E7C04600E100E000ED00E0D4
:10081800002805DB1F2318401E3B8340014A136054
:100828007047C04600E100E00A4A431E0120934297
:100838000ED8C021084A09485360036A09061B02FA
:100848001B0A0B43036200230020936007331360E5
:100858007047C046FFFFFF0010E000E000ED00E039
:10086800F0B54E46DE4657464546E0B58946096826
:1008780083B0002900D184E0704B002298464B4693
:100888000091019301259540009E2E4074D0019B54
:1008980010275C682300BB439946022B00D177E000
:1008A80003689B4653009C46032361468B40594688
:1008B800DB4319408B46032167462140B9408A46ED
:1008C8005946574639430160012149428A46D14475
:1008D8004946012900D888E06746C56801992B4038
:1008E8008D68BD402B43C36080235B051C4243D009
:1008F8000327524917408C46F9000F2793089B009D
:1009080063448F408C46A0211D6EC905BD438842B3
:1009180011D04B49884200D185E04A4989460221D5
:10092800484505D0484989460521484500D17FE01A
:100938006746B9400D431D6680214346F5435B5821
:10094800E1036ED42B4041468027CB518423CB58FA
:10095800A10364D42B4084218C4641466746CB5181
:100968000B68E10259D42B4041460B604B68A10249
:1009780051D42B4041464B60009B0132D34000D0FC
:1009880080E703B03CBC90469946A246AB46F0BD12
:10099800D3089B00C318196A894607210F0017401E
:1009A800B9000F278F40BA468C464F4651468F43B1
:1009B8000199B9460F6961468F40BC464F4661466A
:1009C8000F431F6203689A4653009C4603236146FF
:1009D8008B405746DB431F40BA46032727408F40CA
:1009E800B946574649460F430760876801991F4033
:1009F800BA46CF6861468F40B946574649460F43C5
:100A0800876041680F000121AF4325090D409540DB
:100A18003D43456060E73343ACE73343A4E73343E2
:100A280099E733438FE701216746B9400D4382E7D1
:100A380003216746B9400D437DE7C04600180240D0
:100A48000004005000080050000C0050002A01D19A
:100A5800816270478161FCE770B5134C134A2368C3
:100A6800002513400343236080239B00984201D054
:100A7800280070BD0E4B0F491B685800C018400075
:100A8800FFF73AFB80236169DB0001301A00194245
:100A980002D1EDE7002805D0636901381342F9D186
:100AA8000025E5E70325E3E700700040FFF9FFFFB5
:100AB8000C00002040420F00F0B5CE46474680B5F6
:100AC800040083B0002800D1DBE00368DA0731D5E1
:100AD8003822C6498868C9680240102A00D1D6E081
:100AE800082A00D1D7E0802263685202934200D1DD
:100AF8000FE1A021C9028B4200D1DFE1BB4DBC4907
:100B08002A680A402A602A68BA490A402A60002BE3
:100B180000D002E1FFF74AFE80260700B60205E092
:100B2800FFF744FEC01B642800D917E12B68334245
:100B3800F6D123689A0700D592E01A071DD5382206
:100B4800AA4DA9680A40182A00D1D9E0A369002B48
:100B580000D105E101222B6E022613432B66FFF715
:100B680025FE070005E0FFF721FEC01B022800D97B
:100B7800F4E02B6E1E42F6D023685B0746D5382377
:100B88009A4A91680B40202B00D14BE18023D16B0E
:100B98005B050025194207D1D16B01351943D16393
:100BA800D26B13400193019B8026934F76003B68DC
:100BB800334200D1C2E0A368012B00D193E1052B99
:100BC80000D138E10121894EF26D8A43F265F26D58
:100BD80003318A43F265002B00D035E1FFF7E6FDCB
:100BE800864B81460227984606E0FFF7DFFD4B4615
:100BF800C01A404500D9B1E0F36D1F42F5D1012D6F
:100C080004D17A4A7E49D36B0B40D363E369002B46
:100C180024D03822754DA9680A40102A00D126E14F
:100C2800022B00D164E12B68764A8024134003220A
:100C38002B60EB68A4049343EB60EB68724A1340A3
:100C4800EB60FFF7B3FD060005E0FFF7AFFD801B83
:100C5800022800D982E02B682342F6D1002011E057
:100C68003823624A91680B40D168102B1DD0002BA5
:100C780020D113685B0500D499E0E368002B00D00D
:100C880095E0012003B00CBC90469946F0BDC943DD
:100C98008A0700D027E7554A1268920300D449E72B
:100CA8006268002A00D045E7EBE70D3B0B40022BBA
:100CB80000D10DE1E3684D4D002B64D02B68534AF9
:100CC800802613402269F60013432B6080232A688C
:100CD8005B0013432B60FFF769FD070004E0FFF793
:100CE80065FDC01B022839D82B683342F7D06A68E3
:100CF800636947491B020A4013436B6023681CE77A
:100D08002A6E920700D438E7A269002A00D034E797
:100D1800B7E7364A11680B431360FFF747FD802594
:100D28000700324EAD0204E0FFF740FDC01B642807
:100D380014D833682B42F7D02368FBE63B6833436B
:100D48003B60FFF733FD80463B68334200D032E713
:100D5800FFF72CFD4346C01A0228F5D9032091E776
:100D680001222B6E022693432B66FFF71FFD070017
:100D780004E0FFF71BFDC01B0228EFD82B6E1E42B4
:100D8800F7D12368F9E62B68224A802613402B60A6
:100D9800FFF70CFDF600070004E0FFF707FDC01B96
:100DA8000228DBD82B683342F7D12368C5E651689F
:100DB800636917481B0201400B4353600B4A1349F0
:100DC80013680B4021690B4313601368124A9B0494
:100DD8005B0FDA401300114A1360114B1868FFF7D4
:100DE800A1FC002800D04CE72368A6E600100240CA
:100DF800FFFFFEFFFFFFFBFF0070004088130000AD
:100E0800FFFFFFEFFFFFFFFEFFFFFEEFFFC7FFFF44
:100E1800FF80FFFFFFFEFFFF0024F4000C0000200E
:100E280004000020D36D9B0700D4EFE6A368002BD5
:100E380000D0EBE625E704214E4BDA6D0A43DA656C
:100E4800DA6D03390A43DA65FFF7B0FC4A4B81468D
:100E5800484F0226984606E0FFF7A8FC4B46C01A02
:100E6800404500D97AE7FB6D1E42F5D0C7E6012B55
:100E780000D106E70322E868236A02409A4200D0BC
:100E8800FFE67022636A02409A4200D0F9E6FE212A
:100E9800A36AC90101401A02914200D0F1E6F82282
:100EA800E36A920302409A4200D0EAE6236B400FBD
:100EB8004007C01A431E9841C0B2E3E680212D4B7B
:100EC800C90218680143196019680A431A6024E7BF
:100ED80013685B054AD45168636928481B020140BE
:100EE8000B43536079E72349CA6D1343CB65ABE7DE
:100EF8002B68234A802613402B60FFF757FCB60463
:100F0800070005E0FFF752FCC01B022800D925E7BF
:100F18002B683342F6D1616A236AEA680B431949A0
:100F28000A401343E26A1343226B1343A26A8024E4
:100F380012021343EB6080232A685B0413432B607F
:100F48008023EA685B051343EB60FFF72FFC094D2C
:100F58000600A40405E0FFF729FC801B022800D93D
:100F6800FCE62B682342F6D000208BE6E368002BD2
:100F7800B1D186E60010024088130000FF80FFFF11
:100F8800FFFFFFFE8C80C11F3823224A10B59168ED
:100F98000B4215D09168194008291AD09168194058
:100FA800102918D09168194020292FD09068034043
:100FB800183B58425841FA234042DB01184010BD03
:100FC8000121136814489B045B0F9940FFF794F8BC
:100FD800F5E71248F3E7D368D168DB43D0684906E0
:100FE800490F40040131440E9B070AD10B48FFF713
:100FF80083F86043074BD968490F0131FFF77CF844
:10100800DDE70548FFF778F86043F3E78020000242
:10101800D5E7C046001002400024F40000127A0010
:10102800F8B5CE464746050080B50C00002800D12B
:1010380079E00722554E336813408B4258D32B680A
:101048009A070ED55A0705D5E0225149D20188687A
:1010580002438A604E494F488A680240A8680243A2
:101068008A60DB0725D56B68494A012B00D180E0EF
:10107800022B00D177E0002B50D11268520552D5CF
:101088000721434E3827B2688A431343B360FFF7FA
:101098008DFB414B8146984605E0FFF787FB4B46A1
:1010A800C01A404555D8B2686B683A40DB009A428E
:1010B800F3D10722354E33681340A34235D82B6845
:1010C8005B0748D4FFF760FF314B344A9B681B0528
:1010D8001B0F9B009B581F221340D840304B1860B1
:1010E800304B1868FFF71EFB0CBC90469946F8BDBC
:1010F8003368072793430B433360FFF757FB264BAF
:101108008146984605E0FFF751FB4B46C01A40451B
:101118001FD833683B40A342F5D190E7032B2ED06C
:10112800D26D9207ACD40120DEE7336807279343DA
:1011380023433360FFF73AFB174B814698463368E1
:101148003B40A342BBD0FFF731FB4B46C01A40459A
:10115800F5D90320C8E70E4A134993680B40E9689C
:101168000B439360AEE71268920100D588E701202F
:10117800BAE71268920300D582E70120B4E7126E3D
:10118800920700D57CE70120AEE7C0460020024068
:1011980000100240FFF0FFFF881300008C330008A6
:1011A8000C00002004000020FF8FFFFF064B074AB9
:1011B8009B685B045B0F9B009B581F221340044AEB
:1011C8001068D8407047C04600100240CC33000871
:1011D8000C000020F0B5CE46474680B503680600EF
:1011E80083B000209A034DD58022544B5205D96B09
:1011F8008046114200D17FE08025514C6D00236864
:101208002B432360FFF7D2FA070005E0FFF7CEFA79
:10121800C01B022800D97FE023682B42F6D0C022E9
:10122800464C9200E36D1340B26920D093421ED021
:101238008021E06DE56D49022943E165E16D414B8F
:10124800414D03402940E165E365C3070FD5FFF72A
:10125800ADFA022581463D4F05E0FFF7A7FA4B4658
:10126800C01AB84258D8E36D1D42F6D0B269334966
:101278003448CB6D03401343CB6543460020012B14
:101288004ED03368DA0706D503242C494A6DA243A9
:10129800746822434A659A0706D50C2427494A6D83
:1012A800A243B46822434A655A0606D52349284C06
:1012B8004A6D2240F46822434A655A040AD51F49F8
:1012C80074694A6D9200920822434A658022D205C9
:1012D80094422CD01B050AD5184A1E4C536D31690F
:1012E80023400B4353658023DB0199420ED003B0A2
:1012F8000CBC90469946F0BDD96B1143D963DB6BA2
:101308001A400192019B0123984675E78023D16812
:101318005B020B43D360EAE743460320012BB0D1BD
:10132800064A0D49D36B0B40D3633368AAE7802282
:10133800CC6852022243CA60CCE7C0460010024083
:1013480000700040FFFCFFFFFFFFFEFF8813000056
:10135800FFCFFFFFFF3FFFFFFFFFFFEF836A30B5BF
:10136800DA0706D50168284C4A682240C46A224335
:101378004A609A0706D50168244C4A682240046BE3
:1013880022434A605A0706D50168214C4A68224020
:10139800446B22434A601A0706D501681D4C4A6807
:1013A8002240846B22434A60DA0606D501681A4C4B
:1013B8008A682240C46B22438A609A0606D501686F
:1013C800164C8A682240046C22438A605A060AD561
:1013D8000168134D4A68446C2A4022434A608022BF
:1013E8005203944209D01B0606D502680D4953687A
:1013F8000B40C16C0B43536030BD4A680A4C224015
:10140800846C22434A60EEE7FFFFFDFFFFFFFEFF0B
:10141800FFFFFBFFFF7FFFFFFFEFFFFFFFDFFFFF88
:10142800FFFFEFFFFFFFF7FFFFFF9FFFF0B5C64687
:10143800040000B500284AD08023C358002B41D0AF
:10144800802324220121E250236820691A68656EEE
:101458008A431A60A268E1690243606902430A4349
:1014680018682A43AF4D284002431A605A68AE48AC
:10147800256A0240E06802435A60A26998682A43D4
:10148800AA4D284002430F209A60DA6A656A8243AF
:101498002A43DA62A64A93421BD0A64A934200D155
:1014A80090E0A54A934200D194E0A44A934200D127
:1014B80090E0A34B0120A3660023E366236704BCE6
:1014C8009046F0BD7C22835400F094FCB8E70120DC
:1014D800F5E79C4B5A6D032313409B4AD35C80204D
:1014E8000002814200D1A1E0022B00D136E100D8F0
:1014F800F9E1042B00D10DE1082BDAD1002D21D020
:10150800012D00D1D3E1022D00D1DBE1032D00D163
:10151800E7E1042D00D1F7E1052D00D103E2062D06
:1015280000D10FE28020072D00D119E2082D00D14B
:101538001EE2092D00D127E20A2D00D12AE20B2D47
:1015480000D00002636861685B081818FEF7D4FDD4
:101558000004000C03007D4A103B9342A9D823687D
:10156800774AD860A2660022E2662267A26A002A49
:1015780003D02000FFF7F2FE23685A6874490A4036
:101588002A215A609A688A439A601A6829390A4354
:101598001A6088230022E250FFF708F92368060042
:1015A8001A68120700D586E01A68520700D5A2E02B
:1015B80020238022A3500432A35000225C33E2543B
:1015C80000207CE75F4B5A6D0C231A405E4B9B183A
:1015D8001B7984E780231B02994200D157E1FFF76A
:1015E800E5FD636A002BADD0012B00D156E1022B3B
:1015F80000D118E1032B00D15EE1042B00D166E194
:10160800052B00D173E1062B00D180E1072B00D117
:101618008DE1082B00D199E1092B00D1A2E10A2B19
:1016280000D1A7E10B2B8DD1000A8BE7022B00D14B
:10163800FBE000D828E1042B00D0C4E0FFF7A4FCAD
:10164800636A002B20D0012B00D12EE1022B00D1A0
:1016580036E1032B00D13EE1042B00D150E1052BEC
:1016680000D15CE1062B00D168E1072B00D173E1C2
:10167800082B00D180E1092B00D189E10A2B00D188
:1016880092E10B2B00D1000A636840005B08C01888
:101698006168FEF731FD0004000C03002B4A103B83
:1016A800934200D905E70F23020000079A43400F31
:1016B8002368104354E7274A80279046BF03DD6913
:1016C8003D4000D070E7FFF771F82368801B404564
:1016D800F5D91A68204903200A401A609A68A3318C
:1016E800FF318A439A6020238022A3500432A350FA
:1016F8005C33E554E3E6174A80279046FF03DD692B
:101708003D4000D054E7FFF751F82368801B40455F
:10171800F5D9DEE7FFF738FC636A002B00D111E743
:1017280062E7C046F369FFCFFFCFFFFFFFF4FF1169
:10173800003801400044004000480040004C004090
:10174800010001000010024078330008EFFF00009C
:10175800FFB7FFFFFFFFFF015FFEFFFF002D28D04F
:10176800012D00D1A6E0022D00D1AEE0032D00D15D
:10177800B5E0042D00D1C5E0052D00D1D5E0062D3A
:1017880000D1E1E0072D00D1E8E0082D00D1F5E017
:10179800092D00D1FAE00A2D00D1FDE00B3D28000B
:1017A800864A451EA8419446854B404203406344FF
:1017B80000E0844B62685008C0181100FEF79CFCDA
:1017C8000004000CC6E6082B00D072E6002D67D096
:1017D800012D1FD0022D00D18FE0032D00D19CE0F8
:1017E800042D00D1A7E0052D00D1B3E0062D00D1CE
:1017F800BCE08021072D00D1C4E0082D00D1CDE048
:10180800092D00D1D2E00A2D00D1D5E00B2D00D151
:10181800D0E049026368580840181900FEF76CFCCC
:101828000004000C39E780088CE6002D3BD0012D20
:101838004FD0022D5FD0032D6DD0042D79D0052D0A
:1018480000D185E0062D00D18EE0072D00D197E06C
:10185800082D00D1A4E0092D00D1A3E00A2D00D164
:10186800A6E00B3D2800584A451EA8419446574B10
:1018780040420340634462685008C0181100FEF7F4
:101888003BFC0004000C08E7002B00D011E6FFF732
:101898008DFC636A002B00D1F6E6D4E6400851E6D9
:1018A80080214902B6E74A4BE5E74008ECE680208C
:1018B800C00147E6474B7DE70621FEF71DFC41E6E0
:1018C8008008E1E6802080013CE6434B72E7C008CF
:1018D80038E63C4BCFE70621FEF70EFCD4E63F4B3B
:1018E80068E73F482EE6002B00D178E6E1E50A21BB
:1018F800FEF702FC26E6374BBDE78021C90189E7E0
:10190800C008C1E6374B55E7802040011AE60C2194
:10191800FEF7F2FB16E6344BADE734497AE70A21C5
:10192800FEF7EAFBB0E632480CE6324B42E7000924
:1019380008E6294B9FE7802189016BE70C21FEF718
:10194800DBFBA1E62C48FDE52C4B33E74009F9E524
:101958002B4B90E72B495DE7000995E62A4B29E7D1
:101968000001EFE58009EDE51C4B84E7274951E7C5
:10197800C000E7E5C009E5E5400985E6244B19E71D
:10198800184B78E7490145E78000DBE5214B11E773
:10199800800979E64000D5E50B4B0BE7090139E7EB
:1019A800194B68E71A4B66E7C0096DE6C90031E7CD
:1019B800184B60E749002DE789002BE724F4000065
:1019C800DC2FF3000024F40048E80100B85FE601CA
:1019D8000048E80100127A0000093D00AAB028007A
:1019E8005515000080841E0054615100AA2A000089
:1019F800CC0C0000006A1800AA0A00005558140010
:101A080000D430009819000040420F00541500001F
:101A180020A1070090D0030070B57C24035D012B42
:101A280012D0802524230126435103681A681968B7
:101A3800B143196005490A40002141661A60202314
:101A480043510155002070BD0220FCE7FFFFFFDF76
:101A5800F0B5CE4647467C2380B5C35C85B004000C
:101A6800012B46D0802324220568C2502E682B689B
:101A7800233A93432B60AB68DB00DB0819431E4B0A
:101A8800A96000930823FF3301931C4B02931C4B5E
:101A98000393436E002B28D06A46AB6802AF984682
:101AA800AB685B0FD05CF95CC000FEF7AFFB83B29C
:101AB800994643466A461B015B0FD05CF95CC0003F
:101AC800FEF7A4FB80B268234A46E0520233E25292
:101AD800202216332E60E25000220020043BE254FC
:101AE80005B00CBC90469946F0BD012301209946EB
:101AF800E9E70220F4E7C0460101010308040204F3
:101B080008010101F0B5CE4647467C2380B5C35C89
:101B180085B00400012B46D0802324220568C250DA
:101B28002E682B68233A93432B60AB681F4A1340F7
:101B380019431F4BA96000930823FF3301931D4BE2
:101B480002931D4B0393436E002B28D06A46AB6863
:101B580002AF9846AB685B0FD05CF95CC000FEF73B
:101B680055FB83B2994643466A461B015B0FD05C1E
:101B7800F95CC000FEF74AFB80B268234A46E0528F
:101B88000233E252202216332E60E2500022002057
:101B9800043BE25405B00CBC90469946F0BD0123C5
:101BA80001209946E9E70220F4E7C046FFFFFFF16C
:101BB80001010103080402040801010130B599B0CC
:101BC800342200210BA8FEF731FC102200216846C0
:101BD800FEF72CFC1C22002104A8FEF727FC80201D
:101BE8008000FEF739FF80235B000E93C03B109303
:101BF800313B159380239B021693A02300240225D2
:101C08001B060BA817930B950F9412951395149414
:101C1800FEF752FF072301216846009301950294BD
:101C28000394FFF7FDF9012304A804930594FFF733
:101C3800D1FA19B030BDC046F0B589B0FEF796FDAF
:101C4800FFF7BCFF1422002103A8FEF7EFFB0223D5
:101C58000126A0208127474C0821626BC0051A4342
:101C68006263626B7F0013400193019B636B0022E8
:101C780033436363636B002533400293029BFEF793
:101C8800E5FE002239003C48FEF7E0FE80239B0079
:101C980003933A4B03A9384804930595FEF7E0FDF2
:101CA800A020082303A9C00503930496059506956B
:101CB800FEF7D6FD03A930480397049605950695C7
:101CC800FEF7CEFD002200210720FEF775FD072054
:101CD800FEF79EFDA36B00223343A363A36B002191
:101CE800334003930920039BFEF766FD0920FEF7A6
:101CF8008FFD002200210A20FEF75EFD0A20FEF774
:101D080087FD002200210B20FEF756FD0B20FEF771
:101D18007FFD1B4C1B4B20002360E1235B026360AB
:101D280080235B05A3600C23E56063612561A561E1
:101D3800E56125626562A562FFF778FB0021200056
:101D4800FFF786FE00212000FFF7DCFE2000FFF7EA
:101D580063FE0D4A0D4B12889D62DA621D605A6956
:101D680032435A61022252421A61DE6000F06EFC70
:101D7800FEE7C046001002400004005000001110A9
:101D8800B40700200038014008000020001000407F
:101D98000121084B1A688A431A60074AFF31916289
:101DA800002206494A7506490988D9625A621A61A9
:101DB8007047C0460010004000040050400B00204F
:101DC8000800002001220A4B82B0196C11431964E3
:101DD800196C0A4080210092009ADA6B49050A437F
:101DE800DA63DB6B0B400193019B02B07047C0467E
:101DF8000010024010B5040088B01422002103A886
:101E0800FEF714FB114B22689A4201D008B010BDAE
:101E180080200F4BC001196C014319641A6C0240F1
:101E28000192019A0122596BA020114359635B6BFF
:101E380003A913400293029BC023DB0003930223F0
:101E4800C00504930792FEF70BFDDFE70038014059
:101E5800001002407047C046FEE7C0467047C046C3
:101E68007047C04610B5FEF795FC10BD8022024BA6
:101E780012059A607047C04600ED00E00322F8B5ED
:101E88000027244E244C30680378A7709B08134021
:101E9800637027711DD0012B1FD0022B24D0002185
:101EA80003231E4D802603224078764202403143A8
:101EB8001B481B010B43E270134302680221137095
:101EC800A378026853700A2300682B7000F0B2FBF5
:101ED800F8BD124D00212B71E4E701780F4D114038
:101EE80021712F718900DDE783780C4DA3700123E0
:101EF8002B71FC23C1789B0109021940037919430E
:101F0800E98000F075FB217930688900637849B26F
:101F1800C8E7C046180000205C0B0020400B0020DA
:101F280014000020012310B50D4C23710D4B1868C7
:101F3800FC23C1789B010902194003791943E18008
:101F480000F056FBD022084B19680A700022196865
:101F58004A7018680B320221227000F06BFB10BD2A
:101F6800400B00201800002014000020002210B5AB
:101F7800064B1A71064A917801314A0089180F22D6
:101F88001A70044B186800F055FB10BD400B002078
:101F98005C0B002018000020002310B50B4A1371B9
:101FA8000B4B5978012908D0C021890010231370E0
:101FB800084B186800F03EFB10BD197903394B1E19
:101FC80099414B42202119406031EFE7400B002036
:101FD8005C0B002018000020802270B50F4B920087
:101FE8000F4CDA60657D002D06D00023013A637539
:101FF8000C4BFF3A9A6270BD0B4B0521186800F034
:10200800F7FAA02201230821D20523709162022247
:10201800E372044B9A61A572EDE7C04600180240CE
:10202800400B002000040050180000200122034B40
:102038005A75034BFF329A617047C046400B002027
:10204800000400500222034B9A62034B013A9A7231
:102058007047C04600040050400B00200222034B8A
:102068009A610022024B9A727047C04600040050E1
:10207800400B0020A0230822DB059A62014B073A97
:10208800DA727047400B0020A0230822DB059A6112
:102098000022014BDA727047400B0020802210B5F5
:1020A80027498B681340FCD126498A7D012A10D024
:1020B8000A78062A13D0012A14D0032A06D0042A43
:1020C80028D0052A2CD0022A27D010BD00F024FBE6
:1020D800FBE78B7508330B7000F028F9F5E700F083
:1020E800C1F8F2E7184A0B711068027892094A7031
:1020F80019D0012A1AD0022AE7D102784B71920628
:10210800920FCA7015D0012A16D0022ADDD1FFF726
:1021180009FFDAE7FFF72AFFD7E700F06DF8D4E701
:10212800FFF73AFFD1E700F051F8CEE700F0A4FA44
:10213800CBE700F0C7FAC8E7FFF7A0FEC5E7C0463F
:1021480000300140400B002018000020802210B50C
:102158001A498B681A42FCD1194C2378082B26D0CF
:102168000A2B1ED00B2B13D0092B11D00C2B11D1FD
:10217800A17801291ED9134800F066FA01238022AC
:102188006375114B52009A6123780C2B08D001E03B
:10219800063B23700123802263750B4B52009A6122
:1021A80010BD2379002BF5D004232370F2E700F04B
:1021B800DDF8F5E700F056FAE6E7C04600380040DB
:1021C800400B0020F0330008000400503F21022299
:1021D80010B5074B186843781940064B1971490028
:1021E800D9801A7000F004FAFFF720FF10BDC0462E
:1021F80018000020400B0020F8B5154E154B357916
:102208001968002D21D0144F0B003C00013DEDB2A0
:102218006D008A1CAD1818785A7800020243023300
:10222800228002349D42F6D100240C4D3A88286859
:10223800747100F0E7F90D233370094B2868022107
:102248001C705C7000F0F6F9F8BD034FECE7C0466F
:10225800400B002018000020CC3300201400002080
:10226800B401002070B5FFF7F9FEFFF703FF002265
:10227800294C2A496379A0895D004D5BA282854279
:102288002FD1608A0133013060822089DBB20130AE
:1022980020812079A281E281637198420CD00722C3
:1022A8005B002270CA5A1E4B19681E4B186800F052
:1022B800A9F9FFF7BBFE70BD0023637101232281DA
:1022C800228B63750023002AE9D006332370FFF7B9
:1022D800DBFEFFF7B7FE134B218B186800F088F977
:1022E800E9E72389104901339BB25A002381D318A7
:1022F8005B00CA185D5A5388ED18094BADB21B68CC
:102308002900181800F096F9A389ED18237DA581F6
:1023180001332375CFE7C046400B0020CC330020A3
:1023280018000020140000204008002070B50C4D53
:102338000C4A29894B005B185B00D1189C5A4B88C2
:10234800094AE4181068AB89A4B22100C01800F04B
:1023580071F9AB89E4182B7DAC8101332B7570BD05
:10236800400B0020400800201800002070B52C4CBD
:102378002C49627923895500A0894D5B01339BB2B2
:1023880085421FD10025608A0132013060822079A0
:10239800D2B22381A581E5816271637D904228D004
:1023A800012B02D1238B002B2ED1072323701E4B28
:1023B80052008A5A19681D4B186800F023F9FFF774
:1023C80035FE70BD5A001A492381D3185B00CA181C
:1023D8005D5A5388ED18144BADB21B6829001818C4
:1023E80000F028F9A389ED18237DA5810133237511
:1023F800E7E7002262715A425341DBB225816375D7
:102408000022012BCED0D0E706232370FFF73CFE35
:10241800FFF718FE054B218B186800F0E9F8D0E7A4
:10242800400B0020CC3300201800002014000020AE
:1024380040080020F0B557464E464546DE46002285
:102448000124E0B50325022680273A4B3A481A6052
:102458004168BA462143416038494C682C434C6076
:10246800374C5A609C60A0461C680D35B4431C600C
:102478001C682C431C601C683C431C601C68A446F8
:1024880080246746A40127431F6011272D4BA346CC
:102498001F602D4B1A604768374347604F68BC463A
:1024A8003027B94667464C46274344464F605A6032
:1024B8009C60264C2468DC601C68270037431F603A
:1024C8001C682700AF431F601C6827005446274339
:1024D8001F601C6827005C4627431F601C4B1D605B
:1024E8001C4B1A604468A446082467462743476083
:1024F80048688446C02064468001204348605146AD
:102508005C465A60144A9A601A6816431E601A6834
:1025180015431D601A680A431A601A681443132287
:102528001C600E4B1A603CBC90469946A246AB46CE
:10253800F0BDC0460800024080080240000002408A
:102548000C300140000802401C0002401800002026
:1025580004080240440002400C3800400C080240C5
:1025680010B5094800F0E4FB02210320074B1A6864
:102578008A4307491A604A6802434A6001211A6877
:102588008A431A6010BDC0460C3400080800024097
:102598000000024002213020074B10B51A688A4318
:1025A80006491A604A6802434A6001211A688A4348
:1025B8001A60FFF773FD10BD1C00024000000240C6
:1025C8000221094B10B51A688A431A60C0220749CC
:1025D8009201486802434A6001211A688A431A60D6
:1025E800FFF7B4FD10BDC0464400024000000240A1
:1025F800034B59600321D8601A680A431A60704770
:102608001C00024030B50125074B084C9D75084B4E
:1026180062605A600322E160D8602168114321603A
:102628001A682A431A6030BD400B00201C00024083
:1026380008000240034B59600321D8601A680A4316
:102648001A607047440002407047C04610B5FFF753
:1026580011FDFFF703FD00F009F9FFF7EBFEFFF7A7
:10266800E5FC10BD112210B5024B1A70FFF7EAFC09
:1026780010BDC046400B00204020002110B50D4B76
:102688000D4A1B680D4C1B7811719B069B0F9370AC
:102698001B010343206803702368094859700C2301
:1026A80021681370FFF7D0FF20680221FFF7C2FFEF
:1026B80010BDC04618000020400B00201400002068
:1026C8001834000870B5104B104D1868104C8378FA
:1026D8002B7001232371FC23C1789B010902194047
:1026E80003791943E180FFF783FFC022094B19687A
:1026F8000A702A7819684A7009221868022122701B
:10270800FFF798FF70BDC046180000205C0B002042
:10271800400B002014000020504BF0B54E4699465F
:10272800DE465746454600234A46E0B513711383F3
:102738004B4B89B059780322002905D0012900D1D3
:102748007DE0022900D186E01878464B06901D6886
:102758000595002800D17BE05300D3185900DBB25F
:10276800049393B2421ED2B203933F4C53009B187A
:102778005B00A71DDB19029300239C460333C9B2F3
:102788009846053307919A4615E0D018049B8010A7
:102798005843C0B280B2019B624623805B462371D6
:1027A800002363714B461A83029B608004353C000A
:1027B800BB4235D0063741462B78039E9A09013231
:1027C800D2001B0956430B400133DB005E43A97856
:1027D8000196C809834613D00026B34646464809E1
:1027E800064203D1980896084643B346102008428B
:1027F80002D15846400883466046584480B2844611
:10280800564600200E42C6D046463140BDD001296A
:10281800C1D19818079B80105843C0B280B2BAE75C
:10282800069B059899000E234A461370FFF702FF8E
:1028380009B03CBC90469946A246AB46F0BD187814
:10284800084B02221D6806900595002800D083E7F2
:1028580000212800E7E7012276E7C046400B002068
:102868005C0B00201800002040080020F0B5C64688
:10287800802600B502248AB00C22002107A8FDF7A3
:10288800D5FD80200127454B76011A6CC0013243E3
:102898001A641A6C002532400192019A5A6B22433D
:1028A8005A635A6B22400292029AD96B0143D96348
:1028B800DA6B05A902400392039A5A6B3A435A63AA
:1028C8005B6B06943B400493049B64230593A0230D
:1028D800DB0598461800FDF7C3FF05A94046059794
:1028E8000694079508950995FDF7BAFF102305A9E1
:1028F800404605930694079508950997FDF7B0FF9C
:1029080040228020264B8000196880469143196038
:102918001D605D60196821431960196801431960D9
:1029280059680F435F600427596821435960596803
:102938003943596059688C46E0216046C90008430C
:102948005860586830435860186810431860154B31
:1029580018689043186008201D605D601D683D433D
:102968001D601D68054340461D601D6825431D60A8
:102978001D6828431860586804435C6058683843E9
:10298800586058680143596059680E435E60196879
:102998000A431A600AB004BC9046F0BD0010024019
:1029A80000300140003800400D488546002103E012
:1029B8000C4B5B58435004310B480C4B42189A425D
:1029C800F6D30B4A02E0002313600432094B9A4203
:1029D800F9D3FFF74BFAFDF705FDFFF72DF9FEE7F1
:1029E8000090002098340008000000208400002097
:1029F8008400002064350020FEE70000014B1868C1
:102A08007047C0461C000020002310B50400036076
:102A18004360836081814366C2810361436183614E
:102A2800190008225C30FDF701FD054B2462636242
:102A3800044BA362044BE362044B236310BDC046FE
:102A4800712D0008992D0008D12D0008FD2D0008D2
:102A580010B5024900F08CF810BDC04601310008DD
:102A680070B568254A1E55430E002900743100F0E0
:102A7800A1F8041E08D000212A00016046600C302D
:102A8800A0606832FDF7D2FC200070BD836913B5E1
:102A98000400002B28D18364C3640365134B144AD4
:102AA8001B6882620193984201D10123836120004F
:102AB80000F020F86060200000F01CF8A060200002
:102AC80000F018F80022E06004216068FFF79CFF1E
:102AD80001220921A068FFF797FF02221221E0686E
:102AE800FFF792FF0123A36113BDC046EC33000832
:102AF800592A0008F8B51C4B07001E68B369002B5B
:102B080002D13000FFF7C2FF4836B4687368013B52
:102B180004D53368002B07D03668F6E70C22A55E8B
:102B2800002D0DD06834F2E704213800FFF798FF34
:102B380030600028F0D10C2304003B602000F8BD71
:102B480020000A4B656625606560A560E360256125
:102B58006561A561082229005C30FDF767FC6563A3
:102B6800A563A564E564E9E7EC3300080100FFFF0D
:102B7800F7B504000700002601914834002C01D164
:102B88003000FEBD6368A5680093009B013B00937D
:102B980001D52468F2E7AB89012B08D90E22AB5E78
:102BA800013304D029003800019B98470643683553
:102BB800EBE70000032370B5CD1C9D4308350600E4
:102BC8000C2D1ED20C25A9421DD8300000F040FB68
:102BD800254A14682100002919D1244C2368002BA8
:102BE80003D1300000F0AEF820602900300000F07A
:102BF800A9F8431C2BD10C233000336000F029FBCB
:102C080003E0002DDFDA0C233360002070BD0B6871
:102C18005B1B19D40B2B03D90B60CC18256003E080
:102C28004B688C420DD11360300000F012FB20007D
:102C380007220B30231D9043C31AE7D05A42E250B3
:102C4800E4E763600C00EFE70C004968C3E703237F
:102C5800C41C9C43A042E1D0211A300000F072F855
:102C6800431CDBD1C7E7C0464401002048010020CF
:102C780070B505000E00002804D08369002B01D12F
:102C8800FFF704FFAB69AC68002B02D12800FFF7FF
:102C9800FDFE244B9C420FD16C68A3891B0702D50B
:102CA8002369002B1FD12100280000F013F9002808
:102CB80019D00120404270BD1B4B9C4201D1AC6829
:102CC800EBE71A4B9C42E8D1EC68E6E70136A360D3
:102CD800002B04DAA2699A4216DC0A2914D0236868
:102CE8005A1C22601970A3683178013B0029EDD184
:102CF800A360002B0FDA22000A31280000F080F8C8
:102D0800431CD6D00A20D6E72200280000F078F825
:102D1800431CE8D1CDE70A2023685A1C22601870AA
:102D2800C9E7C04650340008703400083034000841
:102D380010B5034B01001868FFF79AFF10BDC04695
:102D48001C000020002370B5064C05000800236015
:102D5800FDF776FC431C03D12368002B00D02B60C1
:102D680070BDC0466035002070B50C000E25495F67
:102D780000F0BAFA002803DB636D1B18636570BDA9
:102D8800A389024A1340A381F9E7C046FFEFFFFF7A
:102D9800F8B51F008B8905000C001600DB0505D56A
:102DA8000E23C95E0022022300F0D2F9A389054A46
:102DB80028001340A38132000E23E15E3B0000F09F
:102DC80075F8F8BDFFEFFFFF70B50C000E25495FE1
:102DD80000F0BEF9A389421C03D1054A1340A38120
:102DE80070BD802252011343A3816065F8E7C04695
:102DF800FFEFFFFF10B50E23C95E00F0E1F810BD2C
:102E0800F8B505000E001400002804D08369002BD3
:102E180001D1FFF73BFE224B9C422DD16C68A36980
:102E2800A360A3891B0731D52369002B2ED0236803
:102E38002269F7B2981A6369F6B2834205DC210069
:102E4800280000F059F9002826D1A3680130013B79
:102E5800A36023685A1C22601F706369834204D0F0
:102E6800A389DB071AD50A2E18D12100280000F003
:102E780043F9002812D00FE00A4B9C4201D1AC68FC
:102E8800CDE7094B9C42CAD1EC68C8E7210028006D
:102E980000F020F80028CAD0012676423000F8BD9C
:102EA80050340008703400083034000870B505004C
:102EB800080011000022064C22601A00FDF76FFB83
:102EC800431C03D12368002B00D02B6070BDC04683
:102ED80060350020364B70B51D6806000C00002DCB
:102EE80005D0AB69002B02D12800FFF7CFFD314B8D
:102EF8009C420FD16C680C23E25E93B219072DD463
:102F0800D90611D409230120336037331343A38131
:102F1800404270BD284B9C4201D1AC68EBE7274B7F
:102F28009C42E8D1EC68E6E75B0713D5616B0029A2
:102F380008D023004433994202D0300000F08AF9C7
:102F4800002363632422A3899343A381002363603E
:102F5800236923600823A2891343A3812369002BD3
:102F68000BD1A0218022A389890092000B409342B3
:102F780003D02100300000F027F90123A289134073
:102F880011D00023A36063695B42A3610020236919
:102F98008342BED10C23E25E1306BAD54023134305
:102FA800A3810138B5E7920700D46369A360EDE710
:102FB8001C00002050340008703400083034000829
:102FC800002370B5064C050008002360FDF712FBCE
:102FD800431C03D12368002B00D02B6070BDC04672
:102FE80060350020F7B58A8905000C00130760D406
:102FF8004B68002B04DC0B6C002B01DC0020FEBDB1
:10300800E76A002FFAD000232E682B6080235B012B
:10301800216A1A4034D0606DA3895B0706D56368BE
:10302800C01A636B002B01D0236CC01A0200216AFE
:1030380000232800E76AB847A189431C06D12B68FA
:103048001D2B30D82B4ADA40D3072CD500236360D8
:1030580023692360CB0405D5431C02D12B68002BC0
:1030680000D16065616B2E600029C7D0230044330E
:10307800994202D0280000F0EDF800206063BEE716
:1030880001232800B847431CC6D12B68002BC3D0A6
:103098001D2B01D0162B01D12E60AFE74023A2894A
:1030A8001343A381ABE740230B430120A381404294
:1030B800A5E70F69002FA1D00B680F60DB1B0193F8
:1030C8000023920700D14B69A360019B002B00DC11
:1030D80094E7019B3A00216A2800A66AB0470028B5
:1030E80003DC4023A2891343DFE7019B3F181B1A27
:1030F8000193EAE7010040200B6970B505000C0058
:10310800002B01D1002070BD002804D08369002B5A
:1031180001D1FFF7BBFC0B4B9C4209D16C680C2218
:10312800A35E002BEED021002800FFF75BFFEAE743
:10313800054B9C4201D1AC68F1E7044B9C42EED1AF
:10314800EC68ECE7503400087034000830340008AC
:1031580070B50500080011000022064C22601A0014
:10316800FDF709FA431C03D12368002B00D02B601C
:1031780070BDC0466035002070B50E001D000E23DE
:10318800C95E96B01400002907DA00232B60B389C2
:103198001B0611D48023DB000FE06A4600F0B8F864
:1031A8000028F2DBF022019B12021340054A9B180B
:1031B8005A4253412B60EDE740230020236016B0AC
:1031C80070BDC04600E0FFFFF7B502268B890500F9
:1031D8000C00334206D023004733236023610123C8
:1031E8006361F7BD01AB6A46FFF7C6FF00990700A8
:1031F8002800FFF7DFFC002808D10C22A35E9A05FF
:10320800EFD4032293431E43A681E4E70F4BAB623E
:103218008023A28920601343A381009B20616361FE
:10322800019B002B0DD00E23E15E280000F082F8F0
:10323800002806D00322A38993431A0001231343CD
:10324800A381A0893843A081CBE7C046592A00084A
:103258007047704770B50500002910D00C1F23680F
:10326800002B00DAE4182800FFF7F2FF1D4A136864
:10327800002B05D1636014602800FFF7EAFF70BDDA
:10328800A34209D9216860188342F3D118685B68A2
:1032980041182160EEE713005A68002A01D0A242C3
:1032A800F9D919685818A0420BD12068091858187C
:1032B80019608242E0D110685268411819605A605A
:1032C800DAE7A04202D90C232B60D5E72168601801
:1032D800824203D1106852684118216062605C60C4
:1032E800CAE7C0464401002070B505000800110077
:1032F8000022064C22601A00FDF7E8F8431C03D1AF
:103308002368002B00D02B6070BDC04660350020BC
:10331800002370B5064C0500080011002360FDF776
:10332800D7F9431C03D12368002B00D02B6070BD54
:1033380060350020002370B5064C050008002360A6
:10334800FDF7D3F9431C03D12368002B00D02B6071
:1033580070BDC04660350020F8B5C046F8BC08BC52
:103368009E467047F8B5C046F8BC08BC9E467047F4
:1033780000040208001010100410101002101010A1
:10338800080000000000000000000000000000002D
:103398000000000000000000000000000000000025
:1033A800000000000100000002000000030000000F
:1033B80004000000060000000700000008000000EC
:1033C80009000000000000000000000000000000EC
:1033D80000000000010000000200000003000000DF
:1033E800040000002000002046696E697368656467
:1033F800204164647265737320446174612025649C
:103408000A00000043616C6C4261636B310000008C
:1034180053454E4420414444522048454144455276
:10342800202564200A0000000000000000000000C1
:103438000000000000000000000000000000000084
:103448000000000000000000000000000000000074
:103458000000000000000000000000000000000064
:103468000000000000000000000000000000000054
:103478000000000000000000000000000000000044
:0834880000000000000000003C
:04349000E10000084F
:04349400B900000873
:103498000100000004000000001000000024F400F7
:1034A800CC330020B4010020640B00202000002051
:1034B8000000000050340008703400083034000860
:1034C80000000000000000000000000000000000F4
:1034D80000000000000000000000000000000000E4
:1034E80000000000000000000000000000000000D4
:1034F80000000000000000000000000000000000C4
:1035080000000000000000000000000000000000B3
:04351800ADDEFECA5C
:04000005080029B115
:00000001FF
